{
	"ECE473 Final Project/Governance.sol": {
		"Governance": {
			"abi": [
				{
					"inputs": [
						{
							"internalType": "contract DAOToken",
							"name": "_daoToken",
							"type": "address"
						}
					],
					"stateMutability": "nonpayable",
					"type": "constructor"
				},
				{
					"anonymous": false,
					"inputs": [
						{
							"indexed": true,
							"internalType": "uint256",
							"name": "proposalId",
							"type": "uint256"
						},
						{
							"indexed": true,
							"internalType": "address",
							"name": "proposer",
							"type": "address"
						},
						{
							"indexed": false,
							"internalType": "string",
							"name": "description",
							"type": "string"
						},
						{
							"indexed": false,
							"internalType": "uint256",
							"name": "amount",
							"type": "uint256"
						}
					],
					"name": "NewProposal",
					"type": "event"
				},
				{
					"anonymous": false,
					"inputs": [
						{
							"indexed": true,
							"internalType": "uint256",
							"name": "proposalId",
							"type": "uint256"
						},
						{
							"indexed": true,
							"internalType": "address",
							"name": "proposer",
							"type": "address"
						},
						{
							"indexed": false,
							"internalType": "bool",
							"name": "successful",
							"type": "bool"
						},
						{
							"indexed": false,
							"internalType": "uint256",
							"name": "totalVotesFor",
							"type": "uint256"
						},
						{
							"indexed": false,
							"internalType": "uint256",
							"name": "totalVotesAgainst",
							"type": "uint256"
						}
					],
					"name": "ProposalExecuted",
					"type": "event"
				},
				{
					"anonymous": false,
					"inputs": [
						{
							"indexed": true,
							"internalType": "uint256",
							"name": "proposalId",
							"type": "uint256"
						},
						{
							"indexed": true,
							"internalType": "address",
							"name": "voter",
							"type": "address"
						},
						{
							"indexed": false,
							"internalType": "bool",
							"name": "support",
							"type": "bool"
						},
						{
							"indexed": false,
							"internalType": "uint256",
							"name": "weight",
							"type": "uint256"
						}
					],
					"name": "VoteCasted",
					"type": "event"
				},
				{
					"inputs": [
						{
							"internalType": "string",
							"name": "description",
							"type": "string"
						},
						{
							"internalType": "uint256",
							"name": "amount",
							"type": "uint256"
						},
						{
							"internalType": "address payable",
							"name": "recipient",
							"type": "address"
						}
					],
					"name": "createProposal",
					"outputs": [],
					"stateMutability": "nonpayable",
					"type": "function"
				},
				{
					"inputs": [],
					"name": "daoToken",
					"outputs": [
						{
							"internalType": "contract DAOToken",
							"name": "",
							"type": "address"
						}
					],
					"stateMutability": "view",
					"type": "function"
				},
				{
					"inputs": [
						{
							"internalType": "uint256",
							"name": "proposalId",
							"type": "uint256"
						}
					],
					"name": "executeProposal",
					"outputs": [],
					"stateMutability": "nonpayable",
					"type": "function"
				},
				{
					"inputs": [
						{
							"internalType": "uint256",
							"name": "proposalId",
							"type": "uint256"
						},
						{
							"internalType": "uint256",
							"name": "amount",
							"type": "uint256"
						},
						{
							"internalType": "bool",
							"name": "support",
							"type": "bool"
						}
					],
					"name": "vote",
					"outputs": [],
					"stateMutability": "nonpayable",
					"type": "function"
				}
			],
			"devdoc": {
				"kind": "dev",
				"methods": {},
				"version": 1
			},
			"evm": {
				"assembly": "    /* \"ECE473 Final Project/Governance.sol\":207:3565  contract Governance {... */\n  mstore(0x40, 0x80)\n    /* \"ECE473 Final Project/Governance.sol\":1222:1291  constructor(DAOToken _daoToken) {... */\n  callvalue\n  dup1\n  iszero\n  tag_1\n  jumpi\n  0x00\n  dup1\n  revert\ntag_1:\n  pop\n  mload(0x40)\n  sub(codesize, bytecodeSize)\n  dup1\n  bytecodeSize\n  dup4\n  codecopy\n  dup2\n  dup2\n  add\n  0x40\n  mstore\n  dup2\n  add\n  swap1\n  tag_2\n  swap2\n  swap1\n  tag_3\n  jump\t// in\ntag_2:\n    /* \"ECE473 Final Project/Governance.sol\":1275:1284  _daoToken */\n  dup1\n    /* \"ECE473 Final Project/Governance.sol\":1264:1272  daoToken */\n  0x00\n  dup1\n    /* \"ECE473 Final Project/Governance.sol\":1264:1284  daoToken = _daoToken */\n  0x0100\n  exp\n  dup2\n  sload\n  dup2\n  0xffffffffffffffffffffffffffffffffffffffff\n  mul\n  not\n  and\n  swap1\n  dup4\n  0xffffffffffffffffffffffffffffffffffffffff\n  and\n  mul\n  or\n  swap1\n  sstore\n  pop\n    /* \"ECE473 Final Project/Governance.sol\":1222:1291  constructor(DAOToken _daoToken) {... */\n  pop\n    /* \"ECE473 Final Project/Governance.sol\":207:3565  contract Governance {... */\n  jump(tag_6)\n    /* \"#utility.yul\":88:205   */\ntag_8:\n    /* \"#utility.yul\":197:198   */\n  0x00\n    /* \"#utility.yul\":194:195   */\n  dup1\n    /* \"#utility.yul\":187:199   */\n  revert\n    /* \"#utility.yul\":334:460   */\ntag_10:\n    /* \"#utility.yul\":371:378   */\n  0x00\n    /* \"#utility.yul\":411:453   */\n  0xffffffffffffffffffffffffffffffffffffffff\n    /* \"#utility.yul\":404:409   */\n  dup3\n    /* \"#utility.yul\":400:454   */\n  and\n    /* \"#utility.yul\":389:454   */\n  swap1\n  pop\n    /* \"#utility.yul\":334:460   */\n  swap2\n  swap1\n  pop\n  jump\t// out\n    /* \"#utility.yul\":466:562   */\ntag_11:\n    /* \"#utility.yul\":503:510   */\n  0x00\n    /* \"#utility.yul\":532:556   */\n  tag_21\n    /* \"#utility.yul\":550:555   */\n  dup3\n    /* \"#utility.yul\":532:556   */\n  tag_10\n  jump\t// in\ntag_21:\n    /* \"#utility.yul\":521:556   */\n  swap1\n  pop\n    /* \"#utility.yul\":466:562   */\n  swap2\n  swap1\n  pop\n  jump\t// out\n    /* \"#utility.yul\":568:681   */\ntag_12:\n    /* \"#utility.yul\":622:629   */\n  0x00\n    /* \"#utility.yul\":651:675   */\n  tag_23\n    /* \"#utility.yul\":669:674   */\n  dup3\n    /* \"#utility.yul\":651:675   */\n  tag_11\n  jump\t// in\ntag_23:\n    /* \"#utility.yul\":640:675   */\n  swap1\n  pop\n    /* \"#utility.yul\":568:681   */\n  swap2\n  swap1\n  pop\n  jump\t// out\n    /* \"#utility.yul\":687:843   */\ntag_13:\n    /* \"#utility.yul\":777:818   */\n  tag_25\n    /* \"#utility.yul\":812:817   */\n  dup2\n    /* \"#utility.yul\":777:818   */\n  tag_12\n  jump\t// in\ntag_25:\n    /* \"#utility.yul\":770:775   */\n  dup2\n    /* \"#utility.yul\":767:819   */\n  eq\n    /* \"#utility.yul\":757:837   */\n  tag_26\n  jumpi\n    /* \"#utility.yul\":833:834   */\n  0x00\n    /* \"#utility.yul\":830:831   */\n  dup1\n    /* \"#utility.yul\":823:835   */\n  revert\n    /* \"#utility.yul\":757:837   */\ntag_26:\n    /* \"#utility.yul\":687:843   */\n  pop\n  jump\t// out\n    /* \"#utility.yul\":849:1026   */\ntag_14:\n    /* \"#utility.yul\":923:928   */\n  0x00\n    /* \"#utility.yul\":954:960   */\n  dup2\n    /* \"#utility.yul\":948:961   */\n  mload\n    /* \"#utility.yul\":939:961   */\n  swap1\n  pop\n    /* \"#utility.yul\":970:1020   */\n  tag_28\n    /* \"#utility.yul\":1014:1019   */\n  dup2\n    /* \"#utility.yul\":970:1020   */\n  tag_13\n  jump\t// in\ntag_28:\n    /* \"#utility.yul\":849:1026   */\n  swap3\n  swap2\n  pop\n  pop\n  jump\t// out\n    /* \"#utility.yul\":1032:1417   */\ntag_3:\n    /* \"#utility.yul\":1119:1125   */\n  0x00\n    /* \"#utility.yul\":1168:1170   */\n  0x20\n    /* \"#utility.yul\":1156:1165   */\n  dup3\n    /* \"#utility.yul\":1147:1154   */\n  dup5\n    /* \"#utility.yul\":1143:1166   */\n  sub\n    /* \"#utility.yul\":1139:1171   */\n  slt\n    /* \"#utility.yul\":1136:1255   */\n  iszero\n  tag_30\n  jumpi\n    /* \"#utility.yul\":1174:1253   */\n  tag_31\n  tag_8\n  jump\t// in\ntag_31:\n    /* \"#utility.yul\":1136:1255   */\ntag_30:\n    /* \"#utility.yul\":1294:1295   */\n  0x00\n    /* \"#utility.yul\":1319:1400   */\n  tag_32\n    /* \"#utility.yul\":1392:1399   */\n  dup5\n    /* \"#utility.yul\":1383:1389   */\n  dup3\n    /* \"#utility.yul\":1372:1381   */\n  dup6\n    /* \"#utility.yul\":1368:1390   */\n  add\n    /* \"#utility.yul\":1319:1400   */\n  tag_14\n  jump\t// in\ntag_32:\n    /* \"#utility.yul\":1309:1400   */\n  swap2\n  pop\n    /* \"#utility.yul\":1265:1410   */\n  pop\n    /* \"#utility.yul\":1032:1417   */\n  swap3\n  swap2\n  pop\n  pop\n  jump\t// out\n    /* \"ECE473 Final Project/Governance.sol\":207:3565  contract Governance {... */\ntag_6:\n  dataSize(sub_0)\n  dup1\n  dataOffset(sub_0)\n  0x00\n  codecopy\n  0x00\n  return\nstop\n\nsub_0: assembly {\n        /* \"ECE473 Final Project/Governance.sol\":207:3565  contract Governance {... */\n      mstore(0x40, 0x80)\n      callvalue\n      dup1\n      iszero\n      tag_1\n      jumpi\n      0x00\n      dup1\n      revert\n    tag_1:\n      pop\n      jumpi(tag_2, lt(calldatasize, 0x04))\n      shr(0xe0, calldataload(0x00))\n      dup1\n      0x0d61b519\n      eq\n      tag_3\n      jumpi\n      dup1\n      0x4914b030\n      eq\n      tag_4\n      jumpi\n      dup1\n      0x6a18ff7a\n      eq\n      tag_5\n      jumpi\n      dup1\n      0x6ac1e01f\n      eq\n      tag_6\n      jumpi\n    tag_2:\n      0x00\n      dup1\n      revert\n        /* \"ECE473 Final Project/Governance.sol\":2626:3265  function executeProposal(uint256 proposalId) public {... */\n    tag_3:\n      tag_7\n      0x04\n      dup1\n      calldatasize\n      sub\n      dup2\n      add\n      swap1\n      tag_8\n      swap2\n      swap1\n      tag_9\n      jump\t// in\n    tag_8:\n      tag_10\n      jump\t// in\n    tag_7:\n      stop\n        /* \"ECE473 Final Project/Governance.sol\":320:344  DAOToken public daoToken */\n    tag_4:\n      tag_11\n      tag_12\n      jump\t// in\n    tag_11:\n      mload(0x40)\n      tag_13\n      swap2\n      swap1\n      tag_14\n      jump\t// in\n    tag_13:\n      mload(0x40)\n      dup1\n      swap2\n      sub\n      swap1\n      return\n        /* \"ECE473 Final Project/Governance.sol\":1881:2620  function vote(uint256 proposalId, uint256 amount, bool support) public {... */\n    tag_5:\n      tag_15\n      0x04\n      dup1\n      calldatasize\n      sub\n      dup2\n      add\n      swap1\n      tag_16\n      swap2\n      swap1\n      tag_17\n      jump\t// in\n    tag_16:\n      tag_18\n      jump\t// in\n    tag_15:\n      stop\n        /* \"ECE473 Final Project/Governance.sol\":1297:1875  function createProposal(string memory description, uint256 amount, address payable recipient) public {... */\n    tag_6:\n      tag_19\n      0x04\n      dup1\n      calldatasize\n      sub\n      dup2\n      add\n      swap1\n      tag_20\n      swap2\n      swap1\n      tag_21\n      jump\t// in\n    tag_20:\n      tag_22\n      jump\t// in\n    tag_19:\n      stop\n        /* \"ECE473 Final Project/Governance.sol\":2626:3265  function executeProposal(uint256 proposalId) public {... */\n    tag_10:\n        /* \"ECE473 Final Project/Governance.sol\":2688:2713  Proposal storage proposal */\n      0x00\n        /* \"ECE473 Final Project/Governance.sol\":2716:2725  proposals */\n      0x01\n        /* \"ECE473 Final Project/Governance.sol\":2726:2736  proposalId */\n      dup3\n        /* \"ECE473 Final Project/Governance.sol\":2716:2737  proposals[proposalId] */\n      dup2\n      sload\n      dup2\n      lt\n      tag_24\n      jumpi\n      tag_25\n      tag_26\n      jump\t// in\n    tag_25:\n    tag_24:\n      swap1\n      0x00\n      mstore\n      keccak256(0x00, 0x20)\n      swap1\n      0x0d\n      mul\n      add\n        /* \"ECE473 Final Project/Governance.sol\":2688:2737  Proposal storage proposal = proposals[proposalId] */\n      swap1\n      pop\n        /* \"ECE473 Final Project/Governance.sol\":2756:2764  proposal */\n      dup1\n        /* \"ECE473 Final Project/Governance.sol\":2756:2773  proposal.executed */\n      0x0c\n      add\n      0x00\n      swap1\n      sload\n      swap1\n      0x0100\n      exp\n      swap1\n      div\n      0xff\n      and\n        /* \"ECE473 Final Project/Governance.sol\":2755:2773  !proposal.executed */\n      iszero\n        /* \"ECE473 Final Project/Governance.sol\":2747:2803  require(!proposal.executed, \"Proposal already executed\") */\n      tag_28\n      jumpi\n      mload(0x40)\n      0x08c379a000000000000000000000000000000000000000000000000000000000\n      dup2\n      mstore\n      0x04\n      add\n      tag_29\n      swap1\n      tag_30\n      jump\t// in\n    tag_29:\n      mload(0x40)\n      dup1\n      swap2\n      sub\n      swap1\n      revert\n    tag_28:\n        /* \"ECE473 Final Project/Governance.sol\":2839:2847  proposal */\n      dup1\n        /* \"ECE473 Final Project/Governance.sol\":2839:2855  proposal.endTime */\n      0x06\n      add\n      sload\n        /* \"ECE473 Final Project/Governance.sol\":2821:2836  block.timestamp */\n      timestamp\n        /* \"ECE473 Final Project/Governance.sol\":2821:2855  block.timestamp > proposal.endTime */\n      gt\n        /* \"ECE473 Final Project/Governance.sol\":2813:2887  require(block.timestamp > proposal.endTime, \"Voting period not yet ended\") */\n      tag_31\n      jumpi\n      mload(0x40)\n      0x08c379a000000000000000000000000000000000000000000000000000000000\n      dup2\n      mstore\n      0x04\n      add\n      tag_32\n      swap1\n      tag_33\n      jump\t// in\n    tag_32:\n      mload(0x40)\n      dup1\n      swap2\n      sub\n      swap1\n      revert\n    tag_31:\n        /* \"ECE473 Final Project/Governance.sol\":2918:2922  true */\n      0x01\n        /* \"ECE473 Final Project/Governance.sol\":2898:2906  proposal */\n      dup2\n        /* \"ECE473 Final Project/Governance.sol\":2898:2915  proposal.executed */\n      0x0c\n      add\n      0x00\n        /* \"ECE473 Final Project/Governance.sol\":2898:2922  proposal.executed = true */\n      0x0100\n      exp\n      dup2\n      sload\n      dup2\n      0xff\n      mul\n      not\n      and\n      swap1\n      dup4\n      iszero\n      iszero\n      mul\n      or\n      swap1\n      sstore\n      pop\n        /* \"ECE473 Final Project/Governance.sol\":2932:2947  bool successful */\n      0x00\n        /* \"ECE473 Final Project/Governance.sol\":2975:2983  proposal */\n      dup2\n        /* \"ECE473 Final Project/Governance.sol\":2975:3001  proposal.totalVotesAgainst */\n      0x08\n      add\n      sload\n        /* \"ECE473 Final Project/Governance.sol\":2950:2958  proposal */\n      dup3\n        /* \"ECE473 Final Project/Governance.sol\":2950:2972  proposal.totalVotesFor */\n      0x07\n      add\n      sload\n        /* \"ECE473 Final Project/Governance.sol\":2950:3001  proposal.totalVotesFor > proposal.totalVotesAgainst */\n      gt\n        /* \"ECE473 Final Project/Governance.sol\":2932:3001  bool successful = proposal.totalVotesFor > proposal.totalVotesAgainst */\n      swap1\n      pop\n        /* \"ECE473 Final Project/Governance.sol\":3045:3053  proposal */\n      dup2\n        /* \"ECE473 Final Project/Governance.sol\":3045:3062  proposal.proposer */\n      0x01\n      add\n      0x00\n      swap1\n      sload\n      swap1\n      0x0100\n      exp\n      swap1\n      div\n      0xffffffffffffffffffffffffffffffffffffffff\n      and\n        /* \"ECE473 Final Project/Governance.sol\":3016:3127  ProposalExecuted(proposalId, proposal.proposer, successful, proposal.totalVotesFor, proposal.totalVotesAgainst) */\n      0xffffffffffffffffffffffffffffffffffffffff\n      and\n        /* \"ECE473 Final Project/Governance.sol\":3033:3043  proposalId */\n      dup4\n        /* \"ECE473 Final Project/Governance.sol\":3016:3127  ProposalExecuted(proposalId, proposal.proposer, successful, proposal.totalVotesFor, proposal.totalVotesAgainst) */\n      0xea42fc1bc80c08f17cdbd2e4325d69261c49516063bee8f0c22d152e270f786e\n        /* \"ECE473 Final Project/Governance.sol\":3064:3074  successful */\n      dup4\n        /* \"ECE473 Final Project/Governance.sol\":3076:3084  proposal */\n      dup6\n        /* \"ECE473 Final Project/Governance.sol\":3076:3098  proposal.totalVotesFor */\n      0x07\n      add\n      sload\n        /* \"ECE473 Final Project/Governance.sol\":3100:3108  proposal */\n      dup7\n        /* \"ECE473 Final Project/Governance.sol\":3100:3126  proposal.totalVotesAgainst */\n      0x08\n      add\n      sload\n        /* \"ECE473 Final Project/Governance.sol\":3016:3127  ProposalExecuted(proposalId, proposal.proposer, successful, proposal.totalVotesFor, proposal.totalVotesAgainst) */\n      mload(0x40)\n      tag_34\n      swap4\n      swap3\n      swap2\n      swap1\n      tag_35\n      jump\t// in\n    tag_34:\n      mload(0x40)\n      dup1\n      swap2\n      sub\n      swap1\n      log3\n        /* \"ECE473 Final Project/Governance.sol\":3142:3152  successful */\n      dup1\n        /* \"ECE473 Final Project/Governance.sol\":3142:3188  successful && proposal.recipient != address(0) */\n      dup1\n      iszero\n      tag_36\n      jumpi\n      pop\n        /* \"ECE473 Final Project/Governance.sol\":3186:3187  0 */\n      0x00\n        /* \"ECE473 Final Project/Governance.sol\":3156:3188  proposal.recipient != address(0) */\n      0xffffffffffffffffffffffffffffffffffffffff\n      and\n        /* \"ECE473 Final Project/Governance.sol\":3156:3164  proposal */\n      dup3\n        /* \"ECE473 Final Project/Governance.sol\":3156:3174  proposal.recipient */\n      0x04\n      add\n      0x00\n      swap1\n      sload\n      swap1\n      0x0100\n      exp\n      swap1\n      div\n      0xffffffffffffffffffffffffffffffffffffffff\n      and\n        /* \"ECE473 Final Project/Governance.sol\":3156:3188  proposal.recipient != address(0) */\n      0xffffffffffffffffffffffffffffffffffffffff\n      and\n      eq\n      iszero\n        /* \"ECE473 Final Project/Governance.sol\":3142:3188  successful && proposal.recipient != address(0) */\n    tag_36:\n        /* \"ECE473 Final Project/Governance.sol\":3138:3259  if (successful && proposal.recipient != address(0)) {... */\n      iszero\n      tag_37\n      jumpi\n        /* \"ECE473 Final Project/Governance.sol\":3204:3212  proposal */\n      dup2\n        /* \"ECE473 Final Project/Governance.sol\":3204:3222  proposal.recipient */\n      0x04\n      add\n      0x00\n      swap1\n      sload\n      swap1\n      0x0100\n      exp\n      swap1\n      div\n      0xffffffffffffffffffffffffffffffffffffffff\n      and\n        /* \"ECE473 Final Project/Governance.sol\":3204:3231  proposal.recipient.transfer */\n      0xffffffffffffffffffffffffffffffffffffffff\n      and\n        /* \"ECE473 Final Project/Governance.sol\":3204:3248  proposal.recipient.transfer(proposal.amount) */\n      0x08fc\n        /* \"ECE473 Final Project/Governance.sol\":3232:3240  proposal */\n      dup4\n        /* \"ECE473 Final Project/Governance.sol\":3232:3247  proposal.amount */\n      0x03\n      add\n      sload\n        /* \"ECE473 Final Project/Governance.sol\":3204:3248  proposal.recipient.transfer(proposal.amount) */\n      swap1\n      dup2\n      iszero\n      mul\n      swap1\n      mload(0x40)\n      0x00\n      mload(0x40)\n      dup1\n      dup4\n      sub\n      dup2\n      dup6\n      dup9\n      dup9\n      call\n      swap4\n      pop\n      pop\n      pop\n      pop\n      iszero\n      dup1\n      iszero\n      tag_39\n      jumpi\n      returndatasize\n      0x00\n      dup1\n      returndatacopy\n      revert(0x00, returndatasize)\n    tag_39:\n      pop\n        /* \"ECE473 Final Project/Governance.sol\":3138:3259  if (successful && proposal.recipient != address(0)) {... */\n    tag_37:\n        /* \"ECE473 Final Project/Governance.sol\":2678:3265  {... */\n      pop\n      pop\n        /* \"ECE473 Final Project/Governance.sol\":2626:3265  function executeProposal(uint256 proposalId) public {... */\n      pop\n      jump\t// out\n        /* \"ECE473 Final Project/Governance.sol\":320:344  DAOToken public daoToken */\n    tag_12:\n      0x00\n      dup1\n      sload\n      swap1\n      0x0100\n      exp\n      swap1\n      div\n      0xffffffffffffffffffffffffffffffffffffffff\n      and\n      dup2\n      jump\t// out\n        /* \"ECE473 Final Project/Governance.sol\":1881:2620  function vote(uint256 proposalId, uint256 amount, bool support) public {... */\n    tag_18:\n        /* \"ECE473 Final Project/Governance.sol\":1989:1998  proposals */\n      0x01\n        /* \"ECE473 Final Project/Governance.sol\":1999:2009  proposalId */\n      dup4\n        /* \"ECE473 Final Project/Governance.sol\":1989:2010  proposals[proposalId] */\n      dup2\n      sload\n      dup2\n      lt\n      tag_41\n      jumpi\n      tag_42\n      tag_26\n      jump\t// in\n    tag_42:\n    tag_41:\n      swap1\n      0x00\n      mstore\n      keccak256(0x00, 0x20)\n      swap1\n      0x0d\n      mul\n      add\n        /* \"ECE473 Final Project/Governance.sol\":1989:2018  proposals[proposalId].endTime */\n      0x06\n      add\n      sload\n        /* \"ECE473 Final Project/Governance.sol\":1970:1985  block.timestamp */\n      timestamp\n        /* \"ECE473 Final Project/Governance.sol\":1970:2018  block.timestamp <= proposals[proposalId].endTime */\n      gt\n      iszero\n        /* \"ECE473 Final Project/Governance.sol\":1962:2046  require(block.timestamp <= proposals[proposalId].endTime, \"Voting period has ended\") */\n      tag_44\n      jumpi\n      mload(0x40)\n      0x08c379a000000000000000000000000000000000000000000000000000000000\n      dup2\n      mstore\n      0x04\n      add\n      tag_45\n      swap1\n      tag_46\n      jump\t// in\n    tag_45:\n      mload(0x40)\n      dup1\n      swap2\n      sub\n      swap1\n      revert\n    tag_44:\n        /* \"ECE473 Final Project/Governance.sol\":2098:2104  amount */\n      dup2\n        /* \"ECE473 Final Project/Governance.sol\":2064:2072  daoToken */\n      0x00\n      dup1\n      sload\n      swap1\n      0x0100\n      exp\n      swap1\n      div\n      0xffffffffffffffffffffffffffffffffffffffff\n      and\n        /* \"ECE473 Final Project/Governance.sol\":2064:2082  daoToken.balanceOf */\n      0xffffffffffffffffffffffffffffffffffffffff\n      and\n      0x70a08231\n        /* \"ECE473 Final Project/Governance.sol\":2083:2093  msg.sender */\n      caller\n        /* \"ECE473 Final Project/Governance.sol\":2064:2094  daoToken.balanceOf(msg.sender) */\n      mload(0x40)\n      dup3\n      0xffffffff\n      and\n      0xe0\n      shl\n      dup2\n      mstore\n      0x04\n      add\n      tag_47\n      swap2\n      swap1\n      tag_48\n      jump\t// in\n    tag_47:\n      0x20\n      mload(0x40)\n      dup1\n      dup4\n      sub\n      dup2\n      dup7\n      gas\n      staticcall\n      iszero\n      dup1\n      iszero\n      tag_50\n      jumpi\n      returndatasize\n      0x00\n      dup1\n      returndatacopy\n      revert(0x00, returndatasize)\n    tag_50:\n      pop\n      pop\n      pop\n      pop\n      mload(0x40)\n      returndatasize\n      not(0x1f)\n      0x1f\n      dup3\n      add\n      and\n      dup3\n      add\n      dup1\n      0x40\n      mstore\n      pop\n      dup2\n      add\n      swap1\n      tag_51\n      swap2\n      swap1\n      tag_52\n      jump\t// in\n    tag_51:\n        /* \"ECE473 Final Project/Governance.sol\":2064:2104  daoToken.balanceOf(msg.sender) >= amount */\n      lt\n      iszero\n        /* \"ECE473 Final Project/Governance.sol\":2056:2126  require(daoToken.balanceOf(msg.sender) >= amount, \"Not enough tokens\") */\n      tag_53\n      jumpi\n      mload(0x40)\n      0x08c379a000000000000000000000000000000000000000000000000000000000\n      dup2\n      mstore\n      0x04\n      add\n      tag_54\n      swap1\n      tag_55\n      jump\t// in\n    tag_54:\n      mload(0x40)\n      dup1\n      swap2\n      sub\n      swap1\n      revert\n    tag_53:\n        /* \"ECE473 Final Project/Governance.sol\":2187:2188  0 */\n      0x00\n        /* \"ECE473 Final Project/Governance.sol\":2144:2153  proposals */\n      0x01\n        /* \"ECE473 Final Project/Governance.sol\":2154:2164  proposalId */\n      dup5\n        /* \"ECE473 Final Project/Governance.sol\":2144:2165  proposals[proposalId] */\n      dup2\n      sload\n      dup2\n      lt\n      tag_56\n      jumpi\n      tag_57\n      tag_26\n      jump\t// in\n    tag_57:\n    tag_56:\n      swap1\n      0x00\n      mstore\n      keccak256(0x00, 0x20)\n      swap1\n      0x0d\n      mul\n      add\n        /* \"ECE473 Final Project/Governance.sol\":2144:2171  proposals[proposalId].votes */\n      0x09\n      add\n        /* \"ECE473 Final Project/Governance.sol\":2144:2183  proposals[proposalId].votes[msg.sender] */\n      0x00\n        /* \"ECE473 Final Project/Governance.sol\":2172:2182  msg.sender */\n      caller\n        /* \"ECE473 Final Project/Governance.sol\":2144:2183  proposals[proposalId].votes[msg.sender] */\n      0xffffffffffffffffffffffffffffffffffffffff\n      and\n      0xffffffffffffffffffffffffffffffffffffffff\n      and\n      dup2\n      mstore\n      0x20\n      add\n      swap1\n      dup2\n      mstore\n      0x20\n      add\n      0x00\n      keccak256\n      sload\n        /* \"ECE473 Final Project/Governance.sol\":2144:2188  proposals[proposalId].votes[msg.sender] == 0 */\n      eq\n        /* \"ECE473 Final Project/Governance.sol\":2136:2206  require(proposals[proposalId].votes[msg.sender] == 0, \"Already voted\") */\n      tag_59\n      jumpi\n      mload(0x40)\n      0x08c379a000000000000000000000000000000000000000000000000000000000\n      dup2\n      mstore\n      0x04\n      add\n      tag_60\n      swap1\n      tag_61\n      jump\t// in\n    tag_60:\n      mload(0x40)\n      dup1\n      swap2\n      sub\n      swap1\n      revert\n    tag_59:\n        /* \"ECE473 Final Project/Governance.sol\":2217:2225  daoToken */\n      0x00\n      dup1\n      sload\n      swap1\n      0x0100\n      exp\n      swap1\n      div\n      0xffffffffffffffffffffffffffffffffffffffff\n      and\n        /* \"ECE473 Final Project/Governance.sol\":2217:2235  daoToken.lockToken */\n      0xffffffffffffffffffffffffffffffffffffffff\n      and\n      0x17be3fa5\n        /* \"ECE473 Final Project/Governance.sol\":2236:2246  msg.sender */\n      caller\n        /* \"ECE473 Final Project/Governance.sol\":2248:2254  amount */\n      dup5\n        /* \"ECE473 Final Project/Governance.sol\":2217:2255  daoToken.lockToken(msg.sender, amount) */\n      mload(0x40)\n      dup4\n      0xffffffff\n      and\n      0xe0\n      shl\n      dup2\n      mstore\n      0x04\n      add\n      tag_62\n      swap3\n      swap2\n      swap1\n      tag_63\n      jump\t// in\n    tag_62:\n      0x00\n      mload(0x40)\n      dup1\n      dup4\n      sub\n      dup2\n      0x00\n      dup8\n      dup1\n      extcodesize\n      iszero\n      dup1\n      iszero\n      tag_64\n      jumpi\n      0x00\n      dup1\n      revert\n    tag_64:\n      pop\n      gas\n      call\n      iszero\n      dup1\n      iszero\n      tag_66\n      jumpi\n      returndatasize\n      0x00\n      dup1\n      returndatacopy\n      revert(0x00, returndatasize)\n    tag_66:\n      pop\n      pop\n      pop\n      pop\n        /* \"ECE473 Final Project/Governance.sol\":2266:2284  uint256 voteWeight */\n      0x00\n        /* \"ECE473 Final Project/Governance.sol\":2287:2299  sqrt(amount) */\n      tag_67\n        /* \"ECE473 Final Project/Governance.sol\":2292:2298  amount */\n      dup4\n        /* \"ECE473 Final Project/Governance.sol\":2287:2291  sqrt */\n      tag_68\n        /* \"ECE473 Final Project/Governance.sol\":2287:2299  sqrt(amount) */\n      jump\t// in\n    tag_67:\n        /* \"ECE473 Final Project/Governance.sol\":2266:2299  uint256 voteWeight = sqrt(amount) */\n      swap1\n      pop\n        /* \"ECE473 Final Project/Governance.sol\":2351:2361  voteWeight */\n      dup1\n        /* \"ECE473 Final Project/Governance.sol\":2309:2318  proposals */\n      0x01\n        /* \"ECE473 Final Project/Governance.sol\":2319:2329  proposalId */\n      dup6\n        /* \"ECE473 Final Project/Governance.sol\":2309:2330  proposals[proposalId] */\n      dup2\n      sload\n      dup2\n      lt\n      tag_69\n      jumpi\n      tag_70\n      tag_26\n      jump\t// in\n    tag_70:\n    tag_69:\n      swap1\n      0x00\n      mstore\n      keccak256(0x00, 0x20)\n      swap1\n      0x0d\n      mul\n      add\n        /* \"ECE473 Final Project/Governance.sol\":2309:2336  proposals[proposalId].votes */\n      0x09\n      add\n        /* \"ECE473 Final Project/Governance.sol\":2309:2348  proposals[proposalId].votes[msg.sender] */\n      0x00\n        /* \"ECE473 Final Project/Governance.sol\":2337:2347  msg.sender */\n      caller\n        /* \"ECE473 Final Project/Governance.sol\":2309:2348  proposals[proposalId].votes[msg.sender] */\n      0xffffffffffffffffffffffffffffffffffffffff\n      and\n      0xffffffffffffffffffffffffffffffffffffffff\n      and\n      dup2\n      mstore\n      0x20\n      add\n      swap1\n      dup2\n      mstore\n      0x20\n      add\n      0x00\n      keccak256\n        /* \"ECE473 Final Project/Governance.sol\":2309:2361  proposals[proposalId].votes[msg.sender] = voteWeight */\n      dup2\n      swap1\n      sstore\n      pop\n        /* \"ECE473 Final Project/Governance.sol\":2376:2383  support */\n      dup2\n        /* \"ECE473 Final Project/Governance.sol\":2372:2543  if (support) {... */\n      iszero\n      tag_72\n      jumpi\n        /* \"ECE473 Final Project/Governance.sol\":2438:2448  voteWeight */\n      dup1\n        /* \"ECE473 Final Project/Governance.sol\":2399:2408  proposals */\n      0x01\n        /* \"ECE473 Final Project/Governance.sol\":2409:2419  proposalId */\n      dup6\n        /* \"ECE473 Final Project/Governance.sol\":2399:2420  proposals[proposalId] */\n      dup2\n      sload\n      dup2\n      lt\n      tag_73\n      jumpi\n      tag_74\n      tag_26\n      jump\t// in\n    tag_74:\n    tag_73:\n      swap1\n      0x00\n      mstore\n      keccak256(0x00, 0x20)\n      swap1\n      0x0d\n      mul\n      add\n        /* \"ECE473 Final Project/Governance.sol\":2399:2434  proposals[proposalId].totalVotesFor */\n      0x07\n      add\n      0x00\n        /* \"ECE473 Final Project/Governance.sol\":2399:2448  proposals[proposalId].totalVotesFor += voteWeight */\n      dup3\n      dup3\n      sload\n      tag_76\n      swap2\n      swap1\n      tag_77\n      jump\t// in\n    tag_76:\n      swap3\n      pop\n      pop\n      dup2\n      swap1\n      sstore\n      pop\n        /* \"ECE473 Final Project/Governance.sol\":2372:2543  if (support) {... */\n      jump(tag_78)\n    tag_72:\n        /* \"ECE473 Final Project/Governance.sol\":2522:2532  voteWeight */\n      dup1\n        /* \"ECE473 Final Project/Governance.sol\":2479:2488  proposals */\n      0x01\n        /* \"ECE473 Final Project/Governance.sol\":2489:2499  proposalId */\n      dup6\n        /* \"ECE473 Final Project/Governance.sol\":2479:2500  proposals[proposalId] */\n      dup2\n      sload\n      dup2\n      lt\n      tag_79\n      jumpi\n      tag_80\n      tag_26\n      jump\t// in\n    tag_80:\n    tag_79:\n      swap1\n      0x00\n      mstore\n      keccak256(0x00, 0x20)\n      swap1\n      0x0d\n      mul\n      add\n        /* \"ECE473 Final Project/Governance.sol\":2479:2518  proposals[proposalId].totalVotesAgainst */\n      0x08\n      add\n      0x00\n        /* \"ECE473 Final Project/Governance.sol\":2479:2532  proposals[proposalId].totalVotesAgainst += voteWeight */\n      dup3\n      dup3\n      sload\n      tag_82\n      swap2\n      swap1\n      tag_77\n      jump\t// in\n    tag_82:\n      swap3\n      pop\n      pop\n      dup2\n      swap1\n      sstore\n      pop\n        /* \"ECE473 Final Project/Governance.sol\":2372:2543  if (support) {... */\n    tag_78:\n        /* \"ECE473 Final Project/Governance.sol\":2581:2591  msg.sender */\n      caller\n        /* \"ECE473 Final Project/Governance.sol\":2558:2613  VoteCasted(proposalId, msg.sender, support, voteWeight) */\n      0xffffffffffffffffffffffffffffffffffffffff\n      and\n        /* \"ECE473 Final Project/Governance.sol\":2569:2579  proposalId */\n      dup5\n        /* \"ECE473 Final Project/Governance.sol\":2558:2613  VoteCasted(proposalId, msg.sender, support, voteWeight) */\n      0x9d8117cbfeb9ab2967ebd36e923514a9df1e89e1eec09c808230b61d1f25d85a\n        /* \"ECE473 Final Project/Governance.sol\":2593:2600  support */\n      dup5\n        /* \"ECE473 Final Project/Governance.sol\":2602:2612  voteWeight */\n      dup5\n        /* \"ECE473 Final Project/Governance.sol\":2558:2613  VoteCasted(proposalId, msg.sender, support, voteWeight) */\n      mload(0x40)\n      tag_83\n      swap3\n      swap2\n      swap1\n      tag_84\n      jump\t// in\n    tag_83:\n      mload(0x40)\n      dup1\n      swap2\n      sub\n      swap1\n      log3\n        /* \"ECE473 Final Project/Governance.sol\":1952:2620  {... */\n      pop\n        /* \"ECE473 Final Project/Governance.sol\":1881:2620  function vote(uint256 proposalId, uint256 amount, bool support) public {... */\n      pop\n      pop\n      pop\n      jump\t// out\n        /* \"ECE473 Final Project/Governance.sol\":1297:1875  function createProposal(string memory description, uint256 amount, address payable recipient) public {... */\n    tag_22:\n        /* \"ECE473 Final Project/Governance.sol\":1408:1426  uint256 proposalId */\n      0x00\n        /* \"ECE473 Final Project/Governance.sol\":1429:1438  proposals */\n      0x01\n        /* \"ECE473 Final Project/Governance.sol\":1429:1445  proposals.length */\n      dup1\n      sload\n      swap1\n      pop\n        /* \"ECE473 Final Project/Governance.sol\":1408:1445  uint256 proposalId = proposals.length */\n      swap1\n      pop\n        /* \"ECE473 Final Project/Governance.sol\":1455:1480  Proposal storage proposal */\n      0x00\n        /* \"ECE473 Final Project/Governance.sol\":1483:1492  proposals */\n      0x01\n        /* \"ECE473 Final Project/Governance.sol\":1483:1499  proposals.push() */\n      dup1\n      dup2\n      0x01\n      dup2\n      sload\n      add\n      dup1\n      dup3\n      sstore\n      dup1\n      swap2\n      pop\n      pop\n      sub\n      swap1\n      0x00\n      mstore\n      keccak256(0x00, 0x20)\n      swap1\n      0x0d\n      mul\n      add\n        /* \"ECE473 Final Project/Governance.sol\":1455:1499  Proposal storage proposal = proposals.push() */\n      swap1\n      pop\n        /* \"ECE473 Final Project/Governance.sol\":1523:1533  proposalId */\n      dup2\n        /* \"ECE473 Final Project/Governance.sol\":1509:1517  proposal */\n      dup2\n        /* \"ECE473 Final Project/Governance.sol\":1509:1520  proposal.id */\n      0x00\n      add\n        /* \"ECE473 Final Project/Governance.sol\":1509:1533  proposal.id = proposalId */\n      dup2\n      swap1\n      sstore\n      pop\n        /* \"ECE473 Final Project/Governance.sol\":1563:1573  msg.sender */\n      caller\n        /* \"ECE473 Final Project/Governance.sol\":1543:1551  proposal */\n      dup2\n        /* \"ECE473 Final Project/Governance.sol\":1543:1560  proposal.proposer */\n      0x01\n      add\n      0x00\n        /* \"ECE473 Final Project/Governance.sol\":1543:1573  proposal.proposer = msg.sender */\n      0x0100\n      exp\n      dup2\n      sload\n      dup2\n      0xffffffffffffffffffffffffffffffffffffffff\n      mul\n      not\n      and\n      swap1\n      dup4\n      0xffffffffffffffffffffffffffffffffffffffff\n      and\n      mul\n      or\n      swap1\n      sstore\n      pop\n        /* \"ECE473 Final Project/Governance.sol\":1606:1617  description */\n      dup5\n        /* \"ECE473 Final Project/Governance.sol\":1583:1591  proposal */\n      dup2\n        /* \"ECE473 Final Project/Governance.sol\":1583:1603  proposal.description */\n      0x02\n      add\n        /* \"ECE473 Final Project/Governance.sol\":1583:1617  proposal.description = description */\n      swap1\n      dup2\n      tag_87\n      swap2\n      swap1\n      tag_88\n      jump\t// in\n    tag_87:\n      pop\n        /* \"ECE473 Final Project/Governance.sol\":1645:1651  amount */\n      dup4\n        /* \"ECE473 Final Project/Governance.sol\":1627:1635  proposal */\n      dup2\n        /* \"ECE473 Final Project/Governance.sol\":1627:1642  proposal.amount */\n      0x03\n      add\n        /* \"ECE473 Final Project/Governance.sol\":1627:1651  proposal.amount = amount */\n      dup2\n      swap1\n      sstore\n      pop\n        /* \"ECE473 Final Project/Governance.sol\":1682:1691  recipient */\n      dup3\n        /* \"ECE473 Final Project/Governance.sol\":1661:1669  proposal */\n      dup2\n        /* \"ECE473 Final Project/Governance.sol\":1661:1679  proposal.recipient */\n      0x04\n      add\n      0x00\n        /* \"ECE473 Final Project/Governance.sol\":1661:1691  proposal.recipient = recipient */\n      0x0100\n      exp\n      dup2\n      sload\n      dup2\n      0xffffffffffffffffffffffffffffffffffffffff\n      mul\n      not\n      and\n      swap1\n      dup4\n      0xffffffffffffffffffffffffffffffffffffffff\n      and\n      mul\n      or\n      swap1\n      sstore\n      pop\n        /* \"ECE473 Final Project/Governance.sol\":1722:1737  block.timestamp */\n      timestamp\n        /* \"ECE473 Final Project/Governance.sol\":1701:1709  proposal */\n      dup2\n        /* \"ECE473 Final Project/Governance.sol\":1701:1719  proposal.startTime */\n      0x05\n      add\n        /* \"ECE473 Final Project/Governance.sol\":1701:1737  proposal.startTime = block.timestamp */\n      dup2\n      swap1\n      sstore\n      pop\n        /* \"ECE473 Final Project/Governance.sol\":1209:1215  3 days */\n      0x03f480\n        /* \"ECE473 Final Project/Governance.sol\":1766:1781  block.timestamp */\n      timestamp\n        /* \"ECE473 Final Project/Governance.sol\":1766:1797  block.timestamp + VOTING_PERIOD */\n      tag_89\n      swap2\n      swap1\n      tag_77\n      jump\t// in\n    tag_89:\n        /* \"ECE473 Final Project/Governance.sol\":1747:1755  proposal */\n      dup2\n        /* \"ECE473 Final Project/Governance.sol\":1747:1763  proposal.endTime */\n      0x06\n      add\n        /* \"ECE473 Final Project/Governance.sol\":1747:1797  proposal.endTime = block.timestamp + VOTING_PERIOD */\n      dup2\n      swap1\n      sstore\n      pop\n        /* \"ECE473 Final Project/Governance.sol\":1836:1846  msg.sender */\n      caller\n        /* \"ECE473 Final Project/Governance.sol\":1812:1868  NewProposal(proposalId, msg.sender, description, amount) */\n      0xffffffffffffffffffffffffffffffffffffffff\n      and\n        /* \"ECE473 Final Project/Governance.sol\":1824:1834  proposalId */\n      dup3\n        /* \"ECE473 Final Project/Governance.sol\":1812:1868  NewProposal(proposalId, msg.sender, description, amount) */\n      0x6838db3c5996fec3de968e640e7dd8000add88d4b31235fa327d85cdb8ffce5c\n        /* \"ECE473 Final Project/Governance.sol\":1848:1859  description */\n      dup8\n        /* \"ECE473 Final Project/Governance.sol\":1861:1867  amount */\n      dup8\n        /* \"ECE473 Final Project/Governance.sol\":1812:1868  NewProposal(proposalId, msg.sender, description, amount) */\n      mload(0x40)\n      tag_90\n      swap3\n      swap2\n      swap1\n      tag_91\n      jump\t// in\n    tag_90:\n      mload(0x40)\n      dup1\n      swap2\n      sub\n      swap1\n      log3\n        /* \"ECE473 Final Project/Governance.sol\":1398:1875  {... */\n      pop\n      pop\n        /* \"ECE473 Final Project/Governance.sol\":1297:1875  function createProposal(string memory description, uint256 amount, address payable recipient) public {... */\n      pop\n      pop\n      pop\n      jump\t// out\n        /* \"ECE473 Final Project/Governance.sol\":3271:3563  function sqrt(uint y) internal pure returns (uint z) {... */\n    tag_68:\n        /* \"ECE473 Final Project/Governance.sol\":3316:3322  uint z */\n      0x00\n        /* \"ECE473 Final Project/Governance.sol\":3342:3343  3 */\n      0x03\n        /* \"ECE473 Final Project/Governance.sol\":3338:3339  y */\n      dup3\n        /* \"ECE473 Final Project/Governance.sol\":3338:3343  y > 3 */\n      gt\n        /* \"ECE473 Final Project/Governance.sol\":3334:3557  if (y > 3) {... */\n      iszero\n      tag_93\n      jumpi\n        /* \"ECE473 Final Project/Governance.sol\":3363:3364  y */\n      dup2\n        /* \"ECE473 Final Project/Governance.sol\":3359:3364  z = y */\n      swap1\n      pop\n        /* \"ECE473 Final Project/Governance.sol\":3378:3384  uint x */\n      0x00\n        /* \"ECE473 Final Project/Governance.sol\":3395:3396  1 */\n      0x01\n        /* \"ECE473 Final Project/Governance.sol\":3391:3392  2 */\n      0x02\n        /* \"ECE473 Final Project/Governance.sol\":3387:3388  y */\n      dup5\n        /* \"ECE473 Final Project/Governance.sol\":3387:3392  y / 2 */\n      tag_94\n      swap2\n      swap1\n      tag_95\n      jump\t// in\n    tag_94:\n        /* \"ECE473 Final Project/Governance.sol\":3387:3396  y / 2 + 1 */\n      tag_96\n      swap2\n      swap1\n      tag_77\n      jump\t// in\n    tag_96:\n        /* \"ECE473 Final Project/Governance.sol\":3378:3396  uint x = y / 2 + 1 */\n      swap1\n      pop\n        /* \"ECE473 Final Project/Governance.sol\":3410:3499  while (x < z) {... */\n    tag_97:\n        /* \"ECE473 Final Project/Governance.sol\":3421:3422  z */\n      dup2\n        /* \"ECE473 Final Project/Governance.sol\":3417:3418  x */\n      dup2\n        /* \"ECE473 Final Project/Governance.sol\":3417:3422  x < z */\n      lt\n        /* \"ECE473 Final Project/Governance.sol\":3410:3499  while (x < z) {... */\n      iszero\n      tag_98\n      jumpi\n        /* \"ECE473 Final Project/Governance.sol\":3446:3447  x */\n      dup1\n        /* \"ECE473 Final Project/Governance.sol\":3442:3447  z = x */\n      swap2\n      pop\n        /* \"ECE473 Final Project/Governance.sol\":3483:3484  2 */\n      0x02\n        /* \"ECE473 Final Project/Governance.sol\":3478:3479  x */\n      dup2\n        /* \"ECE473 Final Project/Governance.sol\":3474:3475  x */\n      dup3\n        /* \"ECE473 Final Project/Governance.sol\":3470:3471  y */\n      dup6\n        /* \"ECE473 Final Project/Governance.sol\":3470:3475  y / x */\n      tag_99\n      swap2\n      swap1\n      tag_95\n      jump\t// in\n    tag_99:\n        /* \"ECE473 Final Project/Governance.sol\":3470:3479  y / x + x */\n      tag_100\n      swap2\n      swap1\n      tag_77\n      jump\t// in\n    tag_100:\n        /* \"ECE473 Final Project/Governance.sol\":3469:3484  (y / x + x) / 2 */\n      tag_101\n      swap2\n      swap1\n      tag_95\n      jump\t// in\n    tag_101:\n        /* \"ECE473 Final Project/Governance.sol\":3465:3484  x = (y / x + x) / 2 */\n      swap1\n      pop\n        /* \"ECE473 Final Project/Governance.sol\":3410:3499  while (x < z) {... */\n      jump(tag_97)\n    tag_98:\n        /* \"ECE473 Final Project/Governance.sol\":3345:3509  {... */\n      pop\n        /* \"ECE473 Final Project/Governance.sol\":3334:3557  if (y > 3) {... */\n      jump(tag_102)\n    tag_93:\n        /* \"ECE473 Final Project/Governance.sol\":3524:3525  0 */\n      0x00\n        /* \"ECE473 Final Project/Governance.sol\":3519:3520  y */\n      dup3\n        /* \"ECE473 Final Project/Governance.sol\":3519:3525  y != 0 */\n      eq\n        /* \"ECE473 Final Project/Governance.sol\":3515:3557  if (y != 0) {... */\n      tag_103\n      jumpi\n        /* \"ECE473 Final Project/Governance.sol\":3545:3546  1 */\n      0x01\n        /* \"ECE473 Final Project/Governance.sol\":3541:3546  z = 1 */\n      swap1\n      pop\n        /* \"ECE473 Final Project/Governance.sol\":3515:3557  if (y != 0) {... */\n    tag_103:\n        /* \"ECE473 Final Project/Governance.sol\":3334:3557  if (y > 3) {... */\n    tag_102:\n        /* \"ECE473 Final Project/Governance.sol\":3271:3563  function sqrt(uint y) internal pure returns (uint z) {... */\n      swap2\n      swap1\n      pop\n      jump\t// out\n        /* \"#utility.yul\":7:82   */\n    tag_104:\n        /* \"#utility.yul\":40:46   */\n      0x00\n        /* \"#utility.yul\":73:75   */\n      0x40\n        /* \"#utility.yul\":67:76   */\n      mload\n        /* \"#utility.yul\":57:76   */\n      swap1\n      pop\n        /* \"#utility.yul\":7:82   */\n      swap1\n      jump\t// out\n        /* \"#utility.yul\":88:205   */\n    tag_105:\n        /* \"#utility.yul\":197:198   */\n      0x00\n        /* \"#utility.yul\":194:195   */\n      dup1\n        /* \"#utility.yul\":187:199   */\n      revert\n        /* \"#utility.yul\":211:328   */\n    tag_106:\n        /* \"#utility.yul\":320:321   */\n      0x00\n        /* \"#utility.yul\":317:318   */\n      dup1\n        /* \"#utility.yul\":310:322   */\n      revert\n        /* \"#utility.yul\":334:411   */\n    tag_107:\n        /* \"#utility.yul\":371:378   */\n      0x00\n        /* \"#utility.yul\":400:405   */\n      dup2\n        /* \"#utility.yul\":389:405   */\n      swap1\n      pop\n        /* \"#utility.yul\":334:411   */\n      swap2\n      swap1\n      pop\n      jump\t// out\n        /* \"#utility.yul\":417:539   */\n    tag_108:\n        /* \"#utility.yul\":490:514   */\n      tag_175\n        /* \"#utility.yul\":508:513   */\n      dup2\n        /* \"#utility.yul\":490:514   */\n      tag_107\n      jump\t// in\n    tag_175:\n        /* \"#utility.yul\":483:488   */\n      dup2\n        /* \"#utility.yul\":480:515   */\n      eq\n        /* \"#utility.yul\":470:533   */\n      tag_176\n      jumpi\n        /* \"#utility.yul\":529:530   */\n      0x00\n        /* \"#utility.yul\":526:527   */\n      dup1\n        /* \"#utility.yul\":519:531   */\n      revert\n        /* \"#utility.yul\":470:533   */\n    tag_176:\n        /* \"#utility.yul\":417:539   */\n      pop\n      jump\t// out\n        /* \"#utility.yul\":545:684   */\n    tag_109:\n        /* \"#utility.yul\":591:596   */\n      0x00\n        /* \"#utility.yul\":629:635   */\n      dup2\n        /* \"#utility.yul\":616:636   */\n      calldataload\n        /* \"#utility.yul\":607:636   */\n      swap1\n      pop\n        /* \"#utility.yul\":645:678   */\n      tag_178\n        /* \"#utility.yul\":672:677   */\n      dup2\n        /* \"#utility.yul\":645:678   */\n      tag_108\n      jump\t// in\n    tag_178:\n        /* \"#utility.yul\":545:684   */\n      swap3\n      swap2\n      pop\n      pop\n      jump\t// out\n        /* \"#utility.yul\":690:1019   */\n    tag_9:\n        /* \"#utility.yul\":749:755   */\n      0x00\n        /* \"#utility.yul\":798:800   */\n      0x20\n        /* \"#utility.yul\":786:795   */\n      dup3\n        /* \"#utility.yul\":777:784   */\n      dup5\n        /* \"#utility.yul\":773:796   */\n      sub\n        /* \"#utility.yul\":769:801   */\n      slt\n        /* \"#utility.yul\":766:885   */\n      iszero\n      tag_180\n      jumpi\n        /* \"#utility.yul\":804:883   */\n      tag_181\n      tag_105\n      jump\t// in\n    tag_181:\n        /* \"#utility.yul\":766:885   */\n    tag_180:\n        /* \"#utility.yul\":924:925   */\n      0x00\n        /* \"#utility.yul\":949:1002   */\n      tag_182\n        /* \"#utility.yul\":994:1001   */\n      dup5\n        /* \"#utility.yul\":985:991   */\n      dup3\n        /* \"#utility.yul\":974:983   */\n      dup6\n        /* \"#utility.yul\":970:992   */\n      add\n        /* \"#utility.yul\":949:1002   */\n      tag_109\n      jump\t// in\n    tag_182:\n        /* \"#utility.yul\":939:1002   */\n      swap2\n      pop\n        /* \"#utility.yul\":895:1012   */\n      pop\n        /* \"#utility.yul\":690:1019   */\n      swap3\n      swap2\n      pop\n      pop\n      jump\t// out\n        /* \"#utility.yul\":1025:1151   */\n    tag_110:\n        /* \"#utility.yul\":1062:1069   */\n      0x00\n        /* \"#utility.yul\":1102:1144   */\n      0xffffffffffffffffffffffffffffffffffffffff\n        /* \"#utility.yul\":1095:1100   */\n      dup3\n        /* \"#utility.yul\":1091:1145   */\n      and\n        /* \"#utility.yul\":1080:1145   */\n      swap1\n      pop\n        /* \"#utility.yul\":1025:1151   */\n      swap2\n      swap1\n      pop\n      jump\t// out\n        /* \"#utility.yul\":1157:1217   */\n    tag_111:\n        /* \"#utility.yul\":1185:1188   */\n      0x00\n        /* \"#utility.yul\":1206:1211   */\n      dup2\n        /* \"#utility.yul\":1199:1211   */\n      swap1\n      pop\n        /* \"#utility.yul\":1157:1217   */\n      swap2\n      swap1\n      pop\n      jump\t// out\n        /* \"#utility.yul\":1223:1365   */\n    tag_112:\n        /* \"#utility.yul\":1273:1282   */\n      0x00\n        /* \"#utility.yul\":1306:1359   */\n      tag_186\n        /* \"#utility.yul\":1324:1358   */\n      tag_187\n        /* \"#utility.yul\":1333:1357   */\n      tag_188\n        /* \"#utility.yul\":1351:1356   */\n      dup5\n        /* \"#utility.yul\":1333:1357   */\n      tag_110\n      jump\t// in\n    tag_188:\n        /* \"#utility.yul\":1324:1358   */\n      tag_111\n      jump\t// in\n    tag_187:\n        /* \"#utility.yul\":1306:1359   */\n      tag_110\n      jump\t// in\n    tag_186:\n        /* \"#utility.yul\":1293:1359   */\n      swap1\n      pop\n        /* \"#utility.yul\":1223:1365   */\n      swap2\n      swap1\n      pop\n      jump\t// out\n        /* \"#utility.yul\":1371:1497   */\n    tag_113:\n        /* \"#utility.yul\":1421:1430   */\n      0x00\n        /* \"#utility.yul\":1454:1491   */\n      tag_190\n        /* \"#utility.yul\":1485:1490   */\n      dup3\n        /* \"#utility.yul\":1454:1491   */\n      tag_112\n      jump\t// in\n    tag_190:\n        /* \"#utility.yul\":1441:1491   */\n      swap1\n      pop\n        /* \"#utility.yul\":1371:1497   */\n      swap2\n      swap1\n      pop\n      jump\t// out\n        /* \"#utility.yul\":1503:1646   */\n    tag_114:\n        /* \"#utility.yul\":1570:1579   */\n      0x00\n        /* \"#utility.yul\":1603:1640   */\n      tag_192\n        /* \"#utility.yul\":1634:1639   */\n      dup3\n        /* \"#utility.yul\":1603:1640   */\n      tag_113\n      jump\t// in\n    tag_192:\n        /* \"#utility.yul\":1590:1640   */\n      swap1\n      pop\n        /* \"#utility.yul\":1503:1646   */\n      swap2\n      swap1\n      pop\n      jump\t// out\n        /* \"#utility.yul\":1652:1817   */\n    tag_115:\n        /* \"#utility.yul\":1756:1810   */\n      tag_194\n        /* \"#utility.yul\":1804:1809   */\n      dup2\n        /* \"#utility.yul\":1756:1810   */\n      tag_114\n      jump\t// in\n    tag_194:\n        /* \"#utility.yul\":1751:1754   */\n      dup3\n        /* \"#utility.yul\":1744:1811   */\n      mstore\n        /* \"#utility.yul\":1652:1817   */\n      pop\n      pop\n      jump\t// out\n        /* \"#utility.yul\":1823:2079   */\n    tag_14:\n        /* \"#utility.yul\":1933:1937   */\n      0x00\n        /* \"#utility.yul\":1971:1973   */\n      0x20\n        /* \"#utility.yul\":1960:1969   */\n      dup3\n        /* \"#utility.yul\":1956:1974   */\n      add\n        /* \"#utility.yul\":1948:1974   */\n      swap1\n      pop\n        /* \"#utility.yul\":1984:2072   */\n      tag_196\n        /* \"#utility.yul\":2069:2070   */\n      0x00\n        /* \"#utility.yul\":2058:2067   */\n      dup4\n        /* \"#utility.yul\":2054:2071   */\n      add\n        /* \"#utility.yul\":2045:2051   */\n      dup5\n        /* \"#utility.yul\":1984:2072   */\n      tag_115\n      jump\t// in\n    tag_196:\n        /* \"#utility.yul\":1823:2079   */\n      swap3\n      swap2\n      pop\n      pop\n      jump\t// out\n        /* \"#utility.yul\":2085:2175   */\n    tag_116:\n        /* \"#utility.yul\":2119:2126   */\n      0x00\n        /* \"#utility.yul\":2162:2167   */\n      dup2\n        /* \"#utility.yul\":2155:2168   */\n      iszero\n        /* \"#utility.yul\":2148:2169   */\n      iszero\n        /* \"#utility.yul\":2137:2169   */\n      swap1\n      pop\n        /* \"#utility.yul\":2085:2175   */\n      swap2\n      swap1\n      pop\n      jump\t// out\n        /* \"#utility.yul\":2181:2297   */\n    tag_117:\n        /* \"#utility.yul\":2251:2272   */\n      tag_199\n        /* \"#utility.yul\":2266:2271   */\n      dup2\n        /* \"#utility.yul\":2251:2272   */\n      tag_116\n      jump\t// in\n    tag_199:\n        /* \"#utility.yul\":2244:2249   */\n      dup2\n        /* \"#utility.yul\":2241:2273   */\n      eq\n        /* \"#utility.yul\":2231:2291   */\n      tag_200\n      jumpi\n        /* \"#utility.yul\":2287:2288   */\n      0x00\n        /* \"#utility.yul\":2284:2285   */\n      dup1\n        /* \"#utility.yul\":2277:2289   */\n      revert\n        /* \"#utility.yul\":2231:2291   */\n    tag_200:\n        /* \"#utility.yul\":2181:2297   */\n      pop\n      jump\t// out\n        /* \"#utility.yul\":2303:2436   */\n    tag_118:\n        /* \"#utility.yul\":2346:2351   */\n      0x00\n        /* \"#utility.yul\":2384:2390   */\n      dup2\n        /* \"#utility.yul\":2371:2391   */\n      calldataload\n        /* \"#utility.yul\":2362:2391   */\n      swap1\n      pop\n        /* \"#utility.yul\":2400:2430   */\n      tag_202\n        /* \"#utility.yul\":2424:2429   */\n      dup2\n        /* \"#utility.yul\":2400:2430   */\n      tag_117\n      jump\t// in\n    tag_202:\n        /* \"#utility.yul\":2303:2436   */\n      swap3\n      swap2\n      pop\n      pop\n      jump\t// out\n        /* \"#utility.yul\":2442:3055   */\n    tag_17:\n        /* \"#utility.yul\":2516:2522   */\n      0x00\n        /* \"#utility.yul\":2524:2530   */\n      dup1\n        /* \"#utility.yul\":2532:2538   */\n      0x00\n        /* \"#utility.yul\":2581:2583   */\n      0x60\n        /* \"#utility.yul\":2569:2578   */\n      dup5\n        /* \"#utility.yul\":2560:2567   */\n      dup7\n        /* \"#utility.yul\":2556:2579   */\n      sub\n        /* \"#utility.yul\":2552:2584   */\n      slt\n        /* \"#utility.yul\":2549:2668   */\n      iszero\n      tag_204\n      jumpi\n        /* \"#utility.yul\":2587:2666   */\n      tag_205\n      tag_105\n      jump\t// in\n    tag_205:\n        /* \"#utility.yul\":2549:2668   */\n    tag_204:\n        /* \"#utility.yul\":2707:2708   */\n      0x00\n        /* \"#utility.yul\":2732:2785   */\n      tag_206\n        /* \"#utility.yul\":2777:2784   */\n      dup7\n        /* \"#utility.yul\":2768:2774   */\n      dup3\n        /* \"#utility.yul\":2757:2766   */\n      dup8\n        /* \"#utility.yul\":2753:2775   */\n      add\n        /* \"#utility.yul\":2732:2785   */\n      tag_109\n      jump\t// in\n    tag_206:\n        /* \"#utility.yul\":2722:2785   */\n      swap4\n      pop\n        /* \"#utility.yul\":2678:2795   */\n      pop\n        /* \"#utility.yul\":2834:2836   */\n      0x20\n        /* \"#utility.yul\":2860:2913   */\n      tag_207\n        /* \"#utility.yul\":2905:2912   */\n      dup7\n        /* \"#utility.yul\":2896:2902   */\n      dup3\n        /* \"#utility.yul\":2885:2894   */\n      dup8\n        /* \"#utility.yul\":2881:2903   */\n      add\n        /* \"#utility.yul\":2860:2913   */\n      tag_109\n      jump\t// in\n    tag_207:\n        /* \"#utility.yul\":2850:2913   */\n      swap3\n      pop\n        /* \"#utility.yul\":2805:2923   */\n      pop\n        /* \"#utility.yul\":2962:2964   */\n      0x40\n        /* \"#utility.yul\":2988:3038   */\n      tag_208\n        /* \"#utility.yul\":3030:3037   */\n      dup7\n        /* \"#utility.yul\":3021:3027   */\n      dup3\n        /* \"#utility.yul\":3010:3019   */\n      dup8\n        /* \"#utility.yul\":3006:3028   */\n      add\n        /* \"#utility.yul\":2988:3038   */\n      tag_118\n      jump\t// in\n    tag_208:\n        /* \"#utility.yul\":2978:3038   */\n      swap2\n      pop\n        /* \"#utility.yul\":2933:3048   */\n      pop\n        /* \"#utility.yul\":2442:3055   */\n      swap3\n      pop\n      swap3\n      pop\n      swap3\n      jump\t// out\n        /* \"#utility.yul\":3061:3178   */\n    tag_119:\n        /* \"#utility.yul\":3170:3171   */\n      0x00\n        /* \"#utility.yul\":3167:3168   */\n      dup1\n        /* \"#utility.yul\":3160:3172   */\n      revert\n        /* \"#utility.yul\":3184:3301   */\n    tag_120:\n        /* \"#utility.yul\":3293:3294   */\n      0x00\n        /* \"#utility.yul\":3290:3291   */\n      dup1\n        /* \"#utility.yul\":3283:3295   */\n      revert\n        /* \"#utility.yul\":3307:3409   */\n    tag_121:\n        /* \"#utility.yul\":3348:3354   */\n      0x00\n        /* \"#utility.yul\":3399:3401   */\n      0x1f\n        /* \"#utility.yul\":3395:3402   */\n      not\n        /* \"#utility.yul\":3390:3392   */\n      0x1f\n        /* \"#utility.yul\":3383:3388   */\n      dup4\n        /* \"#utility.yul\":3379:3393   */\n      add\n        /* \"#utility.yul\":3375:3403   */\n      and\n        /* \"#utility.yul\":3365:3403   */\n      swap1\n      pop\n        /* \"#utility.yul\":3307:3409   */\n      swap2\n      swap1\n      pop\n      jump\t// out\n        /* \"#utility.yul\":3415:3595   */\n    tag_122:\n        /* \"#utility.yul\":3463:3540   */\n      0x4e487b7100000000000000000000000000000000000000000000000000000000\n        /* \"#utility.yul\":3460:3461   */\n      0x00\n        /* \"#utility.yul\":3453:3541   */\n      mstore\n        /* \"#utility.yul\":3560:3564   */\n      0x41\n        /* \"#utility.yul\":3557:3558   */\n      0x04\n        /* \"#utility.yul\":3550:3565   */\n      mstore\n        /* \"#utility.yul\":3584:3588   */\n      0x24\n        /* \"#utility.yul\":3581:3582   */\n      0x00\n        /* \"#utility.yul\":3574:3589   */\n      revert\n        /* \"#utility.yul\":3601:3882   */\n    tag_123:\n        /* \"#utility.yul\":3684:3711   */\n      tag_214\n        /* \"#utility.yul\":3706:3710   */\n      dup3\n        /* \"#utility.yul\":3684:3711   */\n      tag_121\n      jump\t// in\n    tag_214:\n        /* \"#utility.yul\":3676:3682   */\n      dup2\n        /* \"#utility.yul\":3672:3712   */\n      add\n        /* \"#utility.yul\":3814:3820   */\n      dup2\n        /* \"#utility.yul\":3802:3812   */\n      dup2\n        /* \"#utility.yul\":3799:3821   */\n      lt\n        /* \"#utility.yul\":3778:3796   */\n      0xffffffffffffffff\n        /* \"#utility.yul\":3766:3776   */\n      dup3\n        /* \"#utility.yul\":3763:3797   */\n      gt\n        /* \"#utility.yul\":3760:3822   */\n      or\n        /* \"#utility.yul\":3757:3845   */\n      iszero\n      tag_215\n      jumpi\n        /* \"#utility.yul\":3825:3843   */\n      tag_216\n      tag_122\n      jump\t// in\n    tag_216:\n        /* \"#utility.yul\":3757:3845   */\n    tag_215:\n        /* \"#utility.yul\":3865:3875   */\n      dup1\n        /* \"#utility.yul\":3861:3863   */\n      0x40\n        /* \"#utility.yul\":3854:3876   */\n      mstore\n        /* \"#utility.yul\":3644:3882   */\n      pop\n        /* \"#utility.yul\":3601:3882   */\n      pop\n      pop\n      jump\t// out\n        /* \"#utility.yul\":3888:4017   */\n    tag_124:\n        /* \"#utility.yul\":3922:3928   */\n      0x00\n        /* \"#utility.yul\":3949:3969   */\n      tag_218\n      tag_104\n      jump\t// in\n    tag_218:\n        /* \"#utility.yul\":3939:3969   */\n      swap1\n      pop\n        /* \"#utility.yul\":3978:4011   */\n      tag_219\n        /* \"#utility.yul\":4006:4010   */\n      dup3\n        /* \"#utility.yul\":3998:4004   */\n      dup3\n        /* \"#utility.yul\":3978:4011   */\n      tag_123\n      jump\t// in\n    tag_219:\n        /* \"#utility.yul\":3888:4017   */\n      swap2\n      swap1\n      pop\n      jump\t// out\n        /* \"#utility.yul\":4023:4331   */\n    tag_125:\n        /* \"#utility.yul\":4085:4089   */\n      0x00\n        /* \"#utility.yul\":4175:4193   */\n      0xffffffffffffffff\n        /* \"#utility.yul\":4167:4173   */\n      dup3\n        /* \"#utility.yul\":4164:4194   */\n      gt\n        /* \"#utility.yul\":4161:4217   */\n      iszero\n      tag_221\n      jumpi\n        /* \"#utility.yul\":4197:4215   */\n      tag_222\n      tag_122\n      jump\t// in\n    tag_222:\n        /* \"#utility.yul\":4161:4217   */\n    tag_221:\n        /* \"#utility.yul\":4235:4264   */\n      tag_223\n        /* \"#utility.yul\":4257:4263   */\n      dup3\n        /* \"#utility.yul\":4235:4264   */\n      tag_121\n      jump\t// in\n    tag_223:\n        /* \"#utility.yul\":4227:4264   */\n      swap1\n      pop\n        /* \"#utility.yul\":4319:4323   */\n      0x20\n        /* \"#utility.yul\":4313:4317   */\n      dup2\n        /* \"#utility.yul\":4309:4324   */\n      add\n        /* \"#utility.yul\":4301:4324   */\n      swap1\n      pop\n        /* \"#utility.yul\":4023:4331   */\n      swap2\n      swap1\n      pop\n      jump\t// out\n        /* \"#utility.yul\":4337:4485   */\n    tag_126:\n        /* \"#utility.yul\":4435:4441   */\n      dup3\n        /* \"#utility.yul\":4430:4433   */\n      dup2\n        /* \"#utility.yul\":4425:4428   */\n      dup4\n        /* \"#utility.yul\":4412:4442   */\n      calldatacopy\n        /* \"#utility.yul\":4476:4477   */\n      0x00\n        /* \"#utility.yul\":4467:4473   */\n      dup4\n        /* \"#utility.yul\":4462:4465   */\n      dup4\n        /* \"#utility.yul\":4458:4474   */\n      add\n        /* \"#utility.yul\":4451:4478   */\n      mstore\n        /* \"#utility.yul\":4337:4485   */\n      pop\n      pop\n      pop\n      jump\t// out\n        /* \"#utility.yul\":4491:4916   */\n    tag_127:\n        /* \"#utility.yul\":4569:4574   */\n      0x00\n        /* \"#utility.yul\":4594:4660   */\n      tag_226\n        /* \"#utility.yul\":4610:4659   */\n      tag_227\n        /* \"#utility.yul\":4652:4658   */\n      dup5\n        /* \"#utility.yul\":4610:4659   */\n      tag_125\n      jump\t// in\n    tag_227:\n        /* \"#utility.yul\":4594:4660   */\n      tag_124\n      jump\t// in\n    tag_226:\n        /* \"#utility.yul\":4585:4660   */\n      swap1\n      pop\n        /* \"#utility.yul\":4683:4689   */\n      dup3\n        /* \"#utility.yul\":4676:4681   */\n      dup2\n        /* \"#utility.yul\":4669:4690   */\n      mstore\n        /* \"#utility.yul\":4721:4725   */\n      0x20\n        /* \"#utility.yul\":4714:4719   */\n      dup2\n        /* \"#utility.yul\":4710:4726   */\n      add\n        /* \"#utility.yul\":4759:4762   */\n      dup5\n        /* \"#utility.yul\":4750:4756   */\n      dup5\n        /* \"#utility.yul\":4745:4748   */\n      dup5\n        /* \"#utility.yul\":4741:4757   */\n      add\n        /* \"#utility.yul\":4738:4763   */\n      gt\n        /* \"#utility.yul\":4735:4847   */\n      iszero\n      tag_228\n      jumpi\n        /* \"#utility.yul\":4766:4845   */\n      tag_229\n      tag_120\n      jump\t// in\n    tag_229:\n        /* \"#utility.yul\":4735:4847   */\n    tag_228:\n        /* \"#utility.yul\":4856:4910   */\n      tag_230\n        /* \"#utility.yul\":4903:4909   */\n      dup5\n        /* \"#utility.yul\":4898:4901   */\n      dup3\n        /* \"#utility.yul\":4893:4896   */\n      dup6\n        /* \"#utility.yul\":4856:4910   */\n      tag_126\n      jump\t// in\n    tag_230:\n        /* \"#utility.yul\":4575:4916   */\n      pop\n        /* \"#utility.yul\":4491:4916   */\n      swap4\n      swap3\n      pop\n      pop\n      pop\n      jump\t// out\n        /* \"#utility.yul\":4936:5276   */\n    tag_128:\n        /* \"#utility.yul\":4992:4997   */\n      0x00\n        /* \"#utility.yul\":5041:5044   */\n      dup3\n        /* \"#utility.yul\":5034:5038   */\n      0x1f\n        /* \"#utility.yul\":5026:5032   */\n      dup4\n        /* \"#utility.yul\":5022:5039   */\n      add\n        /* \"#utility.yul\":5018:5045   */\n      slt\n        /* \"#utility.yul\":5008:5130   */\n      tag_232\n      jumpi\n        /* \"#utility.yul\":5049:5128   */\n      tag_233\n      tag_119\n      jump\t// in\n    tag_233:\n        /* \"#utility.yul\":5008:5130   */\n    tag_232:\n        /* \"#utility.yul\":5166:5172   */\n      dup2\n        /* \"#utility.yul\":5153:5173   */\n      calldataload\n        /* \"#utility.yul\":5191:5270   */\n      tag_234\n        /* \"#utility.yul\":5266:5269   */\n      dup5\n        /* \"#utility.yul\":5258:5264   */\n      dup3\n        /* \"#utility.yul\":5251:5255   */\n      0x20\n        /* \"#utility.yul\":5243:5249   */\n      dup7\n        /* \"#utility.yul\":5239:5256   */\n      add\n        /* \"#utility.yul\":5191:5270   */\n      tag_127\n      jump\t// in\n    tag_234:\n        /* \"#utility.yul\":5182:5270   */\n      swap2\n      pop\n        /* \"#utility.yul\":4998:5276   */\n      pop\n        /* \"#utility.yul\":4936:5276   */\n      swap3\n      swap2\n      pop\n      pop\n      jump\t// out\n        /* \"#utility.yul\":5282:5386   */\n    tag_129:\n        /* \"#utility.yul\":5327:5334   */\n      0x00\n        /* \"#utility.yul\":5356:5380   */\n      tag_236\n        /* \"#utility.yul\":5374:5379   */\n      dup3\n        /* \"#utility.yul\":5356:5380   */\n      tag_110\n      jump\t// in\n    tag_236:\n        /* \"#utility.yul\":5345:5380   */\n      swap1\n      pop\n        /* \"#utility.yul\":5282:5386   */\n      swap2\n      swap1\n      pop\n      jump\t// out\n        /* \"#utility.yul\":5392:5530   */\n    tag_130:\n        /* \"#utility.yul\":5473:5505   */\n      tag_238\n        /* \"#utility.yul\":5499:5504   */\n      dup2\n        /* \"#utility.yul\":5473:5505   */\n      tag_129\n      jump\t// in\n    tag_238:\n        /* \"#utility.yul\":5466:5471   */\n      dup2\n        /* \"#utility.yul\":5463:5506   */\n      eq\n        /* \"#utility.yul\":5453:5524   */\n      tag_239\n      jumpi\n        /* \"#utility.yul\":5520:5521   */\n      0x00\n        /* \"#utility.yul\":5517:5518   */\n      dup1\n        /* \"#utility.yul\":5510:5522   */\n      revert\n        /* \"#utility.yul\":5453:5524   */\n    tag_239:\n        /* \"#utility.yul\":5392:5530   */\n      pop\n      jump\t// out\n        /* \"#utility.yul\":5536:5691   */\n    tag_131:\n        /* \"#utility.yul\":5590:5595   */\n      0x00\n        /* \"#utility.yul\":5628:5634   */\n      dup2\n        /* \"#utility.yul\":5615:5635   */\n      calldataload\n        /* \"#utility.yul\":5606:5635   */\n      swap1\n      pop\n        /* \"#utility.yul\":5644:5685   */\n      tag_241\n        /* \"#utility.yul\":5679:5684   */\n      dup2\n        /* \"#utility.yul\":5644:5685   */\n      tag_130\n      jump\t// in\n    tag_241:\n        /* \"#utility.yul\":5536:5691   */\n      swap3\n      swap2\n      pop\n      pop\n      jump\t// out\n        /* \"#utility.yul\":5697:6512   */\n    tag_21:\n        /* \"#utility.yul\":5792:5798   */\n      0x00\n        /* \"#utility.yul\":5800:5806   */\n      dup1\n        /* \"#utility.yul\":5808:5814   */\n      0x00\n        /* \"#utility.yul\":5857:5859   */\n      0x60\n        /* \"#utility.yul\":5845:5854   */\n      dup5\n        /* \"#utility.yul\":5836:5843   */\n      dup7\n        /* \"#utility.yul\":5832:5855   */\n      sub\n        /* \"#utility.yul\":5828:5860   */\n      slt\n        /* \"#utility.yul\":5825:5944   */\n      iszero\n      tag_243\n      jumpi\n        /* \"#utility.yul\":5863:5942   */\n      tag_244\n      tag_105\n      jump\t// in\n    tag_244:\n        /* \"#utility.yul\":5825:5944   */\n    tag_243:\n        /* \"#utility.yul\":6011:6012   */\n      0x00\n        /* \"#utility.yul\":6000:6009   */\n      dup5\n        /* \"#utility.yul\":5996:6013   */\n      add\n        /* \"#utility.yul\":5983:6014   */\n      calldataload\n        /* \"#utility.yul\":6041:6059   */\n      0xffffffffffffffff\n        /* \"#utility.yul\":6033:6039   */\n      dup2\n        /* \"#utility.yul\":6030:6060   */\n      gt\n        /* \"#utility.yul\":6027:6144   */\n      iszero\n      tag_245\n      jumpi\n        /* \"#utility.yul\":6063:6142   */\n      tag_246\n      tag_106\n      jump\t// in\n    tag_246:\n        /* \"#utility.yul\":6027:6144   */\n    tag_245:\n        /* \"#utility.yul\":6168:6231   */\n      tag_247\n        /* \"#utility.yul\":6223:6230   */\n      dup7\n        /* \"#utility.yul\":6214:6220   */\n      dup3\n        /* \"#utility.yul\":6203:6212   */\n      dup8\n        /* \"#utility.yul\":6199:6221   */\n      add\n        /* \"#utility.yul\":6168:6231   */\n      tag_128\n      jump\t// in\n    tag_247:\n        /* \"#utility.yul\":6158:6231   */\n      swap4\n      pop\n        /* \"#utility.yul\":5954:6241   */\n      pop\n        /* \"#utility.yul\":6280:6282   */\n      0x20\n        /* \"#utility.yul\":6306:6359   */\n      tag_248\n        /* \"#utility.yul\":6351:6358   */\n      dup7\n        /* \"#utility.yul\":6342:6348   */\n      dup3\n        /* \"#utility.yul\":6331:6340   */\n      dup8\n        /* \"#utility.yul\":6327:6349   */\n      add\n        /* \"#utility.yul\":6306:6359   */\n      tag_109\n      jump\t// in\n    tag_248:\n        /* \"#utility.yul\":6296:6359   */\n      swap3\n      pop\n        /* \"#utility.yul\":6251:6369   */\n      pop\n        /* \"#utility.yul\":6408:6410   */\n      0x40\n        /* \"#utility.yul\":6434:6495   */\n      tag_249\n        /* \"#utility.yul\":6487:6494   */\n      dup7\n        /* \"#utility.yul\":6478:6484   */\n      dup3\n        /* \"#utility.yul\":6467:6476   */\n      dup8\n        /* \"#utility.yul\":6463:6485   */\n      add\n        /* \"#utility.yul\":6434:6495   */\n      tag_131\n      jump\t// in\n    tag_249:\n        /* \"#utility.yul\":6424:6495   */\n      swap2\n      pop\n        /* \"#utility.yul\":6379:6505   */\n      pop\n        /* \"#utility.yul\":5697:6512   */\n      swap3\n      pop\n      swap3\n      pop\n      swap3\n      jump\t// out\n        /* \"#utility.yul\":6518:6698   */\n    tag_26:\n        /* \"#utility.yul\":6566:6643   */\n      0x4e487b7100000000000000000000000000000000000000000000000000000000\n        /* \"#utility.yul\":6563:6564   */\n      0x00\n        /* \"#utility.yul\":6556:6644   */\n      mstore\n        /* \"#utility.yul\":6663:6667   */\n      0x32\n        /* \"#utility.yul\":6660:6661   */\n      0x04\n        /* \"#utility.yul\":6653:6668   */\n      mstore\n        /* \"#utility.yul\":6687:6691   */\n      0x24\n        /* \"#utility.yul\":6684:6685   */\n      0x00\n        /* \"#utility.yul\":6677:6692   */\n      revert\n        /* \"#utility.yul\":6704:6873   */\n    tag_132:\n        /* \"#utility.yul\":6788:6799   */\n      0x00\n        /* \"#utility.yul\":6822:6828   */\n      dup3\n        /* \"#utility.yul\":6817:6820   */\n      dup3\n        /* \"#utility.yul\":6810:6829   */\n      mstore\n        /* \"#utility.yul\":6862:6866   */\n      0x20\n        /* \"#utility.yul\":6857:6860   */\n      dup3\n        /* \"#utility.yul\":6853:6867   */\n      add\n        /* \"#utility.yul\":6838:6867   */\n      swap1\n      pop\n        /* \"#utility.yul\":6704:6873   */\n      swap3\n      swap2\n      pop\n      pop\n      jump\t// out\n        /* \"#utility.yul\":6879:7054   */\n    tag_133:\n        /* \"#utility.yul\":7019:7046   */\n      0x50726f706f73616c20616c726561647920657865637574656400000000000000\n        /* \"#utility.yul\":7015:7016   */\n      0x00\n        /* \"#utility.yul\":7007:7013   */\n      dup3\n        /* \"#utility.yul\":7003:7017   */\n      add\n        /* \"#utility.yul\":6996:7047   */\n      mstore\n        /* \"#utility.yul\":6879:7054   */\n      pop\n      jump\t// out\n        /* \"#utility.yul\":7060:7426   */\n    tag_134:\n        /* \"#utility.yul\":7202:7205   */\n      0x00\n        /* \"#utility.yul\":7223:7290   */\n      tag_254\n        /* \"#utility.yul\":7287:7289   */\n      0x19\n        /* \"#utility.yul\":7282:7285   */\n      dup4\n        /* \"#utility.yul\":7223:7290   */\n      tag_132\n      jump\t// in\n    tag_254:\n        /* \"#utility.yul\":7216:7290   */\n      swap2\n      pop\n        /* \"#utility.yul\":7299:7392   */\n      tag_255\n        /* \"#utility.yul\":7388:7391   */\n      dup3\n        /* \"#utility.yul\":7299:7392   */\n      tag_133\n      jump\t// in\n    tag_255:\n        /* \"#utility.yul\":7417:7419   */\n      0x20\n        /* \"#utility.yul\":7412:7415   */\n      dup3\n        /* \"#utility.yul\":7408:7420   */\n      add\n        /* \"#utility.yul\":7401:7420   */\n      swap1\n      pop\n        /* \"#utility.yul\":7060:7426   */\n      swap2\n      swap1\n      pop\n      jump\t// out\n        /* \"#utility.yul\":7432:7851   */\n    tag_30:\n        /* \"#utility.yul\":7598:7602   */\n      0x00\n        /* \"#utility.yul\":7636:7638   */\n      0x20\n        /* \"#utility.yul\":7625:7634   */\n      dup3\n        /* \"#utility.yul\":7621:7639   */\n      add\n        /* \"#utility.yul\":7613:7639   */\n      swap1\n      pop\n        /* \"#utility.yul\":7685:7694   */\n      dup2\n        /* \"#utility.yul\":7679:7683   */\n      dup2\n        /* \"#utility.yul\":7675:7695   */\n      sub\n        /* \"#utility.yul\":7671:7672   */\n      0x00\n        /* \"#utility.yul\":7660:7669   */\n      dup4\n        /* \"#utility.yul\":7656:7673   */\n      add\n        /* \"#utility.yul\":7649:7696   */\n      mstore\n        /* \"#utility.yul\":7713:7844   */\n      tag_257\n        /* \"#utility.yul\":7839:7843   */\n      dup2\n        /* \"#utility.yul\":7713:7844   */\n      tag_134\n      jump\t// in\n    tag_257:\n        /* \"#utility.yul\":7705:7844   */\n      swap1\n      pop\n        /* \"#utility.yul\":7432:7851   */\n      swap2\n      swap1\n      pop\n      jump\t// out\n        /* \"#utility.yul\":7857:8034   */\n    tag_135:\n        /* \"#utility.yul\":7997:8026   */\n      0x566f74696e6720706572696f64206e6f742079657420656e6465640000000000\n        /* \"#utility.yul\":7993:7994   */\n      0x00\n        /* \"#utility.yul\":7985:7991   */\n      dup3\n        /* \"#utility.yul\":7981:7995   */\n      add\n        /* \"#utility.yul\":7974:8027   */\n      mstore\n        /* \"#utility.yul\":7857:8034   */\n      pop\n      jump\t// out\n        /* \"#utility.yul\":8040:8406   */\n    tag_136:\n        /* \"#utility.yul\":8182:8185   */\n      0x00\n        /* \"#utility.yul\":8203:8270   */\n      tag_260\n        /* \"#utility.yul\":8267:8269   */\n      0x1b\n        /* \"#utility.yul\":8262:8265   */\n      dup4\n        /* \"#utility.yul\":8203:8270   */\n      tag_132\n      jump\t// in\n    tag_260:\n        /* \"#utility.yul\":8196:8270   */\n      swap2\n      pop\n        /* \"#utility.yul\":8279:8372   */\n      tag_261\n        /* \"#utility.yul\":8368:8371   */\n      dup3\n        /* \"#utility.yul\":8279:8372   */\n      tag_135\n      jump\t// in\n    tag_261:\n        /* \"#utility.yul\":8397:8399   */\n      0x20\n        /* \"#utility.yul\":8392:8395   */\n      dup3\n        /* \"#utility.yul\":8388:8400   */\n      add\n        /* \"#utility.yul\":8381:8400   */\n      swap1\n      pop\n        /* \"#utility.yul\":8040:8406   */\n      swap2\n      swap1\n      pop\n      jump\t// out\n        /* \"#utility.yul\":8412:8831   */\n    tag_33:\n        /* \"#utility.yul\":8578:8582   */\n      0x00\n        /* \"#utility.yul\":8616:8618   */\n      0x20\n        /* \"#utility.yul\":8605:8614   */\n      dup3\n        /* \"#utility.yul\":8601:8619   */\n      add\n        /* \"#utility.yul\":8593:8619   */\n      swap1\n      pop\n        /* \"#utility.yul\":8665:8674   */\n      dup2\n        /* \"#utility.yul\":8659:8663   */\n      dup2\n        /* \"#utility.yul\":8655:8675   */\n      sub\n        /* \"#utility.yul\":8651:8652   */\n      0x00\n        /* \"#utility.yul\":8640:8649   */\n      dup4\n        /* \"#utility.yul\":8636:8653   */\n      add\n        /* \"#utility.yul\":8629:8676   */\n      mstore\n        /* \"#utility.yul\":8693:8824   */\n      tag_263\n        /* \"#utility.yul\":8819:8823   */\n      dup2\n        /* \"#utility.yul\":8693:8824   */\n      tag_136\n      jump\t// in\n    tag_263:\n        /* \"#utility.yul\":8685:8824   */\n      swap1\n      pop\n        /* \"#utility.yul\":8412:8831   */\n      swap2\n      swap1\n      pop\n      jump\t// out\n        /* \"#utility.yul\":8837:8946   */\n    tag_137:\n        /* \"#utility.yul\":8918:8939   */\n      tag_265\n        /* \"#utility.yul\":8933:8938   */\n      dup2\n        /* \"#utility.yul\":8918:8939   */\n      tag_116\n      jump\t// in\n    tag_265:\n        /* \"#utility.yul\":8913:8916   */\n      dup3\n        /* \"#utility.yul\":8906:8940   */\n      mstore\n        /* \"#utility.yul\":8837:8946   */\n      pop\n      pop\n      jump\t// out\n        /* \"#utility.yul\":8952:9070   */\n    tag_138:\n        /* \"#utility.yul\":9039:9063   */\n      tag_267\n        /* \"#utility.yul\":9057:9062   */\n      dup2\n        /* \"#utility.yul\":9039:9063   */\n      tag_107\n      jump\t// in\n    tag_267:\n        /* \"#utility.yul\":9034:9037   */\n      dup3\n        /* \"#utility.yul\":9027:9064   */\n      mstore\n        /* \"#utility.yul\":8952:9070   */\n      pop\n      pop\n      jump\t// out\n        /* \"#utility.yul\":9076:9506   */\n    tag_35:\n        /* \"#utility.yul\":9219:9223   */\n      0x00\n        /* \"#utility.yul\":9257:9259   */\n      0x60\n        /* \"#utility.yul\":9246:9255   */\n      dup3\n        /* \"#utility.yul\":9242:9260   */\n      add\n        /* \"#utility.yul\":9234:9260   */\n      swap1\n      pop\n        /* \"#utility.yul\":9270:9335   */\n      tag_269\n        /* \"#utility.yul\":9332:9333   */\n      0x00\n        /* \"#utility.yul\":9321:9330   */\n      dup4\n        /* \"#utility.yul\":9317:9334   */\n      add\n        /* \"#utility.yul\":9308:9314   */\n      dup7\n        /* \"#utility.yul\":9270:9335   */\n      tag_137\n      jump\t// in\n    tag_269:\n        /* \"#utility.yul\":9345:9417   */\n      tag_270\n        /* \"#utility.yul\":9413:9415   */\n      0x20\n        /* \"#utility.yul\":9402:9411   */\n      dup4\n        /* \"#utility.yul\":9398:9416   */\n      add\n        /* \"#utility.yul\":9389:9395   */\n      dup6\n        /* \"#utility.yul\":9345:9417   */\n      tag_138\n      jump\t// in\n    tag_270:\n        /* \"#utility.yul\":9427:9499   */\n      tag_271\n        /* \"#utility.yul\":9495:9497   */\n      0x40\n        /* \"#utility.yul\":9484:9493   */\n      dup4\n        /* \"#utility.yul\":9480:9498   */\n      add\n        /* \"#utility.yul\":9471:9477   */\n      dup5\n        /* \"#utility.yul\":9427:9499   */\n      tag_138\n      jump\t// in\n    tag_271:\n        /* \"#utility.yul\":9076:9506   */\n      swap5\n      swap4\n      pop\n      pop\n      pop\n      pop\n      jump\t// out\n        /* \"#utility.yul\":9512:9685   */\n    tag_139:\n        /* \"#utility.yul\":9652:9677   */\n      0x566f74696e6720706572696f642068617320656e646564000000000000000000\n        /* \"#utility.yul\":9648:9649   */\n      0x00\n        /* \"#utility.yul\":9640:9646   */\n      dup3\n        /* \"#utility.yul\":9636:9650   */\n      add\n        /* \"#utility.yul\":9629:9678   */\n      mstore\n        /* \"#utility.yul\":9512:9685   */\n      pop\n      jump\t// out\n        /* \"#utility.yul\":9691:10057   */\n    tag_140:\n        /* \"#utility.yul\":9833:9836   */\n      0x00\n        /* \"#utility.yul\":9854:9921   */\n      tag_274\n        /* \"#utility.yul\":9918:9920   */\n      0x17\n        /* \"#utility.yul\":9913:9916   */\n      dup4\n        /* \"#utility.yul\":9854:9921   */\n      tag_132\n      jump\t// in\n    tag_274:\n        /* \"#utility.yul\":9847:9921   */\n      swap2\n      pop\n        /* \"#utility.yul\":9930:10023   */\n      tag_275\n        /* \"#utility.yul\":10019:10022   */\n      dup3\n        /* \"#utility.yul\":9930:10023   */\n      tag_139\n      jump\t// in\n    tag_275:\n        /* \"#utility.yul\":10048:10050   */\n      0x20\n        /* \"#utility.yul\":10043:10046   */\n      dup3\n        /* \"#utility.yul\":10039:10051   */\n      add\n        /* \"#utility.yul\":10032:10051   */\n      swap1\n      pop\n        /* \"#utility.yul\":9691:10057   */\n      swap2\n      swap1\n      pop\n      jump\t// out\n        /* \"#utility.yul\":10063:10482   */\n    tag_46:\n        /* \"#utility.yul\":10229:10233   */\n      0x00\n        /* \"#utility.yul\":10267:10269   */\n      0x20\n        /* \"#utility.yul\":10256:10265   */\n      dup3\n        /* \"#utility.yul\":10252:10270   */\n      add\n        /* \"#utility.yul\":10244:10270   */\n      swap1\n      pop\n        /* \"#utility.yul\":10316:10325   */\n      dup2\n        /* \"#utility.yul\":10310:10314   */\n      dup2\n        /* \"#utility.yul\":10306:10326   */\n      sub\n        /* \"#utility.yul\":10302:10303   */\n      0x00\n        /* \"#utility.yul\":10291:10300   */\n      dup4\n        /* \"#utility.yul\":10287:10304   */\n      add\n        /* \"#utility.yul\":10280:10327   */\n      mstore\n        /* \"#utility.yul\":10344:10475   */\n      tag_277\n        /* \"#utility.yul\":10470:10474   */\n      dup2\n        /* \"#utility.yul\":10344:10475   */\n      tag_140\n      jump\t// in\n    tag_277:\n        /* \"#utility.yul\":10336:10475   */\n      swap1\n      pop\n        /* \"#utility.yul\":10063:10482   */\n      swap2\n      swap1\n      pop\n      jump\t// out\n        /* \"#utility.yul\":10488:10584   */\n    tag_141:\n        /* \"#utility.yul\":10525:10532   */\n      0x00\n        /* \"#utility.yul\":10554:10578   */\n      tag_279\n        /* \"#utility.yul\":10572:10577   */\n      dup3\n        /* \"#utility.yul\":10554:10578   */\n      tag_110\n      jump\t// in\n    tag_279:\n        /* \"#utility.yul\":10543:10578   */\n      swap1\n      pop\n        /* \"#utility.yul\":10488:10584   */\n      swap2\n      swap1\n      pop\n      jump\t// out\n        /* \"#utility.yul\":10590:10708   */\n    tag_142:\n        /* \"#utility.yul\":10677:10701   */\n      tag_281\n        /* \"#utility.yul\":10695:10700   */\n      dup2\n        /* \"#utility.yul\":10677:10701   */\n      tag_141\n      jump\t// in\n    tag_281:\n        /* \"#utility.yul\":10672:10675   */\n      dup3\n        /* \"#utility.yul\":10665:10702   */\n      mstore\n        /* \"#utility.yul\":10590:10708   */\n      pop\n      pop\n      jump\t// out\n        /* \"#utility.yul\":10714:10936   */\n    tag_48:\n        /* \"#utility.yul\":10807:10811   */\n      0x00\n        /* \"#utility.yul\":10845:10847   */\n      0x20\n        /* \"#utility.yul\":10834:10843   */\n      dup3\n        /* \"#utility.yul\":10830:10848   */\n      add\n        /* \"#utility.yul\":10822:10848   */\n      swap1\n      pop\n        /* \"#utility.yul\":10858:10929   */\n      tag_283\n        /* \"#utility.yul\":10926:10927   */\n      0x00\n        /* \"#utility.yul\":10915:10924   */\n      dup4\n        /* \"#utility.yul\":10911:10928   */\n      add\n        /* \"#utility.yul\":10902:10908   */\n      dup5\n        /* \"#utility.yul\":10858:10929   */\n      tag_142\n      jump\t// in\n    tag_283:\n        /* \"#utility.yul\":10714:10936   */\n      swap3\n      swap2\n      pop\n      pop\n      jump\t// out\n        /* \"#utility.yul\":10942:11085   */\n    tag_143:\n        /* \"#utility.yul\":10999:11004   */\n      0x00\n        /* \"#utility.yul\":11030:11036   */\n      dup2\n        /* \"#utility.yul\":11024:11037   */\n      mload\n        /* \"#utility.yul\":11015:11037   */\n      swap1\n      pop\n        /* \"#utility.yul\":11046:11079   */\n      tag_285\n        /* \"#utility.yul\":11073:11078   */\n      dup2\n        /* \"#utility.yul\":11046:11079   */\n      tag_108\n      jump\t// in\n    tag_285:\n        /* \"#utility.yul\":10942:11085   */\n      swap3\n      swap2\n      pop\n      pop\n      jump\t// out\n        /* \"#utility.yul\":11091:11442   */\n    tag_52:\n        /* \"#utility.yul\":11161:11167   */\n      0x00\n        /* \"#utility.yul\":11210:11212   */\n      0x20\n        /* \"#utility.yul\":11198:11207   */\n      dup3\n        /* \"#utility.yul\":11189:11196   */\n      dup5\n        /* \"#utility.yul\":11185:11208   */\n      sub\n        /* \"#utility.yul\":11181:11213   */\n      slt\n        /* \"#utility.yul\":11178:11297   */\n      iszero\n      tag_287\n      jumpi\n        /* \"#utility.yul\":11216:11295   */\n      tag_288\n      tag_105\n      jump\t// in\n    tag_288:\n        /* \"#utility.yul\":11178:11297   */\n    tag_287:\n        /* \"#utility.yul\":11336:11337   */\n      0x00\n        /* \"#utility.yul\":11361:11425   */\n      tag_289\n        /* \"#utility.yul\":11417:11424   */\n      dup5\n        /* \"#utility.yul\":11408:11414   */\n      dup3\n        /* \"#utility.yul\":11397:11406   */\n      dup6\n        /* \"#utility.yul\":11393:11415   */\n      add\n        /* \"#utility.yul\":11361:11425   */\n      tag_143\n      jump\t// in\n    tag_289:\n        /* \"#utility.yul\":11351:11425   */\n      swap2\n      pop\n        /* \"#utility.yul\":11307:11435   */\n      pop\n        /* \"#utility.yul\":11091:11442   */\n      swap3\n      swap2\n      pop\n      pop\n      jump\t// out\n        /* \"#utility.yul\":11448:11615   */\n    tag_144:\n        /* \"#utility.yul\":11588:11607   */\n      0x4e6f7420656e6f75676820746f6b656e73000000000000000000000000000000\n        /* \"#utility.yul\":11584:11585   */\n      0x00\n        /* \"#utility.yul\":11576:11582   */\n      dup3\n        /* \"#utility.yul\":11572:11586   */\n      add\n        /* \"#utility.yul\":11565:11608   */\n      mstore\n        /* \"#utility.yul\":11448:11615   */\n      pop\n      jump\t// out\n        /* \"#utility.yul\":11621:11987   */\n    tag_145:\n        /* \"#utility.yul\":11763:11766   */\n      0x00\n        /* \"#utility.yul\":11784:11851   */\n      tag_292\n        /* \"#utility.yul\":11848:11850   */\n      0x11\n        /* \"#utility.yul\":11843:11846   */\n      dup4\n        /* \"#utility.yul\":11784:11851   */\n      tag_132\n      jump\t// in\n    tag_292:\n        /* \"#utility.yul\":11777:11851   */\n      swap2\n      pop\n        /* \"#utility.yul\":11860:11953   */\n      tag_293\n        /* \"#utility.yul\":11949:11952   */\n      dup3\n        /* \"#utility.yul\":11860:11953   */\n      tag_144\n      jump\t// in\n    tag_293:\n        /* \"#utility.yul\":11978:11980   */\n      0x20\n        /* \"#utility.yul\":11973:11976   */\n      dup3\n        /* \"#utility.yul\":11969:11981   */\n      add\n        /* \"#utility.yul\":11962:11981   */\n      swap1\n      pop\n        /* \"#utility.yul\":11621:11987   */\n      swap2\n      swap1\n      pop\n      jump\t// out\n        /* \"#utility.yul\":11993:12412   */\n    tag_55:\n        /* \"#utility.yul\":12159:12163   */\n      0x00\n        /* \"#utility.yul\":12197:12199   */\n      0x20\n        /* \"#utility.yul\":12186:12195   */\n      dup3\n        /* \"#utility.yul\":12182:12200   */\n      add\n        /* \"#utility.yul\":12174:12200   */\n      swap1\n      pop\n        /* \"#utility.yul\":12246:12255   */\n      dup2\n        /* \"#utility.yul\":12240:12244   */\n      dup2\n        /* \"#utility.yul\":12236:12256   */\n      sub\n        /* \"#utility.yul\":12232:12233   */\n      0x00\n        /* \"#utility.yul\":12221:12230   */\n      dup4\n        /* \"#utility.yul\":12217:12234   */\n      add\n        /* \"#utility.yul\":12210:12257   */\n      mstore\n        /* \"#utility.yul\":12274:12405   */\n      tag_295\n        /* \"#utility.yul\":12400:12404   */\n      dup2\n        /* \"#utility.yul\":12274:12405   */\n      tag_145\n      jump\t// in\n    tag_295:\n        /* \"#utility.yul\":12266:12405   */\n      swap1\n      pop\n        /* \"#utility.yul\":11993:12412   */\n      swap2\n      swap1\n      pop\n      jump\t// out\n        /* \"#utility.yul\":12418:12581   */\n    tag_146:\n        /* \"#utility.yul\":12558:12573   */\n      0x416c726561647920766f74656400000000000000000000000000000000000000\n        /* \"#utility.yul\":12554:12555   */\n      0x00\n        /* \"#utility.yul\":12546:12552   */\n      dup3\n        /* \"#utility.yul\":12542:12556   */\n      add\n        /* \"#utility.yul\":12535:12574   */\n      mstore\n        /* \"#utility.yul\":12418:12581   */\n      pop\n      jump\t// out\n        /* \"#utility.yul\":12587:12953   */\n    tag_147:\n        /* \"#utility.yul\":12729:12732   */\n      0x00\n        /* \"#utility.yul\":12750:12817   */\n      tag_298\n        /* \"#utility.yul\":12814:12816   */\n      0x0d\n        /* \"#utility.yul\":12809:12812   */\n      dup4\n        /* \"#utility.yul\":12750:12817   */\n      tag_132\n      jump\t// in\n    tag_298:\n        /* \"#utility.yul\":12743:12817   */\n      swap2\n      pop\n        /* \"#utility.yul\":12826:12919   */\n      tag_299\n        /* \"#utility.yul\":12915:12918   */\n      dup3\n        /* \"#utility.yul\":12826:12919   */\n      tag_146\n      jump\t// in\n    tag_299:\n        /* \"#utility.yul\":12944:12946   */\n      0x20\n        /* \"#utility.yul\":12939:12942   */\n      dup3\n        /* \"#utility.yul\":12935:12947   */\n      add\n        /* \"#utility.yul\":12928:12947   */\n      swap1\n      pop\n        /* \"#utility.yul\":12587:12953   */\n      swap2\n      swap1\n      pop\n      jump\t// out\n        /* \"#utility.yul\":12959:13378   */\n    tag_61:\n        /* \"#utility.yul\":13125:13129   */\n      0x00\n        /* \"#utility.yul\":13163:13165   */\n      0x20\n        /* \"#utility.yul\":13152:13161   */\n      dup3\n        /* \"#utility.yul\":13148:13166   */\n      add\n        /* \"#utility.yul\":13140:13166   */\n      swap1\n      pop\n        /* \"#utility.yul\":13212:13221   */\n      dup2\n        /* \"#utility.yul\":13206:13210   */\n      dup2\n        /* \"#utility.yul\":13202:13222   */\n      sub\n        /* \"#utility.yul\":13198:13199   */\n      0x00\n        /* \"#utility.yul\":13187:13196   */\n      dup4\n        /* \"#utility.yul\":13183:13200   */\n      add\n        /* \"#utility.yul\":13176:13223   */\n      mstore\n        /* \"#utility.yul\":13240:13371   */\n      tag_301\n        /* \"#utility.yul\":13366:13370   */\n      dup2\n        /* \"#utility.yul\":13240:13371   */\n      tag_147\n      jump\t// in\n    tag_301:\n        /* \"#utility.yul\":13232:13371   */\n      swap1\n      pop\n        /* \"#utility.yul\":12959:13378   */\n      swap2\n      swap1\n      pop\n      jump\t// out\n        /* \"#utility.yul\":13384:13716   */\n    tag_63:\n        /* \"#utility.yul\":13505:13509   */\n      0x00\n        /* \"#utility.yul\":13543:13545   */\n      0x40\n        /* \"#utility.yul\":13532:13541   */\n      dup3\n        /* \"#utility.yul\":13528:13546   */\n      add\n        /* \"#utility.yul\":13520:13546   */\n      swap1\n      pop\n        /* \"#utility.yul\":13556:13627   */\n      tag_303\n        /* \"#utility.yul\":13624:13625   */\n      0x00\n        /* \"#utility.yul\":13613:13622   */\n      dup4\n        /* \"#utility.yul\":13609:13626   */\n      add\n        /* \"#utility.yul\":13600:13606   */\n      dup6\n        /* \"#utility.yul\":13556:13627   */\n      tag_142\n      jump\t// in\n    tag_303:\n        /* \"#utility.yul\":13637:13709   */\n      tag_304\n        /* \"#utility.yul\":13705:13707   */\n      0x20\n        /* \"#utility.yul\":13694:13703   */\n      dup4\n        /* \"#utility.yul\":13690:13708   */\n      add\n        /* \"#utility.yul\":13681:13687   */\n      dup5\n        /* \"#utility.yul\":13637:13709   */\n      tag_138\n      jump\t// in\n    tag_304:\n        /* \"#utility.yul\":13384:13716   */\n      swap4\n      swap3\n      pop\n      pop\n      pop\n      jump\t// out\n        /* \"#utility.yul\":13722:13902   */\n    tag_148:\n        /* \"#utility.yul\":13770:13847   */\n      0x4e487b7100000000000000000000000000000000000000000000000000000000\n        /* \"#utility.yul\":13767:13768   */\n      0x00\n        /* \"#utility.yul\":13760:13848   */\n      mstore\n        /* \"#utility.yul\":13867:13871   */\n      0x11\n        /* \"#utility.yul\":13864:13865   */\n      0x04\n        /* \"#utility.yul\":13857:13872   */\n      mstore\n        /* \"#utility.yul\":13891:13895   */\n      0x24\n        /* \"#utility.yul\":13888:13889   */\n      0x00\n        /* \"#utility.yul\":13881:13896   */\n      revert\n        /* \"#utility.yul\":13908:14099   */\n    tag_77:\n        /* \"#utility.yul\":13948:13951   */\n      0x00\n        /* \"#utility.yul\":13967:13987   */\n      tag_307\n        /* \"#utility.yul\":13985:13986   */\n      dup3\n        /* \"#utility.yul\":13967:13987   */\n      tag_107\n      jump\t// in\n    tag_307:\n        /* \"#utility.yul\":13962:13987   */\n      swap2\n      pop\n        /* \"#utility.yul\":14001:14021   */\n      tag_308\n        /* \"#utility.yul\":14019:14020   */\n      dup4\n        /* \"#utility.yul\":14001:14021   */\n      tag_107\n      jump\t// in\n    tag_308:\n        /* \"#utility.yul\":13996:14021   */\n      swap3\n      pop\n        /* \"#utility.yul\":14044:14045   */\n      dup3\n        /* \"#utility.yul\":14041:14042   */\n      dup3\n        /* \"#utility.yul\":14037:14046   */\n      add\n        /* \"#utility.yul\":14030:14046   */\n      swap1\n      pop\n        /* \"#utility.yul\":14065:14068   */\n      dup1\n        /* \"#utility.yul\":14062:14063   */\n      dup3\n        /* \"#utility.yul\":14059:14069   */\n      gt\n        /* \"#utility.yul\":14056:14092   */\n      iszero\n      tag_309\n      jumpi\n        /* \"#utility.yul\":14072:14090   */\n      tag_310\n      tag_148\n      jump\t// in\n    tag_310:\n        /* \"#utility.yul\":14056:14092   */\n    tag_309:\n        /* \"#utility.yul\":13908:14099   */\n      swap3\n      swap2\n      pop\n      pop\n      jump\t// out\n        /* \"#utility.yul\":14105:14425   */\n    tag_84:\n        /* \"#utility.yul\":14220:14224   */\n      0x00\n        /* \"#utility.yul\":14258:14260   */\n      0x40\n        /* \"#utility.yul\":14247:14256   */\n      dup3\n        /* \"#utility.yul\":14243:14261   */\n      add\n        /* \"#utility.yul\":14235:14261   */\n      swap1\n      pop\n        /* \"#utility.yul\":14271:14336   */\n      tag_312\n        /* \"#utility.yul\":14333:14334   */\n      0x00\n        /* \"#utility.yul\":14322:14331   */\n      dup4\n        /* \"#utility.yul\":14318:14335   */\n      add\n        /* \"#utility.yul\":14309:14315   */\n      dup6\n        /* \"#utility.yul\":14271:14336   */\n      tag_137\n      jump\t// in\n    tag_312:\n        /* \"#utility.yul\":14346:14418   */\n      tag_313\n        /* \"#utility.yul\":14414:14416   */\n      0x20\n        /* \"#utility.yul\":14403:14412   */\n      dup4\n        /* \"#utility.yul\":14399:14417   */\n      add\n        /* \"#utility.yul\":14390:14396   */\n      dup5\n        /* \"#utility.yul\":14346:14418   */\n      tag_138\n      jump\t// in\n    tag_313:\n        /* \"#utility.yul\":14105:14425   */\n      swap4\n      swap3\n      pop\n      pop\n      pop\n      jump\t// out\n        /* \"#utility.yul\":14431:14530   */\n    tag_149:\n        /* \"#utility.yul\":14483:14489   */\n      0x00\n        /* \"#utility.yul\":14517:14522   */\n      dup2\n        /* \"#utility.yul\":14511:14523   */\n      mload\n        /* \"#utility.yul\":14501:14523   */\n      swap1\n      pop\n        /* \"#utility.yul\":14431:14530   */\n      swap2\n      swap1\n      pop\n      jump\t// out\n        /* \"#utility.yul\":14536:14716   */\n    tag_150:\n        /* \"#utility.yul\":14584:14661   */\n      0x4e487b7100000000000000000000000000000000000000000000000000000000\n        /* \"#utility.yul\":14581:14582   */\n      0x00\n        /* \"#utility.yul\":14574:14662   */\n      mstore\n        /* \"#utility.yul\":14681:14685   */\n      0x22\n        /* \"#utility.yul\":14678:14679   */\n      0x04\n        /* \"#utility.yul\":14671:14686   */\n      mstore\n        /* \"#utility.yul\":14705:14709   */\n      0x24\n        /* \"#utility.yul\":14702:14703   */\n      0x00\n        /* \"#utility.yul\":14695:14710   */\n      revert\n        /* \"#utility.yul\":14722:15042   */\n    tag_151:\n        /* \"#utility.yul\":14766:14772   */\n      0x00\n        /* \"#utility.yul\":14803:14804   */\n      0x02\n        /* \"#utility.yul\":14797:14801   */\n      dup3\n        /* \"#utility.yul\":14793:14805   */\n      div\n        /* \"#utility.yul\":14783:14805   */\n      swap1\n      pop\n        /* \"#utility.yul\":14850:14851   */\n      0x01\n        /* \"#utility.yul\":14844:14848   */\n      dup3\n        /* \"#utility.yul\":14840:14852   */\n      and\n        /* \"#utility.yul\":14871:14889   */\n      dup1\n        /* \"#utility.yul\":14861:14942   */\n      tag_317\n      jumpi\n        /* \"#utility.yul\":14927:14931   */\n      0x7f\n        /* \"#utility.yul\":14919:14925   */\n      dup3\n        /* \"#utility.yul\":14915:14932   */\n      and\n        /* \"#utility.yul\":14905:14932   */\n      swap2\n      pop\n        /* \"#utility.yul\":14861:14942   */\n    tag_317:\n        /* \"#utility.yul\":14989:14991   */\n      0x20\n        /* \"#utility.yul\":14981:14987   */\n      dup3\n        /* \"#utility.yul\":14978:14992   */\n      lt\n        /* \"#utility.yul\":14958:14976   */\n      dup2\n        /* \"#utility.yul\":14955:14993   */\n      sub\n        /* \"#utility.yul\":14952:15036   */\n      tag_318\n      jumpi\n        /* \"#utility.yul\":15008:15026   */\n      tag_319\n      tag_150\n      jump\t// in\n    tag_319:\n        /* \"#utility.yul\":14952:15036   */\n    tag_318:\n        /* \"#utility.yul\":14773:15042   */\n      pop\n        /* \"#utility.yul\":14722:15042   */\n      swap2\n      swap1\n      pop\n      jump\t// out\n        /* \"#utility.yul\":15048:15189   */\n    tag_152:\n        /* \"#utility.yul\":15097:15101   */\n      0x00\n        /* \"#utility.yul\":15120:15123   */\n      dup2\n        /* \"#utility.yul\":15112:15123   */\n      swap1\n      pop\n        /* \"#utility.yul\":15143:15146   */\n      dup2\n        /* \"#utility.yul\":15140:15141   */\n      0x00\n        /* \"#utility.yul\":15133:15147   */\n      mstore\n        /* \"#utility.yul\":15177:15181   */\n      0x20\n        /* \"#utility.yul\":15174:15175   */\n      0x00\n        /* \"#utility.yul\":15164:15182   */\n      keccak256\n        /* \"#utility.yul\":15156:15182   */\n      swap1\n      pop\n        /* \"#utility.yul\":15048:15189   */\n      swap2\n      swap1\n      pop\n      jump\t// out\n        /* \"#utility.yul\":15195:15288   */\n    tag_153:\n        /* \"#utility.yul\":15232:15238   */\n      0x00\n        /* \"#utility.yul\":15279:15281   */\n      0x20\n        /* \"#utility.yul\":15274:15276   */\n      0x1f\n        /* \"#utility.yul\":15267:15272   */\n      dup4\n        /* \"#utility.yul\":15263:15277   */\n      add\n        /* \"#utility.yul\":15259:15282   */\n      div\n        /* \"#utility.yul\":15249:15282   */\n      swap1\n      pop\n        /* \"#utility.yul\":15195:15288   */\n      swap2\n      swap1\n      pop\n      jump\t// out\n        /* \"#utility.yul\":15294:15401   */\n    tag_154:\n        /* \"#utility.yul\":15338:15346   */\n      0x00\n        /* \"#utility.yul\":15388:15393   */\n      dup3\n        /* \"#utility.yul\":15382:15386   */\n      dup3\n        /* \"#utility.yul\":15378:15394   */\n      shl\n        /* \"#utility.yul\":15357:15394   */\n      swap1\n      pop\n        /* \"#utility.yul\":15294:15401   */\n      swap3\n      swap2\n      pop\n      pop\n      jump\t// out\n        /* \"#utility.yul\":15407:15800   */\n    tag_155:\n        /* \"#utility.yul\":15476:15482   */\n      0x00\n        /* \"#utility.yul\":15526:15527   */\n      0x08\n        /* \"#utility.yul\":15514:15524   */\n      dup4\n        /* \"#utility.yul\":15510:15528   */\n      mul\n        /* \"#utility.yul\":15549:15646   */\n      tag_324\n        /* \"#utility.yul\":15579:15645   */\n      0xffffffffffffffffffffffffffffffffffffffffffffffffffffffffffffffff\n        /* \"#utility.yul\":15568:15577   */\n      dup3\n        /* \"#utility.yul\":15549:15646   */\n      tag_154\n      jump\t// in\n    tag_324:\n        /* \"#utility.yul\":15667:15706   */\n      tag_325\n        /* \"#utility.yul\":15697:15705   */\n      dup7\n        /* \"#utility.yul\":15686:15695   */\n      dup4\n        /* \"#utility.yul\":15667:15706   */\n      tag_154\n      jump\t// in\n    tag_325:\n        /* \"#utility.yul\":15655:15706   */\n      swap6\n      pop\n        /* \"#utility.yul\":15739:15743   */\n      dup1\n        /* \"#utility.yul\":15735:15744   */\n      not\n        /* \"#utility.yul\":15728:15733   */\n      dup5\n        /* \"#utility.yul\":15724:15745   */\n      and\n        /* \"#utility.yul\":15715:15745   */\n      swap4\n      pop\n        /* \"#utility.yul\":15788:15792   */\n      dup1\n        /* \"#utility.yul\":15778:15786   */\n      dup7\n        /* \"#utility.yul\":15774:15793   */\n      and\n        /* \"#utility.yul\":15767:15772   */\n      dup5\n        /* \"#utility.yul\":15764:15794   */\n      or\n        /* \"#utility.yul\":15754:15794   */\n      swap3\n      pop\n        /* \"#utility.yul\":15483:15800   */\n      pop\n      pop\n        /* \"#utility.yul\":15407:15800   */\n      swap4\n      swap3\n      pop\n      pop\n      pop\n      jump\t// out\n        /* \"#utility.yul\":15806:15948   */\n    tag_156:\n        /* \"#utility.yul\":15856:15865   */\n      0x00\n        /* \"#utility.yul\":15889:15942   */\n      tag_327\n        /* \"#utility.yul\":15907:15941   */\n      tag_328\n        /* \"#utility.yul\":15916:15940   */\n      tag_329\n        /* \"#utility.yul\":15934:15939   */\n      dup5\n        /* \"#utility.yul\":15916:15940   */\n      tag_107\n      jump\t// in\n    tag_329:\n        /* \"#utility.yul\":15907:15941   */\n      tag_111\n      jump\t// in\n    tag_328:\n        /* \"#utility.yul\":15889:15942   */\n      tag_107\n      jump\t// in\n    tag_327:\n        /* \"#utility.yul\":15876:15942   */\n      swap1\n      pop\n        /* \"#utility.yul\":15806:15948   */\n      swap2\n      swap1\n      pop\n      jump\t// out\n        /* \"#utility.yul\":15954:16029   */\n    tag_157:\n        /* \"#utility.yul\":15997:16000   */\n      0x00\n        /* \"#utility.yul\":16018:16023   */\n      dup2\n        /* \"#utility.yul\":16011:16023   */\n      swap1\n      pop\n        /* \"#utility.yul\":15954:16029   */\n      swap2\n      swap1\n      pop\n      jump\t// out\n        /* \"#utility.yul\":16035:16304   */\n    tag_158:\n        /* \"#utility.yul\":16145:16184   */\n      tag_332\n        /* \"#utility.yul\":16176:16183   */\n      dup4\n        /* \"#utility.yul\":16145:16184   */\n      tag_156\n      jump\t// in\n    tag_332:\n        /* \"#utility.yul\":16206:16297   */\n      tag_333\n        /* \"#utility.yul\":16255:16296   */\n      tag_334\n        /* \"#utility.yul\":16279:16295   */\n      dup3\n        /* \"#utility.yul\":16255:16296   */\n      tag_157\n      jump\t// in\n    tag_334:\n        /* \"#utility.yul\":16247:16253   */\n      dup5\n        /* \"#utility.yul\":16240:16244   */\n      dup5\n        /* \"#utility.yul\":16234:16245   */\n      sload\n        /* \"#utility.yul\":16206:16297   */\n      tag_155\n      jump\t// in\n    tag_333:\n        /* \"#utility.yul\":16200:16204   */\n      dup3\n        /* \"#utility.yul\":16193:16298   */\n      sstore\n        /* \"#utility.yul\":16111:16304   */\n      pop\n        /* \"#utility.yul\":16035:16304   */\n      pop\n      pop\n      pop\n      jump\t// out\n        /* \"#utility.yul\":16310:16383   */\n    tag_159:\n        /* \"#utility.yul\":16355:16358   */\n      0x00\n        /* \"#utility.yul\":16310:16383   */\n      swap1\n      jump\t// out\n        /* \"#utility.yul\":16389:16578   */\n    tag_160:\n        /* \"#utility.yul\":16466:16498   */\n      tag_337\n      tag_159\n      jump\t// in\n    tag_337:\n        /* \"#utility.yul\":16507:16572   */\n      tag_338\n        /* \"#utility.yul\":16565:16571   */\n      dup2\n        /* \"#utility.yul\":16557:16563   */\n      dup5\n        /* \"#utility.yul\":16551:16555   */\n      dup5\n        /* \"#utility.yul\":16507:16572   */\n      tag_158\n      jump\t// in\n    tag_338:\n        /* \"#utility.yul\":16442:16578   */\n      pop\n        /* \"#utility.yul\":16389:16578   */\n      pop\n      pop\n      jump\t// out\n        /* \"#utility.yul\":16584:16770   */\n    tag_161:\n        /* \"#utility.yul\":16644:16764   */\n    tag_340:\n        /* \"#utility.yul\":16661:16664   */\n      dup2\n        /* \"#utility.yul\":16654:16659   */\n      dup2\n        /* \"#utility.yul\":16651:16665   */\n      lt\n        /* \"#utility.yul\":16644:16764   */\n      iszero\n      tag_342\n      jumpi\n        /* \"#utility.yul\":16715:16754   */\n      tag_343\n        /* \"#utility.yul\":16752:16753   */\n      0x00\n        /* \"#utility.yul\":16745:16750   */\n      dup3\n        /* \"#utility.yul\":16715:16754   */\n      tag_160\n      jump\t// in\n    tag_343:\n        /* \"#utility.yul\":16688:16689   */\n      0x01\n        /* \"#utility.yul\":16681:16686   */\n      dup2\n        /* \"#utility.yul\":16677:16690   */\n      add\n        /* \"#utility.yul\":16668:16690   */\n      swap1\n      pop\n        /* \"#utility.yul\":16644:16764   */\n      jump(tag_340)\n    tag_342:\n        /* \"#utility.yul\":16584:16770   */\n      pop\n      pop\n      jump\t// out\n        /* \"#utility.yul\":16776:17319   */\n    tag_162:\n        /* \"#utility.yul\":16877:16879   */\n      0x1f\n        /* \"#utility.yul\":16872:16875   */\n      dup3\n        /* \"#utility.yul\":16869:16880   */\n      gt\n        /* \"#utility.yul\":16866:17312   */\n      iszero\n      tag_345\n      jumpi\n        /* \"#utility.yul\":16911:16949   */\n      tag_346\n        /* \"#utility.yul\":16943:16948   */\n      dup2\n        /* \"#utility.yul\":16911:16949   */\n      tag_152\n      jump\t// in\n    tag_346:\n        /* \"#utility.yul\":16995:17024   */\n      tag_347\n        /* \"#utility.yul\":17013:17023   */\n      dup5\n        /* \"#utility.yul\":16995:17024   */\n      tag_153\n      jump\t// in\n    tag_347:\n        /* \"#utility.yul\":16985:16993   */\n      dup2\n        /* \"#utility.yul\":16981:17025   */\n      add\n        /* \"#utility.yul\":17178:17180   */\n      0x20\n        /* \"#utility.yul\":17166:17176   */\n      dup6\n        /* \"#utility.yul\":17163:17181   */\n      lt\n        /* \"#utility.yul\":17160:17209   */\n      iszero\n      tag_348\n      jumpi\n        /* \"#utility.yul\":17199:17207   */\n      dup2\n        /* \"#utility.yul\":17184:17207   */\n      swap1\n      pop\n        /* \"#utility.yul\":17160:17209   */\n    tag_348:\n        /* \"#utility.yul\":17222:17302   */\n      tag_349\n        /* \"#utility.yul\":17278:17300   */\n      tag_350\n        /* \"#utility.yul\":17296:17299   */\n      dup6\n        /* \"#utility.yul\":17278:17300   */\n      tag_153\n      jump\t// in\n    tag_350:\n        /* \"#utility.yul\":17268:17276   */\n      dup4\n        /* \"#utility.yul\":17264:17301   */\n      add\n        /* \"#utility.yul\":17251:17262   */\n      dup3\n        /* \"#utility.yul\":17222:17302   */\n      tag_161\n      jump\t// in\n    tag_349:\n        /* \"#utility.yul\":16881:17312   */\n      pop\n      pop\n        /* \"#utility.yul\":16866:17312   */\n    tag_345:\n        /* \"#utility.yul\":16776:17319   */\n      pop\n      pop\n      pop\n      jump\t// out\n        /* \"#utility.yul\":17325:17442   */\n    tag_163:\n        /* \"#utility.yul\":17379:17387   */\n      0x00\n        /* \"#utility.yul\":17429:17434   */\n      dup3\n        /* \"#utility.yul\":17423:17427   */\n      dup3\n        /* \"#utility.yul\":17419:17435   */\n      shr\n        /* \"#utility.yul\":17398:17435   */\n      swap1\n      pop\n        /* \"#utility.yul\":17325:17442   */\n      swap3\n      swap2\n      pop\n      pop\n      jump\t// out\n        /* \"#utility.yul\":17448:17617   */\n    tag_164:\n        /* \"#utility.yul\":17492:17498   */\n      0x00\n        /* \"#utility.yul\":17525:17576   */\n      tag_353\n        /* \"#utility.yul\":17573:17574   */\n      0x00\n        /* \"#utility.yul\":17569:17575   */\n      not\n        /* \"#utility.yul\":17561:17566   */\n      dup5\n        /* \"#utility.yul\":17558:17559   */\n      0x08\n        /* \"#utility.yul\":17554:17567   */\n      mul\n        /* \"#utility.yul\":17525:17576   */\n      tag_163\n      jump\t// in\n    tag_353:\n        /* \"#utility.yul\":17521:17577   */\n      not\n        /* \"#utility.yul\":17606:17610   */\n      dup1\n        /* \"#utility.yul\":17600:17604   */\n      dup4\n        /* \"#utility.yul\":17596:17611   */\n      and\n        /* \"#utility.yul\":17586:17611   */\n      swap2\n      pop\n        /* \"#utility.yul\":17499:17617   */\n      pop\n        /* \"#utility.yul\":17448:17617   */\n      swap3\n      swap2\n      pop\n      pop\n      jump\t// out\n        /* \"#utility.yul\":17622:17917   */\n    tag_165:\n        /* \"#utility.yul\":17698:17702   */\n      0x00\n        /* \"#utility.yul\":17844:17873   */\n      tag_355\n        /* \"#utility.yul\":17869:17872   */\n      dup4\n        /* \"#utility.yul\":17863:17867   */\n      dup4\n        /* \"#utility.yul\":17844:17873   */\n      tag_164\n      jump\t// in\n    tag_355:\n        /* \"#utility.yul\":17836:17873   */\n      swap2\n      pop\n        /* \"#utility.yul\":17906:17909   */\n      dup3\n        /* \"#utility.yul\":17903:17904   */\n      0x02\n        /* \"#utility.yul\":17899:17910   */\n      mul\n        /* \"#utility.yul\":17893:17897   */\n      dup3\n        /* \"#utility.yul\":17890:17911   */\n      or\n        /* \"#utility.yul\":17882:17911   */\n      swap1\n      pop\n        /* \"#utility.yul\":17622:17917   */\n      swap3\n      swap2\n      pop\n      pop\n      jump\t// out\n        /* \"#utility.yul\":17922:19317   */\n    tag_88:\n        /* \"#utility.yul\":18039:18076   */\n      tag_357\n        /* \"#utility.yul\":18072:18075   */\n      dup3\n        /* \"#utility.yul\":18039:18076   */\n      tag_149\n      jump\t// in\n    tag_357:\n        /* \"#utility.yul\":18141:18159   */\n      0xffffffffffffffff\n        /* \"#utility.yul\":18133:18139   */\n      dup2\n        /* \"#utility.yul\":18130:18160   */\n      gt\n        /* \"#utility.yul\":18127:18183   */\n      iszero\n      tag_358\n      jumpi\n        /* \"#utility.yul\":18163:18181   */\n      tag_359\n      tag_122\n      jump\t// in\n    tag_359:\n        /* \"#utility.yul\":18127:18183   */\n    tag_358:\n        /* \"#utility.yul\":18207:18245   */\n      tag_360\n        /* \"#utility.yul\":18239:18243   */\n      dup3\n        /* \"#utility.yul\":18233:18244   */\n      sload\n        /* \"#utility.yul\":18207:18245   */\n      tag_151\n      jump\t// in\n    tag_360:\n        /* \"#utility.yul\":18292:18359   */\n      tag_361\n        /* \"#utility.yul\":18352:18358   */\n      dup3\n        /* \"#utility.yul\":18344:18350   */\n      dup3\n        /* \"#utility.yul\":18338:18342   */\n      dup6\n        /* \"#utility.yul\":18292:18359   */\n      tag_162\n      jump\t// in\n    tag_361:\n        /* \"#utility.yul\":18386:18387   */\n      0x00\n        /* \"#utility.yul\":18410:18414   */\n      0x20\n        /* \"#utility.yul\":18397:18414   */\n      swap1\n      pop\n        /* \"#utility.yul\":18442:18444   */\n      0x1f\n        /* \"#utility.yul\":18434:18440   */\n      dup4\n        /* \"#utility.yul\":18431:18445   */\n      gt\n        /* \"#utility.yul\":18459:18460   */\n      0x01\n        /* \"#utility.yul\":18454:19072   */\n      dup2\n      eq\n      tag_363\n      jumpi\n        /* \"#utility.yul\":19116:19117   */\n      0x00\n        /* \"#utility.yul\":19133:19139   */\n      dup5\n        /* \"#utility.yul\":19130:19207   */\n      iszero\n      tag_364\n      jumpi\n        /* \"#utility.yul\":19182:19191   */\n      dup3\n        /* \"#utility.yul\":19177:19180   */\n      dup8\n        /* \"#utility.yul\":19173:19192   */\n      add\n        /* \"#utility.yul\":19167:19193   */\n      mload\n        /* \"#utility.yul\":19158:19193   */\n      swap1\n      pop\n        /* \"#utility.yul\":19130:19207   */\n    tag_364:\n        /* \"#utility.yul\":19233:19300   */\n      tag_365\n        /* \"#utility.yul\":19293:19299   */\n      dup6\n        /* \"#utility.yul\":19286:19291   */\n      dup3\n        /* \"#utility.yul\":19233:19300   */\n      tag_165\n      jump\t// in\n    tag_365:\n        /* \"#utility.yul\":19227:19231   */\n      dup7\n        /* \"#utility.yul\":19220:19301   */\n      sstore\n        /* \"#utility.yul\":19089:19311   */\n      pop\n        /* \"#utility.yul\":18424:19311   */\n      jump(tag_362)\n        /* \"#utility.yul\":18454:19072   */\n    tag_363:\n        /* \"#utility.yul\":18506:18510   */\n      0x1f\n        /* \"#utility.yul\":18502:18511   */\n      not\n        /* \"#utility.yul\":18494:18500   */\n      dup5\n        /* \"#utility.yul\":18490:18512   */\n      and\n        /* \"#utility.yul\":18540:18577   */\n      tag_366\n        /* \"#utility.yul\":18572:18576   */\n      dup7\n        /* \"#utility.yul\":18540:18577   */\n      tag_152\n      jump\t// in\n    tag_366:\n        /* \"#utility.yul\":18599:18600   */\n      0x00\n        /* \"#utility.yul\":18613:18821   */\n    tag_367:\n        /* \"#utility.yul\":18627:18634   */\n      dup3\n        /* \"#utility.yul\":18624:18625   */\n      dup2\n        /* \"#utility.yul\":18621:18635   */\n      lt\n        /* \"#utility.yul\":18613:18821   */\n      iszero\n      tag_369\n      jumpi\n        /* \"#utility.yul\":18706:18715   */\n      dup5\n        /* \"#utility.yul\":18701:18704   */\n      dup10\n        /* \"#utility.yul\":18697:18716   */\n      add\n        /* \"#utility.yul\":18691:18717   */\n      mload\n        /* \"#utility.yul\":18683:18689   */\n      dup3\n        /* \"#utility.yul\":18676:18718   */\n      sstore\n        /* \"#utility.yul\":18757:18758   */\n      0x01\n        /* \"#utility.yul\":18749:18755   */\n      dup3\n        /* \"#utility.yul\":18745:18759   */\n      add\n        /* \"#utility.yul\":18735:18759   */\n      swap2\n      pop\n        /* \"#utility.yul\":18804:18806   */\n      0x20\n        /* \"#utility.yul\":18793:18802   */\n      dup6\n        /* \"#utility.yul\":18789:18807   */\n      add\n        /* \"#utility.yul\":18776:18807   */\n      swap5\n      pop\n        /* \"#utility.yul\":18650:18654   */\n      0x20\n        /* \"#utility.yul\":18647:18648   */\n      dup2\n        /* \"#utility.yul\":18643:18655   */\n      add\n        /* \"#utility.yul\":18638:18655   */\n      swap1\n      pop\n        /* \"#utility.yul\":18613:18821   */\n      jump(tag_367)\n    tag_369:\n        /* \"#utility.yul\":18849:18855   */\n      dup7\n        /* \"#utility.yul\":18840:18847   */\n      dup4\n        /* \"#utility.yul\":18837:18856   */\n      lt\n        /* \"#utility.yul\":18834:19013   */\n      iszero\n      tag_370\n      jumpi\n        /* \"#utility.yul\":18907:18916   */\n      dup5\n        /* \"#utility.yul\":18902:18905   */\n      dup10\n        /* \"#utility.yul\":18898:18917   */\n      add\n        /* \"#utility.yul\":18892:18918   */\n      mload\n        /* \"#utility.yul\":18950:18998   */\n      tag_371\n        /* \"#utility.yul\":18992:18996   */\n      0x1f\n        /* \"#utility.yul\":18984:18990   */\n      dup10\n        /* \"#utility.yul\":18980:18997   */\n      and\n        /* \"#utility.yul\":18969:18978   */\n      dup3\n        /* \"#utility.yul\":18950:18998   */\n      tag_164\n      jump\t// in\n    tag_371:\n        /* \"#utility.yul\":18942:18948   */\n      dup4\n        /* \"#utility.yul\":18935:18999   */\n      sstore\n        /* \"#utility.yul\":18857:19013   */\n      pop\n        /* \"#utility.yul\":18834:19013   */\n    tag_370:\n        /* \"#utility.yul\":19059:19060   */\n      0x01\n        /* \"#utility.yul\":19055:19056   */\n      0x02\n        /* \"#utility.yul\":19047:19053   */\n      dup9\n        /* \"#utility.yul\":19043:19057   */\n      mul\n        /* \"#utility.yul\":19039:19061   */\n      add\n        /* \"#utility.yul\":19033:19037   */\n      dup9\n        /* \"#utility.yul\":19026:19062   */\n      sstore\n        /* \"#utility.yul\":18461:19072   */\n      pop\n      pop\n      pop\n        /* \"#utility.yul\":18424:19311   */\n    tag_362:\n      pop\n        /* \"#utility.yul\":18014:19317   */\n      pop\n      pop\n      pop\n        /* \"#utility.yul\":17922:19317   */\n      pop\n      pop\n      jump\t// out\n        /* \"#utility.yul\":19323:19462   */\n    tag_166:\n        /* \"#utility.yul\":19412:19418   */\n      dup3\n        /* \"#utility.yul\":19407:19410   */\n      dup2\n        /* \"#utility.yul\":19402:19405   */\n      dup4\n        /* \"#utility.yul\":19396:19419   */\n      mcopy\n        /* \"#utility.yul\":19453:19454   */\n      0x00\n        /* \"#utility.yul\":19444:19450   */\n      dup4\n        /* \"#utility.yul\":19439:19442   */\n      dup4\n        /* \"#utility.yul\":19435:19451   */\n      add\n        /* \"#utility.yul\":19428:19455   */\n      mstore\n        /* \"#utility.yul\":19323:19462   */\n      pop\n      pop\n      pop\n      jump\t// out\n        /* \"#utility.yul\":19468:19845   */\n    tag_167:\n        /* \"#utility.yul\":19556:19559   */\n      0x00\n        /* \"#utility.yul\":19584:19623   */\n      tag_374\n        /* \"#utility.yul\":19617:19622   */\n      dup3\n        /* \"#utility.yul\":19584:19623   */\n      tag_149\n      jump\t// in\n    tag_374:\n        /* \"#utility.yul\":19639:19710   */\n      tag_375\n        /* \"#utility.yul\":19703:19709   */\n      dup2\n        /* \"#utility.yul\":19698:19701   */\n      dup6\n        /* \"#utility.yul\":19639:19710   */\n      tag_132\n      jump\t// in\n    tag_375:\n        /* \"#utility.yul\":19632:19710   */\n      swap4\n      pop\n        /* \"#utility.yul\":19719:19784   */\n      tag_376\n        /* \"#utility.yul\":19777:19783   */\n      dup2\n        /* \"#utility.yul\":19772:19775   */\n      dup6\n        /* \"#utility.yul\":19765:19769   */\n      0x20\n        /* \"#utility.yul\":19758:19763   */\n      dup7\n        /* \"#utility.yul\":19754:19770   */\n      add\n        /* \"#utility.yul\":19719:19784   */\n      tag_166\n      jump\t// in\n    tag_376:\n        /* \"#utility.yul\":19809:19838   */\n      tag_377\n        /* \"#utility.yul\":19831:19837   */\n      dup2\n        /* \"#utility.yul\":19809:19838   */\n      tag_121\n      jump\t// in\n    tag_377:\n        /* \"#utility.yul\":19804:19807   */\n      dup5\n        /* \"#utility.yul\":19800:19839   */\n      add\n        /* \"#utility.yul\":19793:19839   */\n      swap2\n      pop\n        /* \"#utility.yul\":19560:19845   */\n      pop\n        /* \"#utility.yul\":19468:19845   */\n      swap3\n      swap2\n      pop\n      pop\n      jump\t// out\n        /* \"#utility.yul\":19851:20274   */\n    tag_91:\n        /* \"#utility.yul\":19992:19996   */\n      0x00\n        /* \"#utility.yul\":20030:20032   */\n      0x40\n        /* \"#utility.yul\":20019:20028   */\n      dup3\n        /* \"#utility.yul\":20015:20033   */\n      add\n        /* \"#utility.yul\":20007:20033   */\n      swap1\n      pop\n        /* \"#utility.yul\":20079:20088   */\n      dup2\n        /* \"#utility.yul\":20073:20077   */\n      dup2\n        /* \"#utility.yul\":20069:20089   */\n      sub\n        /* \"#utility.yul\":20065:20066   */\n      0x00\n        /* \"#utility.yul\":20054:20063   */\n      dup4\n        /* \"#utility.yul\":20050:20067   */\n      add\n        /* \"#utility.yul\":20043:20090   */\n      mstore\n        /* \"#utility.yul\":20107:20185   */\n      tag_379\n        /* \"#utility.yul\":20180:20184   */\n      dup2\n        /* \"#utility.yul\":20171:20177   */\n      dup6\n        /* \"#utility.yul\":20107:20185   */\n      tag_167\n      jump\t// in\n    tag_379:\n        /* \"#utility.yul\":20099:20185   */\n      swap1\n      pop\n        /* \"#utility.yul\":20195:20267   */\n      tag_380\n        /* \"#utility.yul\":20263:20265   */\n      0x20\n        /* \"#utility.yul\":20252:20261   */\n      dup4\n        /* \"#utility.yul\":20248:20266   */\n      add\n        /* \"#utility.yul\":20239:20245   */\n      dup5\n        /* \"#utility.yul\":20195:20267   */\n      tag_138\n      jump\t// in\n    tag_380:\n        /* \"#utility.yul\":19851:20274   */\n      swap4\n      swap3\n      pop\n      pop\n      pop\n      jump\t// out\n        /* \"#utility.yul\":20280:20460   */\n    tag_168:\n        /* \"#utility.yul\":20328:20405   */\n      0x4e487b7100000000000000000000000000000000000000000000000000000000\n        /* \"#utility.yul\":20325:20326   */\n      0x00\n        /* \"#utility.yul\":20318:20406   */\n      mstore\n        /* \"#utility.yul\":20425:20429   */\n      0x12\n        /* \"#utility.yul\":20422:20423   */\n      0x04\n        /* \"#utility.yul\":20415:20430   */\n      mstore\n        /* \"#utility.yul\":20449:20453   */\n      0x24\n        /* \"#utility.yul\":20446:20447   */\n      0x00\n        /* \"#utility.yul\":20439:20454   */\n      revert\n        /* \"#utility.yul\":20466:20651   */\n    tag_95:\n        /* \"#utility.yul\":20506:20507   */\n      0x00\n        /* \"#utility.yul\":20523:20543   */\n      tag_383\n        /* \"#utility.yul\":20541:20542   */\n      dup3\n        /* \"#utility.yul\":20523:20543   */\n      tag_107\n      jump\t// in\n    tag_383:\n        /* \"#utility.yul\":20518:20543   */\n      swap2\n      pop\n        /* \"#utility.yul\":20557:20577   */\n      tag_384\n        /* \"#utility.yul\":20575:20576   */\n      dup4\n        /* \"#utility.yul\":20557:20577   */\n      tag_107\n      jump\t// in\n    tag_384:\n        /* \"#utility.yul\":20552:20577   */\n      swap3\n      pop\n        /* \"#utility.yul\":20596:20597   */\n      dup3\n        /* \"#utility.yul\":20586:20621   */\n      tag_385\n      jumpi\n        /* \"#utility.yul\":20601:20619   */\n      tag_386\n      tag_168\n      jump\t// in\n    tag_386:\n        /* \"#utility.yul\":20586:20621   */\n    tag_385:\n        /* \"#utility.yul\":20643:20644   */\n      dup3\n        /* \"#utility.yul\":20640:20641   */\n      dup3\n        /* \"#utility.yul\":20636:20645   */\n      div\n        /* \"#utility.yul\":20631:20645   */\n      swap1\n      pop\n        /* \"#utility.yul\":20466:20651   */\n      swap3\n      swap2\n      pop\n      pop\n      jump\t// out\n\n    auxdata: 0xa2646970667358221220c9a50f8a66f6042bf8405c826c3eb83bc9b51c86e6bf666e05bdf940bab2cfd364736f6c63430008190033\n}\n",
				"bytecode": {
					"linkReferences": {},
					"object": "608060405234801561000f575f80fd5b50604051611496380380611496833981810160405281019061003191906100e5565b805f806101000a81548173ffffffffffffffffffffffffffffffffffffffff021916908373ffffffffffffffffffffffffffffffffffffffff16021790555050610110565b5f80fd5b5f73ffffffffffffffffffffffffffffffffffffffff82169050919050565b5f6100a38261007a565b9050919050565b5f6100b482610099565b9050919050565b6100c4816100aa565b81146100ce575f80fd5b50565b5f815190506100df816100bb565b92915050565b5f602082840312156100fa576100f9610076565b5b5f610107848285016100d1565b91505092915050565b6113798061011d5f395ff3fe608060405234801561000f575f80fd5b506004361061004a575f3560e01c80630d61b5191461004e5780634914b0301461006a5780636a18ff7a146100885780636ac1e01f146100a4575b5f80fd5b610068600480360381019061006391906108c4565b6100c0565b005b6100726102f4565b60405161007f9190610969565b60405180910390f35b6100a2600480360381019061009d91906109b7565b610317565b005b6100be60048036038101906100b99190610b7e565b6106c1565b005b5f600182815481106100d5576100d4610bea565b5b905f5260205f2090600d0201905080600c015f9054906101000a900460ff1615610134576040517f08c379a000000000000000000000000000000000000000000000000000000000815260040161012b90610c71565b60405180910390fd5b8060060154421161017a576040517f08c379a000000000000000000000000000000000000000000000000000000000815260040161017190610cd9565b60405180910390fd5b600181600c015f6101000a81548160ff0219169083151502179055505f81600801548260070154119050816001015f9054906101000a900473ffffffffffffffffffffffffffffffffffffffff1673ffffffffffffffffffffffffffffffffffffffff16837fea42fc1bc80c08f17cdbd2e4325d69261c49516063bee8f0c22d152e270f786e838560070154866008015460405161021a93929190610d15565b60405180910390a380801561027e57505f73ffffffffffffffffffffffffffffffffffffffff16826004015f9054906101000a900473ffffffffffffffffffffffffffffffffffffffff1673ffffffffffffffffffffffffffffffffffffffff1614155b156102ef57816004015f9054906101000a900473ffffffffffffffffffffffffffffffffffffffff1673ffffffffffffffffffffffffffffffffffffffff166108fc836003015490811502906040515f60405180830381858888f193505050501580156102ed573d5f803e3d5ffd5b505b505050565b5f8054906101000a900473ffffffffffffffffffffffffffffffffffffffff1681565b6001838154811061032b5761032a610bea565b5b905f5260205f2090600d02016006015442111561037d576040517f08c379a000000000000000000000000000000000000000000000000000000000815260040161037490610d94565b60405180910390fd5b815f8054906101000a900473ffffffffffffffffffffffffffffffffffffffff1673ffffffffffffffffffffffffffffffffffffffff166370a08231336040518263ffffffff1660e01b81526004016103d69190610dd2565b602060405180830381865afa1580156103f1573d5f803e3d5ffd5b505050506040513d601f19601f820116820180604052508101906104159190610dff565b1015610456576040517f08c379a000000000000000000000000000000000000000000000000000000000815260040161044d90610e74565b60405180910390fd5b5f6001848154811061046b5761046a610bea565b5b905f5260205f2090600d02016009015f3373ffffffffffffffffffffffffffffffffffffffff1673ffffffffffffffffffffffffffffffffffffffff1681526020019081526020015f2054146104f6576040517f08c379a00000000000000000000000000000000000000000000000000000000081526004016104ed90610edc565b60405180910390fd5b5f8054906101000a900473ffffffffffffffffffffffffffffffffffffffff1673ffffffffffffffffffffffffffffffffffffffff166317be3fa533846040518363ffffffff1660e01b8152600401610550929190610efa565b5f604051808303815f87803b158015610567575f80fd5b505af1158015610579573d5f803e3d5ffd5b505050505f61058783610809565b9050806001858154811061059e5761059d610bea565b5b905f5260205f2090600d02016009015f3373ffffffffffffffffffffffffffffffffffffffff1673ffffffffffffffffffffffffffffffffffffffff1681526020019081526020015f2081905550811561063057806001858154811061060757610606610bea565b5b905f5260205f2090600d02016007015f8282546106249190610f4e565b9250508190555061066a565b806001858154811061064557610644610bea565b5b905f5260205f2090600d02016008015f8282546106629190610f4e565b925050819055505b3373ffffffffffffffffffffffffffffffffffffffff16847f9d8117cbfeb9ab2967ebd36e923514a9df1e89e1eec09c808230b61d1f25d85a84846040516106b3929190610f81565b60405180910390a350505050565b5f60018054905090505f6001808160018154018082558091505003905f5260205f2090600d0201905081815f018190555033816001015f6101000a81548173ffffffffffffffffffffffffffffffffffffffff021916908373ffffffffffffffffffffffffffffffffffffffff1602179055508481600201908161074591906111a3565b5083816003018190555082816004015f6101000a81548173ffffffffffffffffffffffffffffffffffffffff021916908373ffffffffffffffffffffffffffffffffffffffff1602179055504281600501819055506203f480426107a99190610f4e565b81600601819055503373ffffffffffffffffffffffffffffffffffffffff16827f6838db3c5996fec3de968e640e7dd8000add88d4b31235fa327d85cdb8ffce5c87876040516107fa9291906112b8565b60405180910390a35050505050565b5f600382111561086e578190505f60016002846108269190611313565b6108309190610f4e565b90505b8181101561086857809150600281828561084d9190611313565b6108579190610f4e565b6108619190611313565b9050610833565b5061087b565b5f821461087a57600190505b5b919050565b5f604051905090565b5f80fd5b5f80fd5b5f819050919050565b6108a381610891565b81146108ad575f80fd5b50565b5f813590506108be8161089a565b92915050565b5f602082840312156108d9576108d8610889565b5b5f6108e6848285016108b0565b91505092915050565b5f73ffffffffffffffffffffffffffffffffffffffff82169050919050565b5f819050919050565b5f61093161092c610927846108ef565b61090e565b6108ef565b9050919050565b5f61094282610917565b9050919050565b5f61095382610938565b9050919050565b61096381610949565b82525050565b5f60208201905061097c5f83018461095a565b92915050565b5f8115159050919050565b61099681610982565b81146109a0575f80fd5b50565b5f813590506109b18161098d565b92915050565b5f805f606084860312156109ce576109cd610889565b5b5f6109db868287016108b0565b93505060206109ec868287016108b0565b92505060406109fd868287016109a3565b9150509250925092565b5f80fd5b5f80fd5b5f601f19601f8301169050919050565b7f4e487b71000000000000000000000000000000000000000000000000000000005f52604160045260245ffd5b610a5582610a0f565b810181811067ffffffffffffffff82111715610a7457610a73610a1f565b5b80604052505050565b5f610a86610880565b9050610a928282610a4c565b919050565b5f67ffffffffffffffff821115610ab157610ab0610a1f565b5b610aba82610a0f565b9050602081019050919050565b828183375f83830152505050565b5f610ae7610ae284610a97565b610a7d565b905082815260208101848484011115610b0357610b02610a0b565b5b610b0e848285610ac7565b509392505050565b5f82601f830112610b2a57610b29610a07565b5b8135610b3a848260208601610ad5565b91505092915050565b5f610b4d826108ef565b9050919050565b610b5d81610b43565b8114610b67575f80fd5b50565b5f81359050610b7881610b54565b92915050565b5f805f60608486031215610b9557610b94610889565b5b5f84013567ffffffffffffffff811115610bb257610bb161088d565b5b610bbe86828701610b16565b9350506020610bcf868287016108b0565b9250506040610be086828701610b6a565b9150509250925092565b7f4e487b71000000000000000000000000000000000000000000000000000000005f52603260045260245ffd5b5f82825260208201905092915050565b7f50726f706f73616c20616c7265616479206578656375746564000000000000005f82015250565b5f610c5b601983610c17565b9150610c6682610c27565b602082019050919050565b5f6020820190508181035f830152610c8881610c4f565b9050919050565b7f566f74696e6720706572696f64206e6f742079657420656e64656400000000005f82015250565b5f610cc3601b83610c17565b9150610cce82610c8f565b602082019050919050565b5f6020820190508181035f830152610cf081610cb7565b9050919050565b610d0081610982565b82525050565b610d0f81610891565b82525050565b5f606082019050610d285f830186610cf7565b610d356020830185610d06565b610d426040830184610d06565b949350505050565b7f566f74696e6720706572696f642068617320656e6465640000000000000000005f82015250565b5f610d7e601783610c17565b9150610d8982610d4a565b602082019050919050565b5f6020820190508181035f830152610dab81610d72565b9050919050565b5f610dbc826108ef565b9050919050565b610dcc81610db2565b82525050565b5f602082019050610de55f830184610dc3565b92915050565b5f81519050610df98161089a565b92915050565b5f60208284031215610e1457610e13610889565b5b5f610e2184828501610deb565b91505092915050565b7f4e6f7420656e6f75676820746f6b656e730000000000000000000000000000005f82015250565b5f610e5e601183610c17565b9150610e6982610e2a565b602082019050919050565b5f6020820190508181035f830152610e8b81610e52565b9050919050565b7f416c726561647920766f746564000000000000000000000000000000000000005f82015250565b5f610ec6600d83610c17565b9150610ed182610e92565b602082019050919050565b5f6020820190508181035f830152610ef381610eba565b9050919050565b5f604082019050610f0d5f830185610dc3565b610f1a6020830184610d06565b9392505050565b7f4e487b71000000000000000000000000000000000000000000000000000000005f52601160045260245ffd5b5f610f5882610891565b9150610f6383610891565b9250828201905080821115610f7b57610f7a610f21565b5b92915050565b5f604082019050610f945f830185610cf7565b610fa16020830184610d06565b9392505050565b5f81519050919050565b7f4e487b71000000000000000000000000000000000000000000000000000000005f52602260045260245ffd5b5f6002820490506001821680610ff657607f821691505b60208210810361100957611008610fb2565b5b50919050565b5f819050815f5260205f209050919050565b5f6020601f8301049050919050565b5f82821b905092915050565b5f6008830261106b7fffffffffffffffffffffffffffffffffffffffffffffffffffffffffffffffff82611030565b6110758683611030565b95508019841693508086168417925050509392505050565b5f6110a76110a261109d84610891565b61090e565b610891565b9050919050565b5f819050919050565b6110c08361108d565b6110d46110cc826110ae565b84845461103c565b825550505050565b5f90565b6110e86110dc565b6110f38184846110b7565b505050565b5b818110156111165761110b5f826110e0565b6001810190506110f9565b5050565b601f82111561115b5761112c8161100f565b61113584611021565b81016020851015611144578190505b61115861115085611021565b8301826110f8565b50505b505050565b5f82821c905092915050565b5f61117b5f1984600802611160565b1980831691505092915050565b5f611193838361116c565b9150826002028217905092915050565b6111ac82610fa8565b67ffffffffffffffff8111156111c5576111c4610a1f565b5b6111cf8254610fdf565b6111da82828561111a565b5f60209050601f83116001811461120b575f84156111f9578287015190505b6112038582611188565b86555061126a565b601f1984166112198661100f565b5f5b828110156112405784890151825560018201915060208501945060208101905061121b565b8683101561125d5784890151611259601f89168261116c565b8355505b6001600288020188555050505b505050505050565b8281835e5f83830152505050565b5f61128a82610fa8565b6112948185610c17565b93506112a4818560208601611272565b6112ad81610a0f565b840191505092915050565b5f6040820190508181035f8301526112d08185611280565b90506112df6020830184610d06565b9392505050565b7f4e487b71000000000000000000000000000000000000000000000000000000005f52601260045260245ffd5b5f61131d82610891565b915061132883610891565b925082611338576113376112e6565b5b82820490509291505056fea2646970667358221220c9a50f8a66f6042bf8405c826c3eb83bc9b51c86e6bf666e05bdf940bab2cfd364736f6c63430008190033",
					"opcodes": "PUSH1 0x80 PUSH1 0x40 MSTORE CALLVALUE DUP1 ISZERO PUSH2 0xF JUMPI PUSH0 DUP1 REVERT JUMPDEST POP PUSH1 0x40 MLOAD PUSH2 0x1496 CODESIZE SUB DUP1 PUSH2 0x1496 DUP4 CODECOPY DUP2 DUP2 ADD PUSH1 0x40 MSTORE DUP2 ADD SWAP1 PUSH2 0x31 SWAP2 SWAP1 PUSH2 0xE5 JUMP JUMPDEST DUP1 PUSH0 DUP1 PUSH2 0x100 EXP DUP2 SLOAD DUP2 PUSH20 0xFFFFFFFFFFFFFFFFFFFFFFFFFFFFFFFFFFFFFFFF MUL NOT AND SWAP1 DUP4 PUSH20 0xFFFFFFFFFFFFFFFFFFFFFFFFFFFFFFFFFFFFFFFF AND MUL OR SWAP1 SSTORE POP POP PUSH2 0x110 JUMP JUMPDEST PUSH0 DUP1 REVERT JUMPDEST PUSH0 PUSH20 0xFFFFFFFFFFFFFFFFFFFFFFFFFFFFFFFFFFFFFFFF DUP3 AND SWAP1 POP SWAP2 SWAP1 POP JUMP JUMPDEST PUSH0 PUSH2 0xA3 DUP3 PUSH2 0x7A JUMP JUMPDEST SWAP1 POP SWAP2 SWAP1 POP JUMP JUMPDEST PUSH0 PUSH2 0xB4 DUP3 PUSH2 0x99 JUMP JUMPDEST SWAP1 POP SWAP2 SWAP1 POP JUMP JUMPDEST PUSH2 0xC4 DUP2 PUSH2 0xAA JUMP JUMPDEST DUP2 EQ PUSH2 0xCE JUMPI PUSH0 DUP1 REVERT JUMPDEST POP JUMP JUMPDEST PUSH0 DUP2 MLOAD SWAP1 POP PUSH2 0xDF DUP2 PUSH2 0xBB JUMP JUMPDEST SWAP3 SWAP2 POP POP JUMP JUMPDEST PUSH0 PUSH1 0x20 DUP3 DUP5 SUB SLT ISZERO PUSH2 0xFA JUMPI PUSH2 0xF9 PUSH2 0x76 JUMP JUMPDEST JUMPDEST PUSH0 PUSH2 0x107 DUP5 DUP3 DUP6 ADD PUSH2 0xD1 JUMP JUMPDEST SWAP2 POP POP SWAP3 SWAP2 POP POP JUMP JUMPDEST PUSH2 0x1379 DUP1 PUSH2 0x11D PUSH0 CODECOPY PUSH0 RETURN INVALID PUSH1 0x80 PUSH1 0x40 MSTORE CALLVALUE DUP1 ISZERO PUSH2 0xF JUMPI PUSH0 DUP1 REVERT JUMPDEST POP PUSH1 0x4 CALLDATASIZE LT PUSH2 0x4A JUMPI PUSH0 CALLDATALOAD PUSH1 0xE0 SHR DUP1 PUSH4 0xD61B519 EQ PUSH2 0x4E JUMPI DUP1 PUSH4 0x4914B030 EQ PUSH2 0x6A JUMPI DUP1 PUSH4 0x6A18FF7A EQ PUSH2 0x88 JUMPI DUP1 PUSH4 0x6AC1E01F EQ PUSH2 0xA4 JUMPI JUMPDEST PUSH0 DUP1 REVERT JUMPDEST PUSH2 0x68 PUSH1 0x4 DUP1 CALLDATASIZE SUB DUP2 ADD SWAP1 PUSH2 0x63 SWAP2 SWAP1 PUSH2 0x8C4 JUMP JUMPDEST PUSH2 0xC0 JUMP JUMPDEST STOP JUMPDEST PUSH2 0x72 PUSH2 0x2F4 JUMP JUMPDEST PUSH1 0x40 MLOAD PUSH2 0x7F SWAP2 SWAP1 PUSH2 0x969 JUMP JUMPDEST PUSH1 0x40 MLOAD DUP1 SWAP2 SUB SWAP1 RETURN JUMPDEST PUSH2 0xA2 PUSH1 0x4 DUP1 CALLDATASIZE SUB DUP2 ADD SWAP1 PUSH2 0x9D SWAP2 SWAP1 PUSH2 0x9B7 JUMP JUMPDEST PUSH2 0x317 JUMP JUMPDEST STOP JUMPDEST PUSH2 0xBE PUSH1 0x4 DUP1 CALLDATASIZE SUB DUP2 ADD SWAP1 PUSH2 0xB9 SWAP2 SWAP1 PUSH2 0xB7E JUMP JUMPDEST PUSH2 0x6C1 JUMP JUMPDEST STOP JUMPDEST PUSH0 PUSH1 0x1 DUP3 DUP2 SLOAD DUP2 LT PUSH2 0xD5 JUMPI PUSH2 0xD4 PUSH2 0xBEA JUMP JUMPDEST JUMPDEST SWAP1 PUSH0 MSTORE PUSH1 0x20 PUSH0 KECCAK256 SWAP1 PUSH1 0xD MUL ADD SWAP1 POP DUP1 PUSH1 0xC ADD PUSH0 SWAP1 SLOAD SWAP1 PUSH2 0x100 EXP SWAP1 DIV PUSH1 0xFF AND ISZERO PUSH2 0x134 JUMPI PUSH1 0x40 MLOAD PUSH32 0x8C379A000000000000000000000000000000000000000000000000000000000 DUP2 MSTORE PUSH1 0x4 ADD PUSH2 0x12B SWAP1 PUSH2 0xC71 JUMP JUMPDEST PUSH1 0x40 MLOAD DUP1 SWAP2 SUB SWAP1 REVERT JUMPDEST DUP1 PUSH1 0x6 ADD SLOAD TIMESTAMP GT PUSH2 0x17A JUMPI PUSH1 0x40 MLOAD PUSH32 0x8C379A000000000000000000000000000000000000000000000000000000000 DUP2 MSTORE PUSH1 0x4 ADD PUSH2 0x171 SWAP1 PUSH2 0xCD9 JUMP JUMPDEST PUSH1 0x40 MLOAD DUP1 SWAP2 SUB SWAP1 REVERT JUMPDEST PUSH1 0x1 DUP2 PUSH1 0xC ADD PUSH0 PUSH2 0x100 EXP DUP2 SLOAD DUP2 PUSH1 0xFF MUL NOT AND SWAP1 DUP4 ISZERO ISZERO MUL OR SWAP1 SSTORE POP PUSH0 DUP2 PUSH1 0x8 ADD SLOAD DUP3 PUSH1 0x7 ADD SLOAD GT SWAP1 POP DUP2 PUSH1 0x1 ADD PUSH0 SWAP1 SLOAD SWAP1 PUSH2 0x100 EXP SWAP1 DIV PUSH20 0xFFFFFFFFFFFFFFFFFFFFFFFFFFFFFFFFFFFFFFFF AND PUSH20 0xFFFFFFFFFFFFFFFFFFFFFFFFFFFFFFFFFFFFFFFF AND DUP4 PUSH32 0xEA42FC1BC80C08F17CDBD2E4325D69261C49516063BEE8F0C22D152E270F786E DUP4 DUP6 PUSH1 0x7 ADD SLOAD DUP7 PUSH1 0x8 ADD SLOAD PUSH1 0x40 MLOAD PUSH2 0x21A SWAP4 SWAP3 SWAP2 SWAP1 PUSH2 0xD15 JUMP JUMPDEST PUSH1 0x40 MLOAD DUP1 SWAP2 SUB SWAP1 LOG3 DUP1 DUP1 ISZERO PUSH2 0x27E JUMPI POP PUSH0 PUSH20 0xFFFFFFFFFFFFFFFFFFFFFFFFFFFFFFFFFFFFFFFF AND DUP3 PUSH1 0x4 ADD PUSH0 SWAP1 SLOAD SWAP1 PUSH2 0x100 EXP SWAP1 DIV PUSH20 0xFFFFFFFFFFFFFFFFFFFFFFFFFFFFFFFFFFFFFFFF AND PUSH20 0xFFFFFFFFFFFFFFFFFFFFFFFFFFFFFFFFFFFFFFFF AND EQ ISZERO JUMPDEST ISZERO PUSH2 0x2EF JUMPI DUP2 PUSH1 0x4 ADD PUSH0 SWAP1 SLOAD SWAP1 PUSH2 0x100 EXP SWAP1 DIV PUSH20 0xFFFFFFFFFFFFFFFFFFFFFFFFFFFFFFFFFFFFFFFF AND PUSH20 0xFFFFFFFFFFFFFFFFFFFFFFFFFFFFFFFFFFFFFFFF AND PUSH2 0x8FC DUP4 PUSH1 0x3 ADD SLOAD SWAP1 DUP2 ISZERO MUL SWAP1 PUSH1 0x40 MLOAD PUSH0 PUSH1 0x40 MLOAD DUP1 DUP4 SUB DUP2 DUP6 DUP9 DUP9 CALL SWAP4 POP POP POP POP ISZERO DUP1 ISZERO PUSH2 0x2ED JUMPI RETURNDATASIZE PUSH0 DUP1 RETURNDATACOPY RETURNDATASIZE PUSH0 REVERT JUMPDEST POP JUMPDEST POP POP POP JUMP JUMPDEST PUSH0 DUP1 SLOAD SWAP1 PUSH2 0x100 EXP SWAP1 DIV PUSH20 0xFFFFFFFFFFFFFFFFFFFFFFFFFFFFFFFFFFFFFFFF AND DUP2 JUMP JUMPDEST PUSH1 0x1 DUP4 DUP2 SLOAD DUP2 LT PUSH2 0x32B JUMPI PUSH2 0x32A PUSH2 0xBEA JUMP JUMPDEST JUMPDEST SWAP1 PUSH0 MSTORE PUSH1 0x20 PUSH0 KECCAK256 SWAP1 PUSH1 0xD MUL ADD PUSH1 0x6 ADD SLOAD TIMESTAMP GT ISZERO PUSH2 0x37D JUMPI PUSH1 0x40 MLOAD PUSH32 0x8C379A000000000000000000000000000000000000000000000000000000000 DUP2 MSTORE PUSH1 0x4 ADD PUSH2 0x374 SWAP1 PUSH2 0xD94 JUMP JUMPDEST PUSH1 0x40 MLOAD DUP1 SWAP2 SUB SWAP1 REVERT JUMPDEST DUP2 PUSH0 DUP1 SLOAD SWAP1 PUSH2 0x100 EXP SWAP1 DIV PUSH20 0xFFFFFFFFFFFFFFFFFFFFFFFFFFFFFFFFFFFFFFFF AND PUSH20 0xFFFFFFFFFFFFFFFFFFFFFFFFFFFFFFFFFFFFFFFF AND PUSH4 0x70A08231 CALLER PUSH1 0x40 MLOAD DUP3 PUSH4 0xFFFFFFFF AND PUSH1 0xE0 SHL DUP2 MSTORE PUSH1 0x4 ADD PUSH2 0x3D6 SWAP2 SWAP1 PUSH2 0xDD2 JUMP JUMPDEST PUSH1 0x20 PUSH1 0x40 MLOAD DUP1 DUP4 SUB DUP2 DUP7 GAS STATICCALL ISZERO DUP1 ISZERO PUSH2 0x3F1 JUMPI RETURNDATASIZE PUSH0 DUP1 RETURNDATACOPY RETURNDATASIZE PUSH0 REVERT JUMPDEST POP POP POP POP PUSH1 0x40 MLOAD RETURNDATASIZE PUSH1 0x1F NOT PUSH1 0x1F DUP3 ADD AND DUP3 ADD DUP1 PUSH1 0x40 MSTORE POP DUP2 ADD SWAP1 PUSH2 0x415 SWAP2 SWAP1 PUSH2 0xDFF JUMP JUMPDEST LT ISZERO PUSH2 0x456 JUMPI PUSH1 0x40 MLOAD PUSH32 0x8C379A000000000000000000000000000000000000000000000000000000000 DUP2 MSTORE PUSH1 0x4 ADD PUSH2 0x44D SWAP1 PUSH2 0xE74 JUMP JUMPDEST PUSH1 0x40 MLOAD DUP1 SWAP2 SUB SWAP1 REVERT JUMPDEST PUSH0 PUSH1 0x1 DUP5 DUP2 SLOAD DUP2 LT PUSH2 0x46B JUMPI PUSH2 0x46A PUSH2 0xBEA JUMP JUMPDEST JUMPDEST SWAP1 PUSH0 MSTORE PUSH1 0x20 PUSH0 KECCAK256 SWAP1 PUSH1 0xD MUL ADD PUSH1 0x9 ADD PUSH0 CALLER PUSH20 0xFFFFFFFFFFFFFFFFFFFFFFFFFFFFFFFFFFFFFFFF AND PUSH20 0xFFFFFFFFFFFFFFFFFFFFFFFFFFFFFFFFFFFFFFFF AND DUP2 MSTORE PUSH1 0x20 ADD SWAP1 DUP2 MSTORE PUSH1 0x20 ADD PUSH0 KECCAK256 SLOAD EQ PUSH2 0x4F6 JUMPI PUSH1 0x40 MLOAD PUSH32 0x8C379A000000000000000000000000000000000000000000000000000000000 DUP2 MSTORE PUSH1 0x4 ADD PUSH2 0x4ED SWAP1 PUSH2 0xEDC JUMP JUMPDEST PUSH1 0x40 MLOAD DUP1 SWAP2 SUB SWAP1 REVERT JUMPDEST PUSH0 DUP1 SLOAD SWAP1 PUSH2 0x100 EXP SWAP1 DIV PUSH20 0xFFFFFFFFFFFFFFFFFFFFFFFFFFFFFFFFFFFFFFFF AND PUSH20 0xFFFFFFFFFFFFFFFFFFFFFFFFFFFFFFFFFFFFFFFF AND PUSH4 0x17BE3FA5 CALLER DUP5 PUSH1 0x40 MLOAD DUP4 PUSH4 0xFFFFFFFF AND PUSH1 0xE0 SHL DUP2 MSTORE PUSH1 0x4 ADD PUSH2 0x550 SWAP3 SWAP2 SWAP1 PUSH2 0xEFA JUMP JUMPDEST PUSH0 PUSH1 0x40 MLOAD DUP1 DUP4 SUB DUP2 PUSH0 DUP8 DUP1 EXTCODESIZE ISZERO DUP1 ISZERO PUSH2 0x567 JUMPI PUSH0 DUP1 REVERT JUMPDEST POP GAS CALL ISZERO DUP1 ISZERO PUSH2 0x579 JUMPI RETURNDATASIZE PUSH0 DUP1 RETURNDATACOPY RETURNDATASIZE PUSH0 REVERT JUMPDEST POP POP POP POP PUSH0 PUSH2 0x587 DUP4 PUSH2 0x809 JUMP JUMPDEST SWAP1 POP DUP1 PUSH1 0x1 DUP6 DUP2 SLOAD DUP2 LT PUSH2 0x59E JUMPI PUSH2 0x59D PUSH2 0xBEA JUMP JUMPDEST JUMPDEST SWAP1 PUSH0 MSTORE PUSH1 0x20 PUSH0 KECCAK256 SWAP1 PUSH1 0xD MUL ADD PUSH1 0x9 ADD PUSH0 CALLER PUSH20 0xFFFFFFFFFFFFFFFFFFFFFFFFFFFFFFFFFFFFFFFF AND PUSH20 0xFFFFFFFFFFFFFFFFFFFFFFFFFFFFFFFFFFFFFFFF AND DUP2 MSTORE PUSH1 0x20 ADD SWAP1 DUP2 MSTORE PUSH1 0x20 ADD PUSH0 KECCAK256 DUP2 SWAP1 SSTORE POP DUP2 ISZERO PUSH2 0x630 JUMPI DUP1 PUSH1 0x1 DUP6 DUP2 SLOAD DUP2 LT PUSH2 0x607 JUMPI PUSH2 0x606 PUSH2 0xBEA JUMP JUMPDEST JUMPDEST SWAP1 PUSH0 MSTORE PUSH1 0x20 PUSH0 KECCAK256 SWAP1 PUSH1 0xD MUL ADD PUSH1 0x7 ADD PUSH0 DUP3 DUP3 SLOAD PUSH2 0x624 SWAP2 SWAP1 PUSH2 0xF4E JUMP JUMPDEST SWAP3 POP POP DUP2 SWAP1 SSTORE POP PUSH2 0x66A JUMP JUMPDEST DUP1 PUSH1 0x1 DUP6 DUP2 SLOAD DUP2 LT PUSH2 0x645 JUMPI PUSH2 0x644 PUSH2 0xBEA JUMP JUMPDEST JUMPDEST SWAP1 PUSH0 MSTORE PUSH1 0x20 PUSH0 KECCAK256 SWAP1 PUSH1 0xD MUL ADD PUSH1 0x8 ADD PUSH0 DUP3 DUP3 SLOAD PUSH2 0x662 SWAP2 SWAP1 PUSH2 0xF4E JUMP JUMPDEST SWAP3 POP POP DUP2 SWAP1 SSTORE POP JUMPDEST CALLER PUSH20 0xFFFFFFFFFFFFFFFFFFFFFFFFFFFFFFFFFFFFFFFF AND DUP5 PUSH32 0x9D8117CBFEB9AB2967EBD36E923514A9DF1E89E1EEC09C808230B61D1F25D85A DUP5 DUP5 PUSH1 0x40 MLOAD PUSH2 0x6B3 SWAP3 SWAP2 SWAP1 PUSH2 0xF81 JUMP JUMPDEST PUSH1 0x40 MLOAD DUP1 SWAP2 SUB SWAP1 LOG3 POP POP POP POP JUMP JUMPDEST PUSH0 PUSH1 0x1 DUP1 SLOAD SWAP1 POP SWAP1 POP PUSH0 PUSH1 0x1 DUP1 DUP2 PUSH1 0x1 DUP2 SLOAD ADD DUP1 DUP3 SSTORE DUP1 SWAP2 POP POP SUB SWAP1 PUSH0 MSTORE PUSH1 0x20 PUSH0 KECCAK256 SWAP1 PUSH1 0xD MUL ADD SWAP1 POP DUP2 DUP2 PUSH0 ADD DUP2 SWAP1 SSTORE POP CALLER DUP2 PUSH1 0x1 ADD PUSH0 PUSH2 0x100 EXP DUP2 SLOAD DUP2 PUSH20 0xFFFFFFFFFFFFFFFFFFFFFFFFFFFFFFFFFFFFFFFF MUL NOT AND SWAP1 DUP4 PUSH20 0xFFFFFFFFFFFFFFFFFFFFFFFFFFFFFFFFFFFFFFFF AND MUL OR SWAP1 SSTORE POP DUP5 DUP2 PUSH1 0x2 ADD SWAP1 DUP2 PUSH2 0x745 SWAP2 SWAP1 PUSH2 0x11A3 JUMP JUMPDEST POP DUP4 DUP2 PUSH1 0x3 ADD DUP2 SWAP1 SSTORE POP DUP3 DUP2 PUSH1 0x4 ADD PUSH0 PUSH2 0x100 EXP DUP2 SLOAD DUP2 PUSH20 0xFFFFFFFFFFFFFFFFFFFFFFFFFFFFFFFFFFFFFFFF MUL NOT AND SWAP1 DUP4 PUSH20 0xFFFFFFFFFFFFFFFFFFFFFFFFFFFFFFFFFFFFFFFF AND MUL OR SWAP1 SSTORE POP TIMESTAMP DUP2 PUSH1 0x5 ADD DUP2 SWAP1 SSTORE POP PUSH3 0x3F480 TIMESTAMP PUSH2 0x7A9 SWAP2 SWAP1 PUSH2 0xF4E JUMP JUMPDEST DUP2 PUSH1 0x6 ADD DUP2 SWAP1 SSTORE POP CALLER PUSH20 0xFFFFFFFFFFFFFFFFFFFFFFFFFFFFFFFFFFFFFFFF AND DUP3 PUSH32 0x6838DB3C5996FEC3DE968E640E7DD8000ADD88D4B31235FA327D85CDB8FFCE5C DUP8 DUP8 PUSH1 0x40 MLOAD PUSH2 0x7FA SWAP3 SWAP2 SWAP1 PUSH2 0x12B8 JUMP JUMPDEST PUSH1 0x40 MLOAD DUP1 SWAP2 SUB SWAP1 LOG3 POP POP POP POP POP JUMP JUMPDEST PUSH0 PUSH1 0x3 DUP3 GT ISZERO PUSH2 0x86E JUMPI DUP2 SWAP1 POP PUSH0 PUSH1 0x1 PUSH1 0x2 DUP5 PUSH2 0x826 SWAP2 SWAP1 PUSH2 0x1313 JUMP JUMPDEST PUSH2 0x830 SWAP2 SWAP1 PUSH2 0xF4E JUMP JUMPDEST SWAP1 POP JUMPDEST DUP2 DUP2 LT ISZERO PUSH2 0x868 JUMPI DUP1 SWAP2 POP PUSH1 0x2 DUP2 DUP3 DUP6 PUSH2 0x84D SWAP2 SWAP1 PUSH2 0x1313 JUMP JUMPDEST PUSH2 0x857 SWAP2 SWAP1 PUSH2 0xF4E JUMP JUMPDEST PUSH2 0x861 SWAP2 SWAP1 PUSH2 0x1313 JUMP JUMPDEST SWAP1 POP PUSH2 0x833 JUMP JUMPDEST POP PUSH2 0x87B JUMP JUMPDEST PUSH0 DUP3 EQ PUSH2 0x87A JUMPI PUSH1 0x1 SWAP1 POP JUMPDEST JUMPDEST SWAP2 SWAP1 POP JUMP JUMPDEST PUSH0 PUSH1 0x40 MLOAD SWAP1 POP SWAP1 JUMP JUMPDEST PUSH0 DUP1 REVERT JUMPDEST PUSH0 DUP1 REVERT JUMPDEST PUSH0 DUP2 SWAP1 POP SWAP2 SWAP1 POP JUMP JUMPDEST PUSH2 0x8A3 DUP2 PUSH2 0x891 JUMP JUMPDEST DUP2 EQ PUSH2 0x8AD JUMPI PUSH0 DUP1 REVERT JUMPDEST POP JUMP JUMPDEST PUSH0 DUP2 CALLDATALOAD SWAP1 POP PUSH2 0x8BE DUP2 PUSH2 0x89A JUMP JUMPDEST SWAP3 SWAP2 POP POP JUMP JUMPDEST PUSH0 PUSH1 0x20 DUP3 DUP5 SUB SLT ISZERO PUSH2 0x8D9 JUMPI PUSH2 0x8D8 PUSH2 0x889 JUMP JUMPDEST JUMPDEST PUSH0 PUSH2 0x8E6 DUP5 DUP3 DUP6 ADD PUSH2 0x8B0 JUMP JUMPDEST SWAP2 POP POP SWAP3 SWAP2 POP POP JUMP JUMPDEST PUSH0 PUSH20 0xFFFFFFFFFFFFFFFFFFFFFFFFFFFFFFFFFFFFFFFF DUP3 AND SWAP1 POP SWAP2 SWAP1 POP JUMP JUMPDEST PUSH0 DUP2 SWAP1 POP SWAP2 SWAP1 POP JUMP JUMPDEST PUSH0 PUSH2 0x931 PUSH2 0x92C PUSH2 0x927 DUP5 PUSH2 0x8EF JUMP JUMPDEST PUSH2 0x90E JUMP JUMPDEST PUSH2 0x8EF JUMP JUMPDEST SWAP1 POP SWAP2 SWAP1 POP JUMP JUMPDEST PUSH0 PUSH2 0x942 DUP3 PUSH2 0x917 JUMP JUMPDEST SWAP1 POP SWAP2 SWAP1 POP JUMP JUMPDEST PUSH0 PUSH2 0x953 DUP3 PUSH2 0x938 JUMP JUMPDEST SWAP1 POP SWAP2 SWAP1 POP JUMP JUMPDEST PUSH2 0x963 DUP2 PUSH2 0x949 JUMP JUMPDEST DUP3 MSTORE POP POP JUMP JUMPDEST PUSH0 PUSH1 0x20 DUP3 ADD SWAP1 POP PUSH2 0x97C PUSH0 DUP4 ADD DUP5 PUSH2 0x95A JUMP JUMPDEST SWAP3 SWAP2 POP POP JUMP JUMPDEST PUSH0 DUP2 ISZERO ISZERO SWAP1 POP SWAP2 SWAP1 POP JUMP JUMPDEST PUSH2 0x996 DUP2 PUSH2 0x982 JUMP JUMPDEST DUP2 EQ PUSH2 0x9A0 JUMPI PUSH0 DUP1 REVERT JUMPDEST POP JUMP JUMPDEST PUSH0 DUP2 CALLDATALOAD SWAP1 POP PUSH2 0x9B1 DUP2 PUSH2 0x98D JUMP JUMPDEST SWAP3 SWAP2 POP POP JUMP JUMPDEST PUSH0 DUP1 PUSH0 PUSH1 0x60 DUP5 DUP7 SUB SLT ISZERO PUSH2 0x9CE JUMPI PUSH2 0x9CD PUSH2 0x889 JUMP JUMPDEST JUMPDEST PUSH0 PUSH2 0x9DB DUP7 DUP3 DUP8 ADD PUSH2 0x8B0 JUMP JUMPDEST SWAP4 POP POP PUSH1 0x20 PUSH2 0x9EC DUP7 DUP3 DUP8 ADD PUSH2 0x8B0 JUMP JUMPDEST SWAP3 POP POP PUSH1 0x40 PUSH2 0x9FD DUP7 DUP3 DUP8 ADD PUSH2 0x9A3 JUMP JUMPDEST SWAP2 POP POP SWAP3 POP SWAP3 POP SWAP3 JUMP JUMPDEST PUSH0 DUP1 REVERT JUMPDEST PUSH0 DUP1 REVERT JUMPDEST PUSH0 PUSH1 0x1F NOT PUSH1 0x1F DUP4 ADD AND SWAP1 POP SWAP2 SWAP1 POP JUMP JUMPDEST PUSH32 0x4E487B7100000000000000000000000000000000000000000000000000000000 PUSH0 MSTORE PUSH1 0x41 PUSH1 0x4 MSTORE PUSH1 0x24 PUSH0 REVERT JUMPDEST PUSH2 0xA55 DUP3 PUSH2 0xA0F JUMP JUMPDEST DUP2 ADD DUP2 DUP2 LT PUSH8 0xFFFFFFFFFFFFFFFF DUP3 GT OR ISZERO PUSH2 0xA74 JUMPI PUSH2 0xA73 PUSH2 0xA1F JUMP JUMPDEST JUMPDEST DUP1 PUSH1 0x40 MSTORE POP POP POP JUMP JUMPDEST PUSH0 PUSH2 0xA86 PUSH2 0x880 JUMP JUMPDEST SWAP1 POP PUSH2 0xA92 DUP3 DUP3 PUSH2 0xA4C JUMP JUMPDEST SWAP2 SWAP1 POP JUMP JUMPDEST PUSH0 PUSH8 0xFFFFFFFFFFFFFFFF DUP3 GT ISZERO PUSH2 0xAB1 JUMPI PUSH2 0xAB0 PUSH2 0xA1F JUMP JUMPDEST JUMPDEST PUSH2 0xABA DUP3 PUSH2 0xA0F JUMP JUMPDEST SWAP1 POP PUSH1 0x20 DUP2 ADD SWAP1 POP SWAP2 SWAP1 POP JUMP JUMPDEST DUP3 DUP2 DUP4 CALLDATACOPY PUSH0 DUP4 DUP4 ADD MSTORE POP POP POP JUMP JUMPDEST PUSH0 PUSH2 0xAE7 PUSH2 0xAE2 DUP5 PUSH2 0xA97 JUMP JUMPDEST PUSH2 0xA7D JUMP JUMPDEST SWAP1 POP DUP3 DUP2 MSTORE PUSH1 0x20 DUP2 ADD DUP5 DUP5 DUP5 ADD GT ISZERO PUSH2 0xB03 JUMPI PUSH2 0xB02 PUSH2 0xA0B JUMP JUMPDEST JUMPDEST PUSH2 0xB0E DUP5 DUP3 DUP6 PUSH2 0xAC7 JUMP JUMPDEST POP SWAP4 SWAP3 POP POP POP JUMP JUMPDEST PUSH0 DUP3 PUSH1 0x1F DUP4 ADD SLT PUSH2 0xB2A JUMPI PUSH2 0xB29 PUSH2 0xA07 JUMP JUMPDEST JUMPDEST DUP2 CALLDATALOAD PUSH2 0xB3A DUP5 DUP3 PUSH1 0x20 DUP7 ADD PUSH2 0xAD5 JUMP JUMPDEST SWAP2 POP POP SWAP3 SWAP2 POP POP JUMP JUMPDEST PUSH0 PUSH2 0xB4D DUP3 PUSH2 0x8EF JUMP JUMPDEST SWAP1 POP SWAP2 SWAP1 POP JUMP JUMPDEST PUSH2 0xB5D DUP2 PUSH2 0xB43 JUMP JUMPDEST DUP2 EQ PUSH2 0xB67 JUMPI PUSH0 DUP1 REVERT JUMPDEST POP JUMP JUMPDEST PUSH0 DUP2 CALLDATALOAD SWAP1 POP PUSH2 0xB78 DUP2 PUSH2 0xB54 JUMP JUMPDEST SWAP3 SWAP2 POP POP JUMP JUMPDEST PUSH0 DUP1 PUSH0 PUSH1 0x60 DUP5 DUP7 SUB SLT ISZERO PUSH2 0xB95 JUMPI PUSH2 0xB94 PUSH2 0x889 JUMP JUMPDEST JUMPDEST PUSH0 DUP5 ADD CALLDATALOAD PUSH8 0xFFFFFFFFFFFFFFFF DUP2 GT ISZERO PUSH2 0xBB2 JUMPI PUSH2 0xBB1 PUSH2 0x88D JUMP JUMPDEST JUMPDEST PUSH2 0xBBE DUP7 DUP3 DUP8 ADD PUSH2 0xB16 JUMP JUMPDEST SWAP4 POP POP PUSH1 0x20 PUSH2 0xBCF DUP7 DUP3 DUP8 ADD PUSH2 0x8B0 JUMP JUMPDEST SWAP3 POP POP PUSH1 0x40 PUSH2 0xBE0 DUP7 DUP3 DUP8 ADD PUSH2 0xB6A JUMP JUMPDEST SWAP2 POP POP SWAP3 POP SWAP3 POP SWAP3 JUMP JUMPDEST PUSH32 0x4E487B7100000000000000000000000000000000000000000000000000000000 PUSH0 MSTORE PUSH1 0x32 PUSH1 0x4 MSTORE PUSH1 0x24 PUSH0 REVERT JUMPDEST PUSH0 DUP3 DUP3 MSTORE PUSH1 0x20 DUP3 ADD SWAP1 POP SWAP3 SWAP2 POP POP JUMP JUMPDEST PUSH32 0x50726F706F73616C20616C726561647920657865637574656400000000000000 PUSH0 DUP3 ADD MSTORE POP JUMP JUMPDEST PUSH0 PUSH2 0xC5B PUSH1 0x19 DUP4 PUSH2 0xC17 JUMP JUMPDEST SWAP2 POP PUSH2 0xC66 DUP3 PUSH2 0xC27 JUMP JUMPDEST PUSH1 0x20 DUP3 ADD SWAP1 POP SWAP2 SWAP1 POP JUMP JUMPDEST PUSH0 PUSH1 0x20 DUP3 ADD SWAP1 POP DUP2 DUP2 SUB PUSH0 DUP4 ADD MSTORE PUSH2 0xC88 DUP2 PUSH2 0xC4F JUMP JUMPDEST SWAP1 POP SWAP2 SWAP1 POP JUMP JUMPDEST PUSH32 0x566F74696E6720706572696F64206E6F742079657420656E6465640000000000 PUSH0 DUP3 ADD MSTORE POP JUMP JUMPDEST PUSH0 PUSH2 0xCC3 PUSH1 0x1B DUP4 PUSH2 0xC17 JUMP JUMPDEST SWAP2 POP PUSH2 0xCCE DUP3 PUSH2 0xC8F JUMP JUMPDEST PUSH1 0x20 DUP3 ADD SWAP1 POP SWAP2 SWAP1 POP JUMP JUMPDEST PUSH0 PUSH1 0x20 DUP3 ADD SWAP1 POP DUP2 DUP2 SUB PUSH0 DUP4 ADD MSTORE PUSH2 0xCF0 DUP2 PUSH2 0xCB7 JUMP JUMPDEST SWAP1 POP SWAP2 SWAP1 POP JUMP JUMPDEST PUSH2 0xD00 DUP2 PUSH2 0x982 JUMP JUMPDEST DUP3 MSTORE POP POP JUMP JUMPDEST PUSH2 0xD0F DUP2 PUSH2 0x891 JUMP JUMPDEST DUP3 MSTORE POP POP JUMP JUMPDEST PUSH0 PUSH1 0x60 DUP3 ADD SWAP1 POP PUSH2 0xD28 PUSH0 DUP4 ADD DUP7 PUSH2 0xCF7 JUMP JUMPDEST PUSH2 0xD35 PUSH1 0x20 DUP4 ADD DUP6 PUSH2 0xD06 JUMP JUMPDEST PUSH2 0xD42 PUSH1 0x40 DUP4 ADD DUP5 PUSH2 0xD06 JUMP JUMPDEST SWAP5 SWAP4 POP POP POP POP JUMP JUMPDEST PUSH32 0x566F74696E6720706572696F642068617320656E646564000000000000000000 PUSH0 DUP3 ADD MSTORE POP JUMP JUMPDEST PUSH0 PUSH2 0xD7E PUSH1 0x17 DUP4 PUSH2 0xC17 JUMP JUMPDEST SWAP2 POP PUSH2 0xD89 DUP3 PUSH2 0xD4A JUMP JUMPDEST PUSH1 0x20 DUP3 ADD SWAP1 POP SWAP2 SWAP1 POP JUMP JUMPDEST PUSH0 PUSH1 0x20 DUP3 ADD SWAP1 POP DUP2 DUP2 SUB PUSH0 DUP4 ADD MSTORE PUSH2 0xDAB DUP2 PUSH2 0xD72 JUMP JUMPDEST SWAP1 POP SWAP2 SWAP1 POP JUMP JUMPDEST PUSH0 PUSH2 0xDBC DUP3 PUSH2 0x8EF JUMP JUMPDEST SWAP1 POP SWAP2 SWAP1 POP JUMP JUMPDEST PUSH2 0xDCC DUP2 PUSH2 0xDB2 JUMP JUMPDEST DUP3 MSTORE POP POP JUMP JUMPDEST PUSH0 PUSH1 0x20 DUP3 ADD SWAP1 POP PUSH2 0xDE5 PUSH0 DUP4 ADD DUP5 PUSH2 0xDC3 JUMP JUMPDEST SWAP3 SWAP2 POP POP JUMP JUMPDEST PUSH0 DUP2 MLOAD SWAP1 POP PUSH2 0xDF9 DUP2 PUSH2 0x89A JUMP JUMPDEST SWAP3 SWAP2 POP POP JUMP JUMPDEST PUSH0 PUSH1 0x20 DUP3 DUP5 SUB SLT ISZERO PUSH2 0xE14 JUMPI PUSH2 0xE13 PUSH2 0x889 JUMP JUMPDEST JUMPDEST PUSH0 PUSH2 0xE21 DUP5 DUP3 DUP6 ADD PUSH2 0xDEB JUMP JUMPDEST SWAP2 POP POP SWAP3 SWAP2 POP POP JUMP JUMPDEST PUSH32 0x4E6F7420656E6F75676820746F6B656E73000000000000000000000000000000 PUSH0 DUP3 ADD MSTORE POP JUMP JUMPDEST PUSH0 PUSH2 0xE5E PUSH1 0x11 DUP4 PUSH2 0xC17 JUMP JUMPDEST SWAP2 POP PUSH2 0xE69 DUP3 PUSH2 0xE2A JUMP JUMPDEST PUSH1 0x20 DUP3 ADD SWAP1 POP SWAP2 SWAP1 POP JUMP JUMPDEST PUSH0 PUSH1 0x20 DUP3 ADD SWAP1 POP DUP2 DUP2 SUB PUSH0 DUP4 ADD MSTORE PUSH2 0xE8B DUP2 PUSH2 0xE52 JUMP JUMPDEST SWAP1 POP SWAP2 SWAP1 POP JUMP JUMPDEST PUSH32 0x416C726561647920766F74656400000000000000000000000000000000000000 PUSH0 DUP3 ADD MSTORE POP JUMP JUMPDEST PUSH0 PUSH2 0xEC6 PUSH1 0xD DUP4 PUSH2 0xC17 JUMP JUMPDEST SWAP2 POP PUSH2 0xED1 DUP3 PUSH2 0xE92 JUMP JUMPDEST PUSH1 0x20 DUP3 ADD SWAP1 POP SWAP2 SWAP1 POP JUMP JUMPDEST PUSH0 PUSH1 0x20 DUP3 ADD SWAP1 POP DUP2 DUP2 SUB PUSH0 DUP4 ADD MSTORE PUSH2 0xEF3 DUP2 PUSH2 0xEBA JUMP JUMPDEST SWAP1 POP SWAP2 SWAP1 POP JUMP JUMPDEST PUSH0 PUSH1 0x40 DUP3 ADD SWAP1 POP PUSH2 0xF0D PUSH0 DUP4 ADD DUP6 PUSH2 0xDC3 JUMP JUMPDEST PUSH2 0xF1A PUSH1 0x20 DUP4 ADD DUP5 PUSH2 0xD06 JUMP JUMPDEST SWAP4 SWAP3 POP POP POP JUMP JUMPDEST PUSH32 0x4E487B7100000000000000000000000000000000000000000000000000000000 PUSH0 MSTORE PUSH1 0x11 PUSH1 0x4 MSTORE PUSH1 0x24 PUSH0 REVERT JUMPDEST PUSH0 PUSH2 0xF58 DUP3 PUSH2 0x891 JUMP JUMPDEST SWAP2 POP PUSH2 0xF63 DUP4 PUSH2 0x891 JUMP JUMPDEST SWAP3 POP DUP3 DUP3 ADD SWAP1 POP DUP1 DUP3 GT ISZERO PUSH2 0xF7B JUMPI PUSH2 0xF7A PUSH2 0xF21 JUMP JUMPDEST JUMPDEST SWAP3 SWAP2 POP POP JUMP JUMPDEST PUSH0 PUSH1 0x40 DUP3 ADD SWAP1 POP PUSH2 0xF94 PUSH0 DUP4 ADD DUP6 PUSH2 0xCF7 JUMP JUMPDEST PUSH2 0xFA1 PUSH1 0x20 DUP4 ADD DUP5 PUSH2 0xD06 JUMP JUMPDEST SWAP4 SWAP3 POP POP POP JUMP JUMPDEST PUSH0 DUP2 MLOAD SWAP1 POP SWAP2 SWAP1 POP JUMP JUMPDEST PUSH32 0x4E487B7100000000000000000000000000000000000000000000000000000000 PUSH0 MSTORE PUSH1 0x22 PUSH1 0x4 MSTORE PUSH1 0x24 PUSH0 REVERT JUMPDEST PUSH0 PUSH1 0x2 DUP3 DIV SWAP1 POP PUSH1 0x1 DUP3 AND DUP1 PUSH2 0xFF6 JUMPI PUSH1 0x7F DUP3 AND SWAP2 POP JUMPDEST PUSH1 0x20 DUP3 LT DUP2 SUB PUSH2 0x1009 JUMPI PUSH2 0x1008 PUSH2 0xFB2 JUMP JUMPDEST JUMPDEST POP SWAP2 SWAP1 POP JUMP JUMPDEST PUSH0 DUP2 SWAP1 POP DUP2 PUSH0 MSTORE PUSH1 0x20 PUSH0 KECCAK256 SWAP1 POP SWAP2 SWAP1 POP JUMP JUMPDEST PUSH0 PUSH1 0x20 PUSH1 0x1F DUP4 ADD DIV SWAP1 POP SWAP2 SWAP1 POP JUMP JUMPDEST PUSH0 DUP3 DUP3 SHL SWAP1 POP SWAP3 SWAP2 POP POP JUMP JUMPDEST PUSH0 PUSH1 0x8 DUP4 MUL PUSH2 0x106B PUSH32 0xFFFFFFFFFFFFFFFFFFFFFFFFFFFFFFFFFFFFFFFFFFFFFFFFFFFFFFFFFFFFFFFF DUP3 PUSH2 0x1030 JUMP JUMPDEST PUSH2 0x1075 DUP7 DUP4 PUSH2 0x1030 JUMP JUMPDEST SWAP6 POP DUP1 NOT DUP5 AND SWAP4 POP DUP1 DUP7 AND DUP5 OR SWAP3 POP POP POP SWAP4 SWAP3 POP POP POP JUMP JUMPDEST PUSH0 PUSH2 0x10A7 PUSH2 0x10A2 PUSH2 0x109D DUP5 PUSH2 0x891 JUMP JUMPDEST PUSH2 0x90E JUMP JUMPDEST PUSH2 0x891 JUMP JUMPDEST SWAP1 POP SWAP2 SWAP1 POP JUMP JUMPDEST PUSH0 DUP2 SWAP1 POP SWAP2 SWAP1 POP JUMP JUMPDEST PUSH2 0x10C0 DUP4 PUSH2 0x108D JUMP JUMPDEST PUSH2 0x10D4 PUSH2 0x10CC DUP3 PUSH2 0x10AE JUMP JUMPDEST DUP5 DUP5 SLOAD PUSH2 0x103C JUMP JUMPDEST DUP3 SSTORE POP POP POP POP JUMP JUMPDEST PUSH0 SWAP1 JUMP JUMPDEST PUSH2 0x10E8 PUSH2 0x10DC JUMP JUMPDEST PUSH2 0x10F3 DUP2 DUP5 DUP5 PUSH2 0x10B7 JUMP JUMPDEST POP POP POP JUMP JUMPDEST JUMPDEST DUP2 DUP2 LT ISZERO PUSH2 0x1116 JUMPI PUSH2 0x110B PUSH0 DUP3 PUSH2 0x10E0 JUMP JUMPDEST PUSH1 0x1 DUP2 ADD SWAP1 POP PUSH2 0x10F9 JUMP JUMPDEST POP POP JUMP JUMPDEST PUSH1 0x1F DUP3 GT ISZERO PUSH2 0x115B JUMPI PUSH2 0x112C DUP2 PUSH2 0x100F JUMP JUMPDEST PUSH2 0x1135 DUP5 PUSH2 0x1021 JUMP JUMPDEST DUP2 ADD PUSH1 0x20 DUP6 LT ISZERO PUSH2 0x1144 JUMPI DUP2 SWAP1 POP JUMPDEST PUSH2 0x1158 PUSH2 0x1150 DUP6 PUSH2 0x1021 JUMP JUMPDEST DUP4 ADD DUP3 PUSH2 0x10F8 JUMP JUMPDEST POP POP JUMPDEST POP POP POP JUMP JUMPDEST PUSH0 DUP3 DUP3 SHR SWAP1 POP SWAP3 SWAP2 POP POP JUMP JUMPDEST PUSH0 PUSH2 0x117B PUSH0 NOT DUP5 PUSH1 0x8 MUL PUSH2 0x1160 JUMP JUMPDEST NOT DUP1 DUP4 AND SWAP2 POP POP SWAP3 SWAP2 POP POP JUMP JUMPDEST PUSH0 PUSH2 0x1193 DUP4 DUP4 PUSH2 0x116C JUMP JUMPDEST SWAP2 POP DUP3 PUSH1 0x2 MUL DUP3 OR SWAP1 POP SWAP3 SWAP2 POP POP JUMP JUMPDEST PUSH2 0x11AC DUP3 PUSH2 0xFA8 JUMP JUMPDEST PUSH8 0xFFFFFFFFFFFFFFFF DUP2 GT ISZERO PUSH2 0x11C5 JUMPI PUSH2 0x11C4 PUSH2 0xA1F JUMP JUMPDEST JUMPDEST PUSH2 0x11CF DUP3 SLOAD PUSH2 0xFDF JUMP JUMPDEST PUSH2 0x11DA DUP3 DUP3 DUP6 PUSH2 0x111A JUMP JUMPDEST PUSH0 PUSH1 0x20 SWAP1 POP PUSH1 0x1F DUP4 GT PUSH1 0x1 DUP2 EQ PUSH2 0x120B JUMPI PUSH0 DUP5 ISZERO PUSH2 0x11F9 JUMPI DUP3 DUP8 ADD MLOAD SWAP1 POP JUMPDEST PUSH2 0x1203 DUP6 DUP3 PUSH2 0x1188 JUMP JUMPDEST DUP7 SSTORE POP PUSH2 0x126A JUMP JUMPDEST PUSH1 0x1F NOT DUP5 AND PUSH2 0x1219 DUP7 PUSH2 0x100F JUMP JUMPDEST PUSH0 JUMPDEST DUP3 DUP2 LT ISZERO PUSH2 0x1240 JUMPI DUP5 DUP10 ADD MLOAD DUP3 SSTORE PUSH1 0x1 DUP3 ADD SWAP2 POP PUSH1 0x20 DUP6 ADD SWAP5 POP PUSH1 0x20 DUP2 ADD SWAP1 POP PUSH2 0x121B JUMP JUMPDEST DUP7 DUP4 LT ISZERO PUSH2 0x125D JUMPI DUP5 DUP10 ADD MLOAD PUSH2 0x1259 PUSH1 0x1F DUP10 AND DUP3 PUSH2 0x116C JUMP JUMPDEST DUP4 SSTORE POP JUMPDEST PUSH1 0x1 PUSH1 0x2 DUP9 MUL ADD DUP9 SSTORE POP POP POP JUMPDEST POP POP POP POP POP POP JUMP JUMPDEST DUP3 DUP2 DUP4 MCOPY PUSH0 DUP4 DUP4 ADD MSTORE POP POP POP JUMP JUMPDEST PUSH0 PUSH2 0x128A DUP3 PUSH2 0xFA8 JUMP JUMPDEST PUSH2 0x1294 DUP2 DUP6 PUSH2 0xC17 JUMP JUMPDEST SWAP4 POP PUSH2 0x12A4 DUP2 DUP6 PUSH1 0x20 DUP7 ADD PUSH2 0x1272 JUMP JUMPDEST PUSH2 0x12AD DUP2 PUSH2 0xA0F JUMP JUMPDEST DUP5 ADD SWAP2 POP POP SWAP3 SWAP2 POP POP JUMP JUMPDEST PUSH0 PUSH1 0x40 DUP3 ADD SWAP1 POP DUP2 DUP2 SUB PUSH0 DUP4 ADD MSTORE PUSH2 0x12D0 DUP2 DUP6 PUSH2 0x1280 JUMP JUMPDEST SWAP1 POP PUSH2 0x12DF PUSH1 0x20 DUP4 ADD DUP5 PUSH2 0xD06 JUMP JUMPDEST SWAP4 SWAP3 POP POP POP JUMP JUMPDEST PUSH32 0x4E487B7100000000000000000000000000000000000000000000000000000000 PUSH0 MSTORE PUSH1 0x12 PUSH1 0x4 MSTORE PUSH1 0x24 PUSH0 REVERT JUMPDEST PUSH0 PUSH2 0x131D DUP3 PUSH2 0x891 JUMP JUMPDEST SWAP2 POP PUSH2 0x1328 DUP4 PUSH2 0x891 JUMP JUMPDEST SWAP3 POP DUP3 PUSH2 0x1338 JUMPI PUSH2 0x1337 PUSH2 0x12E6 JUMP JUMPDEST JUMPDEST DUP3 DUP3 DIV SWAP1 POP SWAP3 SWAP2 POP POP JUMP INVALID LOG2 PUSH5 0x6970667358 0x22 SLT KECCAK256 0xC9 0xA5 0xF DUP11 PUSH7 0xF6042BF8405C82 PUSH13 0x3EB83BC9B51C86E6BF666E05BD 0xF9 BLOCKHASH 0xBA 0xB2 0xCF 0xD3 PUSH5 0x736F6C6343 STOP ADDMOD NOT STOP CALLER "
				},
				"gasEstimates": {
					"creation": {
						"codeDepositCost": "997000",
						"executionCost": "infinite",
						"totalCost": "infinite"
					},
					"external": {
						"createProposal(string,uint256,address)": "infinite",
						"daoToken()": "infinite",
						"executeProposal(uint256)": "infinite",
						"vote(uint256,uint256,bool)": "infinite"
					},
					"internal": {
						"sqrt(uint256)": "infinite"
					}
				},
				"methodIdentifiers": {
					"createProposal(string,uint256,address)": "6ac1e01f",
					"daoToken()": "4914b030",
					"executeProposal(uint256)": "0d61b519",
					"vote(uint256,uint256,bool)": "6a18ff7a"
				}
			},
			"storageLayout": {
				"storage": [
					{
						"astId": 2298,
						"contract": "ECE473 Final Project/Governance.sol:Governance",
						"label": "daoToken",
						"offset": 0,
						"slot": "0",
						"type": "t_contract(DAOToken)2283"
					},
					{
						"astId": 2330,
						"contract": "ECE473 Final Project/Governance.sol:Governance",
						"label": "proposals",
						"offset": 0,
						"slot": "1",
						"type": "t_array(t_struct(Proposal)2326_storage)dyn_storage"
					}
				],
				"types": {
					"t_address": {
						"encoding": "inplace",
						"label": "address",
						"numberOfBytes": "20"
					},
					"t_address_payable": {
						"encoding": "inplace",
						"label": "address payable",
						"numberOfBytes": "20"
					},
					"t_array(t_bytes32)dyn_storage": {
						"base": "t_bytes32",
						"encoding": "dynamic_array",
						"label": "bytes32[]",
						"numberOfBytes": "32"
					},
					"t_array(t_struct(Proposal)2326_storage)dyn_storage": {
						"base": "t_struct(Proposal)2326_storage",
						"encoding": "dynamic_array",
						"label": "struct Governance.Proposal[]",
						"numberOfBytes": "32"
					},
					"t_bool": {
						"encoding": "inplace",
						"label": "bool",
						"numberOfBytes": "1"
					},
					"t_bytes32": {
						"encoding": "inplace",
						"label": "bytes32",
						"numberOfBytes": "32"
					},
					"t_contract(DAOToken)2283": {
						"encoding": "inplace",
						"label": "contract DAOToken",
						"numberOfBytes": "20"
					},
					"t_mapping(t_address,t_uint256)": {
						"encoding": "mapping",
						"key": "t_address",
						"label": "mapping(address => uint256)",
						"numberOfBytes": "32",
						"value": "t_uint256"
					},
					"t_mapping(t_bytes32,t_uint256)": {
						"encoding": "mapping",
						"key": "t_bytes32",
						"label": "mapping(bytes32 => uint256)",
						"numberOfBytes": "32",
						"value": "t_uint256"
					},
					"t_string_storage": {
						"encoding": "bytes",
						"label": "string",
						"numberOfBytes": "32"
					},
					"t_struct(AddressSet)1838_storage": {
						"encoding": "inplace",
						"label": "struct EnumerableSet.AddressSet",
						"members": [
							{
								"astId": 1837,
								"contract": "ECE473 Final Project/Governance.sol:Governance",
								"label": "_inner",
								"offset": 0,
								"slot": "0",
								"type": "t_struct(Set)1523_storage"
							}
						],
						"numberOfBytes": "64"
					},
					"t_struct(Proposal)2326_storage": {
						"encoding": "inplace",
						"label": "struct Governance.Proposal",
						"members": [
							{
								"astId": 2300,
								"contract": "ECE473 Final Project/Governance.sol:Governance",
								"label": "id",
								"offset": 0,
								"slot": "0",
								"type": "t_uint256"
							},
							{
								"astId": 2302,
								"contract": "ECE473 Final Project/Governance.sol:Governance",
								"label": "proposer",
								"offset": 0,
								"slot": "1",
								"type": "t_address"
							},
							{
								"astId": 2304,
								"contract": "ECE473 Final Project/Governance.sol:Governance",
								"label": "description",
								"offset": 0,
								"slot": "2",
								"type": "t_string_storage"
							},
							{
								"astId": 2306,
								"contract": "ECE473 Final Project/Governance.sol:Governance",
								"label": "amount",
								"offset": 0,
								"slot": "3",
								"type": "t_uint256"
							},
							{
								"astId": 2308,
								"contract": "ECE473 Final Project/Governance.sol:Governance",
								"label": "recipient",
								"offset": 0,
								"slot": "4",
								"type": "t_address_payable"
							},
							{
								"astId": 2310,
								"contract": "ECE473 Final Project/Governance.sol:Governance",
								"label": "startTime",
								"offset": 0,
								"slot": "5",
								"type": "t_uint256"
							},
							{
								"astId": 2312,
								"contract": "ECE473 Final Project/Governance.sol:Governance",
								"label": "endTime",
								"offset": 0,
								"slot": "6",
								"type": "t_uint256"
							},
							{
								"astId": 2314,
								"contract": "ECE473 Final Project/Governance.sol:Governance",
								"label": "totalVotesFor",
								"offset": 0,
								"slot": "7",
								"type": "t_uint256"
							},
							{
								"astId": 2316,
								"contract": "ECE473 Final Project/Governance.sol:Governance",
								"label": "totalVotesAgainst",
								"offset": 0,
								"slot": "8",
								"type": "t_uint256"
							},
							{
								"astId": 2320,
								"contract": "ECE473 Final Project/Governance.sol:Governance",
								"label": "votes",
								"offset": 0,
								"slot": "9",
								"type": "t_mapping(t_address,t_uint256)"
							},
							{
								"astId": 2323,
								"contract": "ECE473 Final Project/Governance.sol:Governance",
								"label": "voters",
								"offset": 0,
								"slot": "10",
								"type": "t_struct(AddressSet)1838_storage"
							},
							{
								"astId": 2325,
								"contract": "ECE473 Final Project/Governance.sol:Governance",
								"label": "executed",
								"offset": 0,
								"slot": "12",
								"type": "t_bool"
							}
						],
						"numberOfBytes": "416"
					},
					"t_struct(Set)1523_storage": {
						"encoding": "inplace",
						"label": "struct EnumerableSet.Set",
						"members": [
							{
								"astId": 1518,
								"contract": "ECE473 Final Project/Governance.sol:Governance",
								"label": "_values",
								"offset": 0,
								"slot": "0",
								"type": "t_array(t_bytes32)dyn_storage"
							},
							{
								"astId": 1522,
								"contract": "ECE473 Final Project/Governance.sol:Governance",
								"label": "_positions",
								"offset": 0,
								"slot": "1",
								"type": "t_mapping(t_bytes32,t_uint256)"
							}
						],
						"numberOfBytes": "64"
					},
					"t_uint256": {
						"encoding": "inplace",
						"label": "uint256",
						"numberOfBytes": "32"
					}
				}
			},
			"userdoc": {
				"kind": "user",
				"methods": {},
				"version": 1
			}
		}
	}
}